{
  "_format": "hh-sol-artifact-1",
  "contractName": "AxelarDepositService",
  "sourceName": "contracts/deposit-service/AxelarDepositService.sol",
  "abi": [
    {
      "inputs": [
        {
          "internalType": "address",
          "name": "gateway_",
          "type": "address"
        },
        {
          "internalType": "string",
          "name": "wrappedSymbol_",
          "type": "string"
        },
        {
          "internalType": "address",
          "name": "refundIssuer_",
          "type": "address"
        }
      ],
      "stateMutability": "nonpayable",
      "type": "constructor"
    },
    {
      "inputs": [],
      "name": "InvalidAddress",
      "type": "error"
    },
    {
      "inputs": [],
      "name": "InvalidAmount",
      "type": "error"
    },
    {
      "inputs": [],
      "name": "InvalidCodeHash",
      "type": "error"
    },
    {
      "inputs": [],
      "name": "InvalidImplementation",
      "type": "error"
    },
    {
      "inputs": [],
      "name": "InvalidOwner",
      "type": "error"
    },
    {
      "inputs": [],
      "name": "InvalidOwnerAddress",
      "type": "error"
    },
    {
      "inputs": [],
      "name": "InvalidStringLength",
      "type": "error"
    },
    {
      "inputs": [],
      "name": "InvalidSymbol",
      "type": "error"
    },
    {
      "inputs": [],
      "name": "NativeTransferFailed",
      "type": "error"
    },
    {
      "inputs": [],
      "name": "NotOwner",
      "type": "error"
    },
    {
      "inputs": [],
      "name": "NotProxy",
      "type": "error"
    },
    {
      "inputs": [],
      "name": "NotRefundIssuer",
      "type": "error"
    },
    {
      "inputs": [],
      "name": "NothingDeposited",
      "type": "error"
    },
    {
      "inputs": [],
      "name": "SetupFailed",
      "type": "error"
    },
    {
      "inputs": [],
      "name": "TokenApproveFailed",
      "type": "error"
    },
    {
      "inputs": [],
      "name": "TokenTransferFailed",
      "type": "error"
    },
    {
      "inputs": [],
      "name": "UnwrapFailed",
      "type": "error"
    },
    {
      "inputs": [],
      "name": "WrapFailed",
      "type": "error"
    },
    {
      "inputs": [],
      "name": "WrappedTokenNotSupported",
      "type": "error"
    },
    {
      "anonymous": false,
      "inputs": [
        {
          "indexed": true,
          "internalType": "address",
          "name": "newOwner",
          "type": "address"
        }
      ],
      "name": "OwnershipTransferStarted",
      "type": "event"
    },
    {
      "anonymous": false,
      "inputs": [
        {
          "indexed": true,
          "internalType": "address",
          "name": "newOwner",
          "type": "address"
        }
      ],
      "name": "OwnershipTransferred",
      "type": "event"
    },
    {
      "anonymous": false,
      "inputs": [
        {
          "indexed": true,
          "internalType": "address",
          "name": "newImplementation",
          "type": "address"
        }
      ],
      "name": "Upgraded",
      "type": "event"
    },
    {
      "inputs": [],
      "name": "acceptOwnership",
      "outputs": [],
      "stateMutability": "nonpayable",
      "type": "function"
    },
    {
      "inputs": [
        {
          "internalType": "bytes32",
          "name": "salt",
          "type": "bytes32"
        },
        {
          "internalType": "address",
          "name": "refundAddress",
          "type": "address"
        },
        {
          "internalType": "string",
          "name": "destinationChain",
          "type": "string"
        },
        {
          "internalType": "string",
          "name": "destinationAddress",
          "type": "string"
        }
      ],
      "name": "addressForNativeDeposit",
      "outputs": [
        {
          "internalType": "address",
          "name": "",
          "type": "address"
        }
      ],
      "stateMutability": "view",
      "type": "function"
    },
    {
      "inputs": [
        {
          "internalType": "bytes32",
          "name": "salt",
          "type": "bytes32"
        },
        {
          "internalType": "address",
          "name": "refundAddress",
          "type": "address"
        },
        {
          "internalType": "address",
          "name": "recipient",
          "type": "address"
        }
      ],
      "name": "addressForNativeUnwrap",
      "outputs": [
        {
          "internalType": "address",
          "name": "",
          "type": "address"
        }
      ],
      "stateMutability": "view",
      "type": "function"
    },
    {
      "inputs": [
        {
          "internalType": "bytes32",
          "name": "salt",
          "type": "bytes32"
        },
        {
          "internalType": "address",
          "name": "refundAddress",
          "type": "address"
        },
        {
          "internalType": "string",
          "name": "destinationChain",
          "type": "string"
        },
        {
          "internalType": "string",
          "name": "destinationAddress",
          "type": "string"
        },
        {
          "internalType": "string",
          "name": "tokenSymbol",
          "type": "string"
        }
      ],
      "name": "addressForTokenDeposit",
      "outputs": [
        {
          "internalType": "address",
          "name": "",
          "type": "address"
        }
      ],
      "stateMutability": "view",
      "type": "function"
    },
    {
      "inputs": [],
      "name": "contractId",
      "outputs": [
        {
          "internalType": "bytes32",
          "name": "",
          "type": "bytes32"
        }
      ],
      "stateMutability": "pure",
      "type": "function"
    },
    {
      "inputs": [],
      "name": "gateway",
      "outputs": [
        {
          "internalType": "address",
          "name": "",
          "type": "address"
        }
      ],
      "stateMutability": "view",
      "type": "function"
    },
    {
      "inputs": [],
      "name": "implementation",
      "outputs": [
        {
          "internalType": "address",
          "name": "implementation_",
          "type": "address"
        }
      ],
      "stateMutability": "view",
      "type": "function"
    },
    {
      "inputs": [
        {
          "internalType": "bytes32",
          "name": "salt",
          "type": "bytes32"
        },
        {
          "internalType": "address",
          "name": "refundAddress",
          "type": "address"
        },
        {
          "internalType": "address payable",
          "name": "recipient",
          "type": "address"
        }
      ],
      "name": "nativeUnwrap",
      "outputs": [],
      "stateMutability": "nonpayable",
      "type": "function"
    },
    {
      "inputs": [],
      "name": "owner",
      "outputs": [
        {
          "internalType": "address",
          "name": "owner_",
          "type": "address"
        }
      ],
      "stateMutability": "view",
      "type": "function"
    },
    {
      "inputs": [],
      "name": "pendingOwner",
      "outputs": [
        {
          "internalType": "address",
          "name": "owner_",
          "type": "address"
        }
      ],
      "stateMutability": "view",
      "type": "function"
    },
    {
      "inputs": [
        {
          "internalType": "address",
          "name": "newOwner",
          "type": "address"
        }
      ],
      "name": "proposeOwnership",
      "outputs": [],
      "stateMutability": "nonpayable",
      "type": "function"
    },
    {
      "inputs": [],
      "name": "receiverImplementation",
      "outputs": [
        {
          "internalType": "address",
          "name": "",
          "type": "address"
        }
      ],
      "stateMutability": "view",
      "type": "function"
    },
    {
      "inputs": [],
      "name": "refundIssuer",
      "outputs": [
        {
          "internalType": "address",
          "name": "",
          "type": "address"
        }
      ],
      "stateMutability": "view",
      "type": "function"
    },
    {
      "inputs": [
        {
          "internalType": "address",
          "name": "receiver",
          "type": "address"
        },
        {
          "internalType": "address",
          "name": "token",
          "type": "address"
        },
        {
          "internalType": "uint256",
          "name": "amount",
          "type": "uint256"
        }
      ],
      "name": "refundLockedAsset",
      "outputs": [],
      "stateMutability": "nonpayable",
      "type": "function"
    },
    {
      "inputs": [
        {
          "internalType": "bytes32",
          "name": "salt",
          "type": "bytes32"
        },
        {
          "internalType": "address",
          "name": "refundAddress",
          "type": "address"
        },
        {
          "internalType": "string",
          "name": "destinationChain",
          "type": "string"
        },
        {
          "internalType": "string",
          "name": "destinationAddress",
          "type": "string"
        },
        {
          "internalType": "address[]",
          "name": "refundTokens",
          "type": "address[]"
        }
      ],
      "name": "refundNativeDeposit",
      "outputs": [],
      "stateMutability": "nonpayable",
      "type": "function"
    },
    {
      "inputs": [
        {
          "internalType": "bytes32",
          "name": "salt",
          "type": "bytes32"
        },
        {
          "internalType": "address",
          "name": "refundAddress",
          "type": "address"
        },
        {
          "internalType": "address payable",
          "name": "recipient",
          "type": "address"
        },
        {
          "internalType": "address[]",
          "name": "refundTokens",
          "type": "address[]"
        }
      ],
      "name": "refundNativeUnwrap",
      "outputs": [],
      "stateMutability": "nonpayable",
      "type": "function"
    },
    {
      "inputs": [],
      "name": "refundToken",
      "outputs": [
        {
          "internalType": "address",
          "name": "",
          "type": "address"
        }
      ],
      "stateMutability": "view",
      "type": "function"
    },
    {
      "inputs": [
        {
          "internalType": "bytes32",
          "name": "salt",
          "type": "bytes32"
        },
        {
          "internalType": "address",
          "name": "refundAddress",
          "type": "address"
        },
        {
          "internalType": "string",
          "name": "destinationChain",
          "type": "string"
        },
        {
          "internalType": "string",
          "name": "destinationAddress",
          "type": "string"
        },
        {
          "internalType": "string",
          "name": "tokenSymbol",
          "type": "string"
        },
        {
          "internalType": "address[]",
          "name": "refundTokens",
          "type": "address[]"
        }
      ],
      "name": "refundTokenDeposit",
      "outputs": [],
      "stateMutability": "nonpayable",
      "type": "function"
    },
    {
      "inputs": [
        {
          "internalType": "string",
          "name": "destinationChain",
          "type": "string"
        },
        {
          "internalType": "string",
          "name": "destinationAddress",
          "type": "string"
        }
      ],
      "name": "sendNative",
      "outputs": [],
      "stateMutability": "payable",
      "type": "function"
    },
    {
      "inputs": [
        {
          "internalType": "bytes32",
          "name": "salt",
          "type": "bytes32"
        },
        {
          "internalType": "address",
          "name": "refundAddress",
          "type": "address"
        },
        {
          "internalType": "string",
          "name": "destinationChain",
          "type": "string"
        },
        {
          "internalType": "string",
          "name": "destinationAddress",
          "type": "string"
        }
      ],
      "name": "sendNativeDeposit",
      "outputs": [],
      "stateMutability": "nonpayable",
      "type": "function"
    },
    {
      "inputs": [
        {
          "internalType": "bytes32",
          "name": "salt",
          "type": "bytes32"
        },
        {
          "internalType": "address",
          "name": "refundAddress",
          "type": "address"
        },
        {
          "internalType": "string",
          "name": "destinationChain",
          "type": "string"
        },
        {
          "internalType": "string",
          "name": "destinationAddress",
          "type": "string"
        },
        {
          "internalType": "string",
          "name": "tokenSymbol",
          "type": "string"
        }
      ],
      "name": "sendTokenDeposit",
      "outputs": [],
      "stateMutability": "nonpayable",
      "type": "function"
    },
    {
      "inputs": [
        {
          "internalType": "bytes",
          "name": "data",
          "type": "bytes"
        }
      ],
      "name": "setup",
      "outputs": [],
      "stateMutability": "nonpayable",
      "type": "function"
    },
    {
      "inputs": [
        {
          "internalType": "address",
          "name": "newOwner",
          "type": "address"
        }
      ],
      "name": "transferOwnership",
      "outputs": [],
      "stateMutability": "nonpayable",
      "type": "function"
    },
    {
      "inputs": [
        {
          "internalType": "address",
          "name": "newImplementation",
          "type": "address"
        },
        {
          "internalType": "bytes32",
          "name": "newImplementationCodeHash",
          "type": "bytes32"
        },
        {
          "internalType": "bytes",
          "name": "params",
          "type": "bytes"
        }
      ],
      "name": "upgrade",
      "outputs": [],
      "stateMutability": "nonpayable",
      "type": "function"
    },
    {
      "inputs": [],
      "name": "wrappedSymbol",
      "outputs": [
        {
          "internalType": "string",
          "name": "",
          "type": "string"
        }
      ],
      "stateMutability": "view",
      "type": "function"
    },
    {
      "inputs": [],
      "name": "wrappedToken",
      "outputs": [
        {
          "internalType": "address",
          "name": "",
          "type": "address"
        }
      ],
      "stateMutability": "view",
      "type": "function"
    },
    {
      "inputs": [],
      "name": "wrappedTokenAddress",
      "outputs": [
        {
          "internalType": "address",
          "name": "",
          "type": "address"
        }
      ],
      "stateMutability": "view",
      "type": "function"
    }
  ],
  "bytecode": "0x6101406040523480156200001257600080fd5b50604051620041e8380380620041e8833981016040819052620000359162000370565b82826001620000448162000208565b50306080526001600160a01b038216620000715760405163e6c4247b60e01b815260040160405180910390fd5b80516001600160a01b03831660a0521515806200009057600062000112565b6040516349ad89fb60e11b81526001600160a01b0384169063935b13f690620000be9085906004016200047e565b60206040518083038186803b158015620000d757600080fd5b505afa158015620000ec573d6000803e3d6000fd5b505050506040513d601f19601f820116820180604052508101906200011291906200049a565b6001600160a01b031660c052806200012c57600062000142565b6200014282620002ac60201b620017ad1760201c565b60e0528080156200015c575060c0516001600160a01b0316155b156200017b5760405163010466f160e21b815260040160405180910390fd5b5050506001600160a01b038116620001a65760405163e6c4247b60e01b815260040160405180910390fd5b6001600160a01b0381166101205260405183908390620001c690620002fc565b620001d3929190620004b8565b604051809103906000f080158015620001f0573d6000803e3d6000fd5b506001600160a01b031661010052506200050e915050565b6001600160a01b0381166200023057604051633649397d60e21b815260040160405180910390fd5b6040516001600160a01b038216907f04dba622d284ed0014ee4b9a6a68386be1a4c08a4913ae272de89199cc68616390600090a27f02016836a56b71f0d02689e69e326f4f4c1b9057164ef592671cf0d37c8040c05560007f9855384122b55936fbfb8ca5120e63c6537a1ac40caf6ae33502b3c5da8c87d155565b805160009082901580620002c15750601f8151115b15620002e057604051638dc6ac0160e01b815260040160405180910390fd5b6000620002ed82620004e6565b915160ff169091179392505050565b61155b8062002c8d83390190565b80516001600160a01b03811681146200032257600080fd5b919050565b634e487b7160e01b600052604160045260246000fd5b60005b838110156200035a57818101518382015260200162000340565b838111156200036a576000848401525b50505050565b6000806000606084860312156200038657600080fd5b62000391846200030a565b60208501519093506001600160401b0380821115620003af57600080fd5b818601915086601f830112620003c457600080fd5b815181811115620003d957620003d962000327565b604051601f8201601f19908116603f0116810190838211818310171562000404576200040462000327565b816040528281528960208487010111156200041e57600080fd5b620004318360208301602088016200033d565b809650505050505062000447604085016200030a565b90509250925092565b600081518084526200046a8160208601602086016200033d565b601f01601f19169290920160200192915050565b60208152600062000493602083018462000450565b9392505050565b600060208284031215620004ad57600080fd5b62000493826200030a565b6001600160a01b0383168152604060208201819052600090620004de9083018462000450565b949350505050565b8051602080830151919081101562000508576000198160200360031b1b821691505b50919050565b60805160a05160c05160e05161010051610120516126f06200059d600039600081816102f90152610c9a015260006101e8015260008181610654015261094501526000818161032f015281816104fd015281816107ad0152818161087d01526109e00152600081816102600152818161084e015281816109040152610f2d0152600061116001526126f06000f3fe608060405260043610620001cf5760003560e01c8063710bf32211620000ff578063a3499c731162000095578063e30c3978116200006c578063e30c397814620005b6578063f2fde38b14620005ec578063fc13a8b11462000611578063fee8cf4e146200063657600080fd5b8063a3499c731462000547578063b357691e146200056c578063cf85fb53146200059157600080fd5b80638da5cb5b11620000d65780638da5cb5b146200049257806393e4845b14620004c8578063996c6cc314620004ed5780639ded06df146200052257600080fd5b8063710bf322146200041857806379ba5097146200043d5780638291286c146200045557600080fd5b806338f047fa1162000175578063439dff06116200014c578063439dff06146200037657806351adb383146200039b5780635c60da1b14620003c05780635cb732be14620003f657600080fd5b806338f047fa14620002e55780633e646208146200031b5780633f99819a146200035157600080fd5b806313e46f7211620001aa57806313e46f72146200028257806315c4be9614620002a757806319030c4714620002c057600080fd5b8063112e335c14620001d4578063115079db1462000227578063116191b6146200024c575b600080fd5b348015620001e157600080fd5b506200020a7f000000000000000000000000000000000000000000000000000000000000000081565b6040516001600160a01b0390911681526020015b60405180910390f35b3480156200023457600080fd5b506200020a6200024636600462001bc1565b62000690565b3480156200025957600080fd5b506200020a7f000000000000000000000000000000000000000000000000000000000000000081565b3480156200028f57600080fd5b506200020a620002a136600462001c56565b620006fe565b620002be620002b836600462001d18565b62000772565b005b348015620002cd57600080fd5b50620002be620002df36600462001dd3565b620009d1565b348015620002f257600080fd5b506200020a7f000000000000000000000000000000000000000000000000000000000000000081565b3480156200032857600080fd5b506200020a7f000000000000000000000000000000000000000000000000000000000000000081565b3480156200035e57600080fd5b50620002be6200037036600462001c56565b62000b5b565b3480156200038357600080fd5b50620002be6200039536600462001e4e565b62000bfe565b348015620003a857600080fd5b50620002be620003ba36600462001e95565b62000c8f565b348015620003cd57600080fd5b507f360894a13ba1a3210667c828492db98dca3e2076cc3735a920a3ca505d382bbc546200020a565b3480156200040357600080fd5b506000546200020a906001600160a01b031681565b3480156200042557600080fd5b50620002be6200043736600462001edb565b62000daa565b3480156200044a57600080fd5b50620002be62000e7c565b3480156200046257600080fd5b506040517fb8e1544725348a2fe538aa3da850e3b074cd75bac06629b2beb717eaee8dd70781526020016200021e565b3480156200049f57600080fd5b507f02016836a56b71f0d02689e69e326f4f4c1b9057164ef592671cf0d37c8040c0546200020a565b348015620004d557600080fd5b50620002be620004e736600462001f02565b62000efa565b348015620004fa57600080fd5b507f00000000000000000000000000000000000000000000000000000000000000006200020a565b3480156200052f57600080fd5b50620002be6200054136600462001ff2565b6200115e565b3480156200055457600080fd5b50620002be6200056636600462002038565b620011c6565b3480156200057957600080fd5b50620002be6200058b3660046200208e565b620014eb565b3480156200059e57600080fd5b50620002be620005b036600462001bc1565b62001664565b348015620005c357600080fd5b507f9855384122b55936fbfb8ca5120e63c6537a1ac40caf6ae33502b3c5da8c87d1546200020a565b348015620005f957600080fd5b50620002be6200060b36600462001edb565b620016f7565b3480156200061e57600080fd5b506200020a6200063036600462001e4e565b62001749565b3480156200064357600080fd5b5062000681604080518082019091527f000000000000000000000000000000000000000000000000000000000000000060ff81168252602082015290565b6040516200021e919062002199565b6000620006f38763a97a8d1660e01b8888888888604051602401620006ba959493929190620021d7565b60408051601f198184030181529190526020810180516001600160e01b03166001600160e01b0319909316929092179091528862001816565b979650505050505050565b6000620007658963b28f104b60e01b8a8a8a8a8a8a8a6040516024016200072c97969594939291906200221d565b60408051601f198184030181529190526020810180516001600160e01b03166001600160e01b0319909316929092179091528a62001816565b9998505050505050505050565b3480620007ab576040517f69b95dc900000000000000000000000000000000000000000000000000000000815260040160405180910390fd5b7f00000000000000000000000000000000000000000000000000000000000000006001600160a01b031663d0e30db0826040518263ffffffff1660e01b81526004016000604051808303818588803b1580156200080757600080fd5b505af11580156200081c573d6000803e3d6000fd5b50506040517f095ea7b30000000000000000000000000000000000000000000000000000000081526001600160a01b037f000000000000000000000000000000000000000000000000000000000000000081166004830152602482018690527f000000000000000000000000000000000000000000000000000000000000000016935063095ea7b392506044019050602060405180830381600087803b158015620008c657600080fd5b505af1158015620008db573d6000803e3d6000fd5b505050506040513d601f19601f820116820180604052508101906200090191906200227c565b507f00000000000000000000000000000000000000000000000000000000000000006001600160a01b03166326ef699d8686868662000972604080518082019091527f000000000000000000000000000000000000000000000000000000000000000060ff81168252602082015290565b876040518763ffffffff1660e01b81526004016200099696959493929190620022a0565b600060405180830381600087803b158015620009b157600080fd5b505af1158015620009c6573d6000803e3d6000fd5b505050505050505050565b8060005b8181101562000b42577f00000000000000000000000000000000000000000000000000000000000000006001600160a01b031684848381811062000a1d5762000a1d620022f5565b905060200201602081019062000a34919062001edb565b6001600160a01b031614801562000a545750336001600160a01b03871614155b1562000a605762000b2f565b83838281811062000a755762000a75620022f5565b905060200201602081019062000a8c919062001edb565b600080546001600160a01b039283166001600160a01b031990911617905560408051888316602482015291871660448084019190915281518084039091018152606490920181526020820180516001600160e01b0316632233341160e21b17905251889190889062000afe9062001b3f565b62000b0b9291906200230b565b8190604051809103906000f590508015801562000b2c573d6000803e3d6000fd5b50505b62000b3a8162002338565b9050620009d5565b5050600080546001600160a01b03191690555050505050565b8763b28f104b60e01b8888888888888860405160240162000b8397969594939291906200221d565b60408051601f198184030181529181526020820180516001600160e01b03166001600160e01b0319909416939093179092529051899062000bc49062001b3f565b62000bd19291906200230b565b8190604051809103906000f590508015801562000bf2573d6000803e3d6000fd5b50505050505050505050565b604080516001600160a01b038481166024830152831660448083019190915282518083039091018152606490910182526020810180516001600160e01b0316632233341160e21b1790529051849190849062000c5a9062001b3f565b62000c679291906200230b565b8190604051809103906000f590508015801562000c88573d6000803e3d6000fd5b5050505050565b336001600160a01b037f0000000000000000000000000000000000000000000000000000000000000000161462000cf2576040517f3d25ebf600000000000000000000000000000000000000000000000000000000815260040160405180910390fd5b6001600160a01b03831662000d33576040517fe6c4247b00000000000000000000000000000000000000000000000000000000815260040160405180910390fd5b8062000d6b576040517f2c5211c600000000000000000000000000000000000000000000000000000000815260040160405180910390fd5b6001600160a01b03821662000d945762000d8f6001600160a01b0384168262001907565b505050565b62000d8f6001600160a01b03831684836200194d565b3362000dd47f02016836a56b71f0d02689e69e326f4f4c1b9057164ef592671cf0d37c8040c05490565b6001600160a01b03161462000dfc576040516330cd747160e01b815260040160405180910390fd5b6001600160a01b03811662000e2457604051633649397d60e21b815260040160405180910390fd5b6040516001600160a01b038216907fd9be0e8e07417e00f2521db636cb53e316fd288f5051f16d2aa2bf0c3938a87690600090a27f9855384122b55936fbfb8ca5120e63c6537a1ac40caf6ae33502b3c5da8c87d155565b600062000ea77f9855384122b55936fbfb8ca5120e63c6537a1ac40caf6ae33502b3c5da8c87d15490565b90506001600160a01b038116331462000eec576040517f49e27cff00000000000000000000000000000000000000000000000000000000815260040160405180910390fd5b62000ef781620019ba565b50565b6040517f935b13f60000000000000000000000000000000000000000000000000000000081526000906001600160a01b037f0000000000000000000000000000000000000000000000000000000000000000169063935b13f69062000f66908890889060040162002362565b60206040518083038186803b15801562000f7f57600080fd5b505afa15801562000f94573d6000803e3d6000fd5b505050506040513d601f19601f8201168201806040525081019062000fba919062002378565b90508160005b818110156200113f57826001600160a01b031685858381811062000fe85762000fe8620022f5565b905060200201602081019062000fff919062001edb565b6001600160a01b03161480156200101f5750336001600160a01b038d1614155b156200102b576200112c565b848482818110620010405762001040620022f5565b905060200201602081019062001057919062001edb565b600080546001600160a01b0319166001600160a01b03929092169190911790556040518d907fb28f104b0000000000000000000000000000000000000000000000000000000090620010ba908f908f908f908f908f908f908f906024016200221d565b60408051601f198184030181529181526020820180516001600160e01b03166001600160e01b03199094169390931790925290518e90620010fb9062001b3f565b620011089291906200230b565b8190604051809103906000f590508015801562001129573d6000803e3d6000fd5b50505b620011378162002338565b905062000fc0565b5050600080546001600160a01b03191690555050505050505050505050565b7f00000000000000000000000000000000000000000000000000000000000000006001600160a01b0316301415620011c2576040517fbf10dd3a00000000000000000000000000000000000000000000000000000000815260040160405180910390fd5b5050565b33620011f07f02016836a56b71f0d02689e69e326f4f4c1b9057164ef592671cf0d37c8040c05490565b6001600160a01b03161462001218576040516330cd747160e01b815260040160405180910390fd5b7f360894a13ba1a3210667c828492db98dca3e2076cc3735a920a3ca505d382bbc546001600160a01b0316638291286c6040518163ffffffff1660e01b815260040160206040518083038186803b1580156200127357600080fd5b505afa15801562001288573d6000803e3d6000fd5b505050506040513d601f19601f82011682018060405250810190620012ae919062002398565b846001600160a01b0316638291286c6040518163ffffffff1660e01b815260040160206040518083038186803b158015620012e857600080fd5b505afa158015620012fd573d6000803e3d6000fd5b505050506040513d601f19601f8201168201806040525081019062001323919062002398565b146200135b576040517f68155f9a00000000000000000000000000000000000000000000000000000000815260040160405180910390fd5b836001600160a01b03163f83146200139f576040517f8f84fb2400000000000000000000000000000000000000000000000000000000815260040160405180910390fd5b7f360894a13ba1a3210667c828492db98dca3e2076cc3735a920a3ca505d382bbc8490556040516001600160a01b038516907fbc7cd75a20ee27fd9adebab32041f755214dbc6bffa90cc0225b39da2e5c2d3b90600090a28015620014e5576000846001600160a01b0316639ded06df60e01b84846040516024016200142792919062002362565b60408051601f198184030181529181526020820180516001600160e01b03166001600160e01b0319909416939093179092529051620014679190620023b2565b600060405180830381855af49150503d8060008114620014a4576040519150601f19603f3d011682016040523d82523d6000602084013e620014a9565b606091505b505090508062000c88576040517f97905dfb00000000000000000000000000000000000000000000000000000000815260040160405180910390fd5b50505050565b6000620014fd89898989898962000690565b6001600160a01b0316311180156200151e5750336001600160a01b03881614155b156200152a576200165a565b8060005b8181101562001647578383828181106200154c576200154c620022f5565b905060200201602081019062001563919062001edb565b600080546001600160a01b0319166001600160a01b03929092169190911790556040518a907fa97a8d160000000000000000000000000000000000000000000000000000000090620015c2908c908c908c908c908c90602401620021d7565b60408051601f198184030181529181526020820180516001600160e01b03166001600160e01b03199094169390931790925290518b90620016039062001b3f565b620016109291906200230b565b8190604051809103906000f590508015801562001631573d6000803e3d6000fd5b5050806200163f9062002338565b90506200152e565b5050600080546001600160a01b03191690555b5050505050505050565b8563a97a8d1660e01b868686868660405160240162001688959493929190620021d7565b60408051601f198184030181529181526020820180516001600160e01b03166001600160e01b03199094169390931790925290518790620016c99062001b3f565b620016d69291906200230b565b8190604051809103906000f59050801580156200165a573d6000803e3d6000fd5b33620017217f02016836a56b71f0d02689e69e326f4f4c1b9057164ef592671cf0d37c8040c05490565b6001600160a01b03161462000eec576040516330cd747160e01b815260040160405180910390fd5b604080516001600160a01b03848116602483015283166044808301919091528251808303909101815260649091019091526020810180516001600160e01b0316632233341160e21b179052600090620017a59085908562001816565b949350505050565b805160009082901580620017c25750601f8151115b15620017fa576040517f8dc6ac0100000000000000000000000000000000000000000000000000000000815260040160405180910390fd5b60006200180782620023d0565b915160ff169091179392505050565b60003084604051806020016200182c9062001b3f565b601f1982820381018352601f9091011660408190526200185390879087906020016200230b565b60408051601f1981840301815290829052620018739291602001620023f8565b60405160208183030381529060405280519060200120604051602001620018e7939291907fff00000000000000000000000000000000000000000000000000000000000000815260609390931b6bffffffffffffffffffffffff191660018401526015830191909152603582015260550190565b60408051601f198184030181529190528051602090910120949350505050565b600080600080600085875af190508062000d8f576040517ff4b3b1bc00000000000000000000000000000000000000000000000000000000815260040160405180910390fd5b604080516001600160a01b038416602482015260448082018490528251808303909101815260649091019091526020810180516001600160e01b03167fa9059cbb0000000000000000000000000000000000000000000000000000000017905262000d8f90849062001a5e565b6001600160a01b038116620019e257604051633649397d60e21b815260040160405180910390fd5b6040516001600160a01b038216907f04dba622d284ed0014ee4b9a6a68386be1a4c08a4913ae272de89199cc68616390600090a27f02016836a56b71f0d02689e69e326f4f4c1b9057164ef592671cf0d37c8040c05560007f9855384122b55936fbfb8ca5120e63c6537a1ac40caf6ae33502b3c5da8c87d155565b600080836001600160a01b03168360405162001a7b9190620023b2565b6000604051808303816000865af19150503d806000811462001aba576040519150601f19603f3d011682016040523d82523d6000602084013e62001abf565b606091505b5091509150600082801562001aef57508151158062001aef57508180602001905181019062001aef91906200227c565b905080158062001b0757506001600160a01b0385163b155b1562000c88576040517f045c4b0200000000000000000000000000000000000000000000000000000000815260040160405180910390fd5b61028f806200242c83390190565b6001600160a01b038116811462000ef757600080fd5b803562001b708162001b4d565b919050565b60008083601f84011262001b8857600080fd5b50813567ffffffffffffffff81111562001ba157600080fd5b60208301915083602082850101111562001bba57600080fd5b9250929050565b6000806000806000806080878903121562001bdb57600080fd5b86359550602087013562001bef8162001b4d565b9450604087013567ffffffffffffffff8082111562001c0d57600080fd5b62001c1b8a838b0162001b75565b9096509450606089013591508082111562001c3557600080fd5b5062001c4489828a0162001b75565b979a9699509497509295939492505050565b60008060008060008060008060a0898b03121562001c7357600080fd5b88359750602089013562001c878162001b4d565b9650604089013567ffffffffffffffff8082111562001ca557600080fd5b62001cb38c838d0162001b75565b909850965060608b013591508082111562001ccd57600080fd5b62001cdb8c838d0162001b75565b909650945060808b013591508082111562001cf557600080fd5b5062001d048b828c0162001b75565b999c989b5096995094979396929594505050565b6000806000806040858703121562001d2f57600080fd5b843567ffffffffffffffff8082111562001d4857600080fd5b62001d568883890162001b75565b9096509450602087013591508082111562001d7057600080fd5b5062001d7f8782880162001b75565b95989497509550505050565b60008083601f84011262001d9e57600080fd5b50813567ffffffffffffffff81111562001db757600080fd5b6020830191508360208260051b850101111562001bba57600080fd5b60008060008060006080868803121562001dec57600080fd5b85359450602086013562001e008162001b4d565b9350604086013562001e128162001b4d565b9250606086013567ffffffffffffffff81111562001e2f57600080fd5b62001e3d8882890162001d8b565b969995985093965092949392505050565b60008060006060848603121562001e6457600080fd5b83359250602084013562001e788162001b4d565b9150604084013562001e8a8162001b4d565b809150509250925092565b60008060006060848603121562001eab57600080fd5b833562001eb88162001b4d565b9250602084013562001eca8162001b4d565b929592945050506040919091013590565b60006020828403121562001eee57600080fd5b813562001efb8162001b4d565b9392505050565b60008060008060008060008060008060c08b8d03121562001f2257600080fd5b8a35995062001f3460208c0162001b63565b985060408b013567ffffffffffffffff8082111562001f5257600080fd5b62001f608e838f0162001b75565b909a50985060608d013591508082111562001f7a57600080fd5b62001f888e838f0162001b75565b909850965060808d013591508082111562001fa257600080fd5b62001fb08e838f0162001b75565b909650945060a08d013591508082111562001fca57600080fd5b5062001fd98d828e0162001d8b565b915080935050809150509295989b9194979a5092959850565b600080602083850312156200200657600080fd5b823567ffffffffffffffff8111156200201e57600080fd5b6200202c8582860162001b75565b90969095509350505050565b600080600080606085870312156200204f57600080fd5b84356200205c8162001b4d565b935060208501359250604085013567ffffffffffffffff8111156200208057600080fd5b62001d7f8782880162001b75565b60008060008060008060008060a0898b031215620020ab57600080fd5b883597506020890135620020bf8162001b4d565b9650604089013567ffffffffffffffff80821115620020dd57600080fd5b620020eb8c838d0162001b75565b909850965060608b01359150808211156200210557600080fd5b620021138c838d0162001b75565b909650945060808b01359150808211156200212d57600080fd5b5062001d048b828c0162001d8b565b60005b83811015620021595781810151838201526020016200213f565b83811115620014e55750506000910152565b60008151808452620021858160208601602086016200213c565b601f01601f19169290920160200192915050565b60208152600062001efb60208301846200216b565b81835281816020850137506000828201602090810191909152601f909101601f19169091010190565b6001600160a01b0386168152606060208201526000620021fc606083018688620021ae565b828103604084015262002211818587620021ae565b98975050505050505050565b6001600160a01b03881681526080602082015260006200224260808301888a620021ae565b828103604084015262002257818789620021ae565b905082810360608401526200226e818587620021ae565b9a9950505050505050505050565b6000602082840312156200228f57600080fd5b8151801515811462001efb57600080fd5b608081526000620022b660808301888a620021ae565b8281036020840152620022cb818789620021ae565b90508281036040840152620022e181866200216b565b915050826060830152979650505050505050565b634e487b7160e01b600052603260045260246000fd5b6040815260006200232060408301856200216b565b90506001600160a01b03831660208301529392505050565b60006000198214156200235b57634e487b7160e01b600052601160045260246000fd5b5060010190565b602081526000620017a5602083018486620021ae565b6000602082840312156200238b57600080fd5b815162001efb8162001b4d565b600060208284031215620023ab57600080fd5b5051919050565b60008251620023c68184602087016200213c565b9190910192915050565b80516020808301519190811015620023f2576000198160200360031b1b821691505b50919050565b600083516200240c8184602088016200213c565b835190830190620024228183602088016200213c565b0194935050505056fe608060405234801561001057600080fd5b5060405161028f38038061028f83398101604081905261002f91610191565b6000336001600160a01b031663112e335c6040518163ffffffff1660e01b8152600401602060405180830381600087803b15801561006c57600080fd5b505af1158015610080573d6000803e3d6000fd5b505050506040513d601f19601f820116820180604052508101906100a49190610250565b6001600160a01b0316836040516100bb9190610272565b600060405180830381855af49150503d80600081146100f6576040519150601f19603f3d011682016040523d82523d6000602084013e6100fb565b606091505b5050905080610111576040513d806000833e8082fd5b6001600160a01b038216610123573391505b816001600160a01b0316ff5b634e487b7160e01b600052604160045260246000fd5b60005b83811015610160578181015183820152602001610148565b8381111561016f576000848401525b50505050565b80516001600160a01b038116811461018c57600080fd5b919050565b600080604083850312156101a457600080fd5b82516001600160401b03808211156101bb57600080fd5b818501915085601f8301126101cf57600080fd5b8151818111156101e1576101e161012f565b604051601f8201601f19908116603f011681019083821181831017156102095761020961012f565b8160405282815288602084870101111561022257600080fd5b610233836020830160208801610145565b809650505050505061024760208401610175565b90509250929050565b60006020828403121561026257600080fd5b61026b82610175565b9392505050565b60008251610284818460208701610145565b919091019291505056fea26469706673582212205ab454d1831f4c20fdfe281fb697f4735880afb08942d917b95ee3821bd02ca264736f6c6343000809003360e06040523480156200001157600080fd5b506040516200155b3803806200155b833981016040819052620000349162000229565b81816001600160a01b0382166200005e5760405163e6c4247b60e01b815260040160405180910390fd5b80516001600160a01b0383166080521515806200007d576000620000ff565b6040516349ad89fb60e11b81526001600160a01b0384169063935b13f690620000ab908590600401620002f7565b60206040518083038186803b158015620000c457600080fd5b505afa158015620000d9573d6000803e3d6000fd5b505050506040513d601f19601f82011682018060405250810190620000ff91906200032c565b6001600160a01b031660a05280620001195760006200012f565b6200012f826200017360201b62000b661760201c565b60c05280801562000149575060a0516001600160a01b0316155b15620001685760405163010466f160e21b815260040160405180910390fd5b505050505062000379565b805160009082901580620001885750601f8151115b15620001a757604051638dc6ac0160e01b815260040160405180910390fd5b6000620001b48262000351565b915160ff169091179392505050565b80516001600160a01b0381168114620001db57600080fd5b919050565b634e487b7160e01b600052604160045260246000fd5b60005b8381101562000213578181015183820152602001620001f9565b8381111562000223576000848401525b50505050565b600080604083850312156200023d57600080fd5b6200024883620001c3565b60208401519092506001600160401b03808211156200026657600080fd5b818501915085601f8301126200027b57600080fd5b815181811115620002905762000290620001e0565b604051601f8201601f19908116603f01168101908382118183101715620002bb57620002bb620001e0565b81604052828152886020848701011115620002d557600080fd5b620002e8836020830160208801620001f6565b80955050505050509250929050565b602081526000825180602084015262000318816040850160208701620001f6565b601f01601f19169190910160400192915050565b6000602082840312156200033f57600080fd5b6200034a82620001c3565b9392505050565b8051602080830151919081101562000373576000198160200360031b1b821691505b50919050565b60805160a05160c051611159620004026000396000818161015d015261072101526000818160cb01528181610104015281816102db01528181610361015281816103f301528181610544015281816105a9015261065e01526000818160870152818161062f015281816106e1015281816107df01528181610a2a0152610ae601526111596000f3fe608060405234801561001057600080fd5b506004361061007d5760003560e01c8063996c6cc31161005b578063996c6cc314610102578063a97a8d1614610128578063b28f104b1461013b578063fee8cf4e1461014e57600080fd5b8063116191b6146100825780633e646208146100c657806388ccd044146100ed575b600080fd5b6100a97f000000000000000000000000000000000000000000000000000000000000000081565b6040516001600160a01b0390911681526020015b60405180910390f35b6100a97f000000000000000000000000000000000000000000000000000000000000000081565b6101006100fb366004610d7f565b610197565b005b7f00000000000000000000000000000000000000000000000000000000000000006100a9565b610100610136366004610e01565b610471565b610100610149366004610e84565b6107ac565b61018a604080518082019091527f000000000000000000000000000000000000000000000000000000000000000060ff81168252602082015290565b6040516100bd9190610f89565b6000336001600160a01b0316635cb732be6040518163ffffffff1660e01b8152600401602060405180830381600087803b1580156101d457600080fd5b505af11580156101e8573d6000803e3d6000fd5b505050506040513d601f19601f8201168201806040525081019061020c9190610fa3565b90506001600160a01b038116156102c3576001600160a01b03831661022f573392505b6040516370a0823160e01b81523060048201526102be9084906001600160a01b038416906370a08231906024015b60206040518083038186803b15801561027557600080fd5b505afa158015610289573d6000803e3d6000fd5b505050506040513d601f19601f820116820180604052508101906102ad9190610fc0565b6001600160a01b0384169190610bcb565b505050565b6040516370a0823160e01b81523060048201526000907f00000000000000000000000000000000000000000000000000000000000000006001600160a01b0316906370a082319060240160206040518083038186803b15801561032557600080fd5b505afa158015610339573d6000803e3d6000fd5b505050506040513d601f19601f8201168201806040525081019061035d9190610fc0565b90507f00000000000000000000000000000000000000000000000000000000000000006001600160a01b03166103a6576040516313ee304560e31b815260040160405180910390fd5b806103c4576040516369b95dc960e01b815260040160405180910390fd5b6040517f2e1a7d4d000000000000000000000000000000000000000000000000000000008152600481018290527f00000000000000000000000000000000000000000000000000000000000000006001600160a01b031690632e1a7d4d90602401600060405180830381600087803b15801561043f57600080fd5b505af1158015610453573d6000803e3d6000fd5b5061046b925050506001600160a01b03841682610c4b565b50505050565b6000336001600160a01b0316635cb732be6040518163ffffffff1660e01b8152600401602060405180830381600087803b1580156104ae57600080fd5b505af11580156104c2573d6000803e3d6000fd5b505050506040513d601f19601f820116820180604052508101906104e69190610fa3565b90506001600160a01b03811615610541576001600160a01b038616610509573395505b6040516370a0823160e01b815230600482015261053b9087906001600160a01b038416906370a082319060240161025d565b506107a5565b477f00000000000000000000000000000000000000000000000000000000000000006001600160a01b0316610589576040516313ee304560e31b815260040160405180910390fd5b806105a7576040516369b95dc960e01b815260040160405180910390fd5b7f00000000000000000000000000000000000000000000000000000000000000006001600160a01b031663d0e30db0826040518263ffffffff1660e01b81526004016000604051808303818588803b15801561060257600080fd5b505af1158015610616573d6000803e3d6000fd5b505060405163095ea7b360e01b81526001600160a01b037f000000000000000000000000000000000000000000000000000000000000000081166004830152602482018690527f000000000000000000000000000000000000000000000000000000000000000016935063095ea7b392506044019050602060405180830381600087803b1580156106a657600080fd5b505af11580156106ba573d6000803e3d6000fd5b505050506040513d601f19601f820116820180604052508101906106de9190610fd9565b507f00000000000000000000000000000000000000000000000000000000000000006001600160a01b03166326ef699d8787878761074e604080518082019091527f000000000000000000000000000000000000000000000000000000000000000060ff81168252602082015290565b876040518763ffffffff1660e01b815260040161077096959493929190611024565b600060405180830381600087803b15801561078a57600080fd5b505af115801561079e573d6000803e3d6000fd5b5050505050505b5050505050565b6040517f935b13f60000000000000000000000000000000000000000000000000000000081526000906001600160a01b037f0000000000000000000000000000000000000000000000000000000000000000169063935b13f6906108169086908690600401611073565b60206040518083038186803b15801561082e57600080fd5b505afa158015610842573d6000803e3d6000fd5b505050506040513d601f19601f820116820180604052508101906108669190610fa3565b90506000336001600160a01b0316635cb732be6040518163ffffffff1660e01b8152600401602060405180830381600087803b1580156108a557600080fd5b505af11580156108b9573d6000803e3d6000fd5b505050506040513d601f19601f820116820180604052508101906108dd9190610fa3565b90506001600160a01b03811615610939576001600160a01b038916610900573398505b6040516370a0823160e01b8152306004820152610932908a906001600160a01b038416906370a082319060240161025d565b5050610b5d565b6040516370a0823160e01b81523060048201526000906001600160a01b038416906370a082319060240160206040518083038186803b15801561097b57600080fd5b505afa15801561098f573d6000803e3d6000fd5b505050506040513d601f19601f820116820180604052508101906109b39190610fc0565b90506001600160a01b0383166109f5576040517f04119bc400000000000000000000000000000000000000000000000000000000815260040160405180910390fd5b80610a13576040516369b95dc960e01b815260040160405180910390fd5b60405163095ea7b360e01b81526001600160a01b037f0000000000000000000000000000000000000000000000000000000000000000811660048301526024820183905284169063095ea7b390604401602060405180830381600087803b158015610a7d57600080fd5b505af1158015610a91573d6000803e3d6000fd5b505050506040513d601f19601f82011682018060405250810190610ab59190610fd9565b506040517f26ef699d0000000000000000000000000000000000000000000000000000000081526001600160a01b037f000000000000000000000000000000000000000000000000000000000000000016906326ef699d90610b27908c908c908c908c908c908c908a9060040161108f565b600060405180830381600087803b158015610b4157600080fd5b505af1158015610b55573d6000803e3d6000fd5b505050505050505b50505050505050565b805160009082901580610b7a5750601f8151115b15610bb1576040517f8dc6ac0100000000000000000000000000000000000000000000000000000000815260040160405180910390fd5b6000610bbc826110e0565b915160ff169091179392505050565b604080516001600160a01b038416602482015260448082018490528251808303909101815260649091019091526020810180517bffffffffffffffffffffffffffffffffffffffffffffffffffffffff167fa9059cbb000000000000000000000000000000000000000000000000000000001790526102be908490610c90565b600080600080600085875af19050806102be576040517ff4b3b1bc00000000000000000000000000000000000000000000000000000000815260040160405180910390fd5b600080836001600160a01b031683604051610cab9190611107565b6000604051808303816000865af19150503d8060008114610ce8576040519150601f19603f3d011682016040523d82523d6000602084013e610ced565b606091505b50915091506000828015610d19575081511580610d19575081806020019051810190610d199190610fd9565b9050801580610d3057506001600160a01b0385163b155b156107a5576040517f045c4b0200000000000000000000000000000000000000000000000000000000815260040160405180910390fd5b6001600160a01b0381168114610d7c57600080fd5b50565b60008060408385031215610d9257600080fd5b8235610d9d81610d67565b91506020830135610dad81610d67565b809150509250929050565b60008083601f840112610dca57600080fd5b50813567ffffffffffffffff811115610de257600080fd5b602083019150836020828501011115610dfa57600080fd5b9250929050565b600080600080600060608688031215610e1957600080fd5b8535610e2481610d67565b9450602086013567ffffffffffffffff80821115610e4157600080fd5b610e4d89838a01610db8565b90965094506040880135915080821115610e6657600080fd5b50610e7388828901610db8565b969995985093965092949392505050565b60008060008060008060006080888a031215610e9f57600080fd5b8735610eaa81610d67565b9650602088013567ffffffffffffffff80821115610ec757600080fd5b610ed38b838c01610db8565b909850965060408a0135915080821115610eec57600080fd5b610ef88b838c01610db8565b909650945060608a0135915080821115610f1157600080fd5b50610f1e8a828b01610db8565b989b979a50959850939692959293505050565b60005b83811015610f4c578181015183820152602001610f34565b8381111561046b5750506000910152565b60008151808452610f75816020860160208601610f31565b601f01601f19169290920160200192915050565b602081526000610f9c6020830184610f5d565b9392505050565b600060208284031215610fb557600080fd5b8151610f9c81610d67565b600060208284031215610fd257600080fd5b5051919050565b600060208284031215610feb57600080fd5b81518015158114610f9c57600080fd5b81835281816020850137506000828201602090810191909152601f909101601f19169091010190565b60808152600061103860808301888a610ffb565b828103602084015261104b818789610ffb565b9050828103604084015261105f8186610f5d565b915050826060830152979650505050505050565b602081526000611087602083018486610ffb565b949350505050565b6080815260006110a360808301898b610ffb565b82810360208401526110b681888a610ffb565b905082810360408401526110cb818688610ffb565b91505082606083015298975050505050505050565b80516020808301519190811015611101576000198160200360031b1b821691505b50919050565b60008251611119818460208701610f31565b919091019291505056fea264697066735822122024f867597d43028cdb9cb3113610029df190bfa7dffc36614873457d660a415d64736f6c63430008090033",
  "linkReferences": {},
  "deployedLinkReferences": {}
}