{
  "abi": [
    {
      "type": "constructor",
      "inputs": [
        {
          "name": "name",
          "type": "string",
          "internalType": "string"
        }
      ],
      "stateMutability": "nonpayable"
    },
    {
      "type": "function",
      "name": "eip712Domain",
      "inputs": [],
      "outputs": [
        {
          "name": "fields",
          "type": "bytes1",
          "internalType": "bytes1"
        },
        {
          "name": "name",
          "type": "string",
          "internalType": "string"
        },
        {
          "name": "version",
          "type": "string",
          "internalType": "string"
        },
        {
          "name": "chainId",
          "type": "uint256",
          "internalType": "uint256"
        },
        {
          "name": "verifyingContract",
          "type": "address",
          "internalType": "address"
        },
        {
          "name": "salt",
          "type": "bytes32",
          "internalType": "bytes32"
        },
        {
          "name": "extensions",
          "type": "uint256[]",
          "internalType": "uint256[]"
        }
      ],
      "stateMutability": "view"
    },
    {
      "type": "function",
      "name": "execute",
      "inputs": [
        {
          "name": "request",
          "type": "tuple",
          "internalType": "struct ERC2771Forwarder.ForwardRequestData",
          "components": [
            {
              "name": "from",
              "type": "address",
              "internalType": "address"
            },
            {
              "name": "to",
              "type": "address",
              "internalType": "address"
            },
            {
              "name": "value",
              "type": "uint256",
              "internalType": "uint256"
            },
            {
              "name": "gas",
              "type": "uint256",
              "internalType": "uint256"
            },
            {
              "name": "deadline",
              "type": "uint48",
              "internalType": "uint48"
            },
            {
              "name": "data",
              "type": "bytes",
              "internalType": "bytes"
            },
            {
              "name": "signature",
              "type": "bytes",
              "internalType": "bytes"
            }
          ]
        }
      ],
      "outputs": [],
      "stateMutability": "payable"
    },
    {
      "type": "function",
      "name": "executeBatch",
      "inputs": [
        {
          "name": "requests",
          "type": "tuple[]",
          "internalType": "struct ERC2771Forwarder.ForwardRequestData[]",
          "components": [
            {
              "name": "from",
              "type": "address",
              "internalType": "address"
            },
            {
              "name": "to",
              "type": "address",
              "internalType": "address"
            },
            {
              "name": "value",
              "type": "uint256",
              "internalType": "uint256"
            },
            {
              "name": "gas",
              "type": "uint256",
              "internalType": "uint256"
            },
            {
              "name": "deadline",
              "type": "uint48",
              "internalType": "uint48"
            },
            {
              "name": "data",
              "type": "bytes",
              "internalType": "bytes"
            },
            {
              "name": "signature",
              "type": "bytes",
              "internalType": "bytes"
            }
          ]
        },
        {
          "name": "refundReceiver",
          "type": "address",
          "internalType": "address payable"
        }
      ],
      "outputs": [],
      "stateMutability": "payable"
    },
    {
      "type": "function",
      "name": "nonces",
      "inputs": [
        {
          "name": "owner",
          "type": "address",
          "internalType": "address"
        }
      ],
      "outputs": [
        {
          "name": "",
          "type": "uint256",
          "internalType": "uint256"
        }
      ],
      "stateMutability": "view"
    },
    {
      "type": "function",
      "name": "verify",
      "inputs": [
        {
          "name": "request",
          "type": "tuple",
          "internalType": "struct ERC2771Forwarder.ForwardRequestData",
          "components": [
            {
              "name": "from",
              "type": "address",
              "internalType": "address"
            },
            {
              "name": "to",
              "type": "address",
              "internalType": "address"
            },
            {
              "name": "value",
              "type": "uint256",
              "internalType": "uint256"
            },
            {
              "name": "gas",
              "type": "uint256",
              "internalType": "uint256"
            },
            {
              "name": "deadline",
              "type": "uint48",
              "internalType": "uint48"
            },
            {
              "name": "data",
              "type": "bytes",
              "internalType": "bytes"
            },
            {
              "name": "signature",
              "type": "bytes",
              "internalType": "bytes"
            }
          ]
        }
      ],
      "outputs": [
        {
          "name": "",
          "type": "bool",
          "internalType": "bool"
        }
      ],
      "stateMutability": "view"
    },
    {
      "type": "event",
      "name": "EIP712DomainChanged",
      "inputs": [],
      "anonymous": false
    },
    {
      "type": "event",
      "name": "ExecutedForwardRequest",
      "inputs": [
        {
          "name": "signer",
          "type": "address",
          "indexed": true,
          "internalType": "address"
        },
        {
          "name": "nonce",
          "type": "uint256",
          "indexed": false,
          "internalType": "uint256"
        },
        {
          "name": "success",
          "type": "bool",
          "indexed": false,
          "internalType": "bool"
        }
      ],
      "anonymous": false
    },
    {
      "type": "error",
      "name": "AddressInsufficientBalance",
      "inputs": [
        {
          "name": "account",
          "type": "address",
          "internalType": "address"
        }
      ]
    },
    {
      "type": "error",
      "name": "ERC2771ForwarderExpiredRequest",
      "inputs": [
        {
          "name": "deadline",
          "type": "uint48",
          "internalType": "uint48"
        }
      ]
    },
    {
      "type": "error",
      "name": "ERC2771ForwarderInvalidSigner",
      "inputs": [
        {
          "name": "signer",
          "type": "address",
          "internalType": "address"
        },
        {
          "name": "from",
          "type": "address",
          "internalType": "address"
        }
      ]
    },
    {
      "type": "error",
      "name": "ERC2771ForwarderMismatchedValue",
      "inputs": [
        {
          "name": "requestedValue",
          "type": "uint256",
          "internalType": "uint256"
        },
        {
          "name": "msgValue",
          "type": "uint256",
          "internalType": "uint256"
        }
      ]
    },
    {
      "type": "error",
      "name": "ERC2771UntrustfulTarget",
      "inputs": [
        {
          "name": "target",
          "type": "address",
          "internalType": "address"
        },
        {
          "name": "forwarder",
          "type": "address",
          "internalType": "address"
        }
      ]
    },
    {
      "type": "error",
      "name": "FailedInnerCall",
      "inputs": []
    },
    {
      "type": "error",
      "name": "InvalidAccountNonce",
      "inputs": [
        {
          "name": "account",
          "type": "address",
          "internalType": "address"
        },
        {
          "name": "currentNonce",
          "type": "uint256",
          "internalType": "uint256"
        }
      ]
    },
    {
      "type": "error",
      "name": "InvalidShortString",
      "inputs": []
    },
    {
      "type": "error",
      "name": "StringTooLong",
      "inputs": [
        {
          "name": "str",
          "type": "string",
          "internalType": "string"
        }
      ]
    }
  ],
  "bytecode": {
    "object": "0x6101606040523480156200001257600080fd5b5060405162001405380380620014058339810160408190526200003591620001cc565b6040805180820190915260018152603160f81b602082015281906200005c8260006200010b565b610120526200006d8160016200010b565b61014052815160208084019190912060e052815190820120610100524660a052620000fb60e05161010051604080517f8b73c3c69bb8fe3d512ecc4cf759cc79239f7b179b0ffacaa9a75d522b39400f60208201529081019290925260608201524660808201523060a082015260009060c00160405160208183030381529060405280519060200120905090565b60805250503060c052506200043b565b60006020835110156200012b57620001238362000144565b90506200013e565b8162000138848262000315565b5060ff90505b92915050565b600080829050601f815111156200017b578260405163305a27a960e01b8152600401620001729190620003e1565b60405180910390fd5b8051620001888262000416565b179392505050565b634e487b7160e01b600052604160045260246000fd5b60005b83811015620001c3578181015183820152602001620001a9565b50506000910152565b600060208284031215620001df57600080fd5b81516001600160401b0380821115620001f757600080fd5b818401915084601f8301126200020c57600080fd5b81518181111562000221576200022162000190565b604051601f8201601f19908116603f011681019083821181831017156200024c576200024c62000190565b816040528281528760208487010111156200026657600080fd5b62000279836020830160208801620001a6565b979650505050505050565b600181811c908216806200029957607f821691505b602082108103620002ba57634e487b7160e01b600052602260045260246000fd5b50919050565b601f82111562000310576000816000526020600020601f850160051c81016020861015620002eb5750805b601f850160051c820191505b818110156200030c57828155600101620002f7565b5050505b505050565b81516001600160401b0381111562000331576200033162000190565b620003498162000342845462000284565b84620002c0565b602080601f831160018114620003815760008415620003685750858301515b600019600386901b1c1916600185901b1785556200030c565b600085815260208120601f198616915b82811015620003b25788860151825594840194600190910190840162000391565b5085821015620003d15787850151600019600388901b60f8161c191681555b5050505050600190811b01905550565b602081526000825180602084015262000402816040850160208701620001a6565b601f01601f19169190910160400192915050565b80516020808301519190811015620002ba5760001960209190910360031b1b16919050565b60805160a05160c05160e051610100516101205161014051610f6f6200049660003960006103b00152600061037e01526000610aa301526000610a7b015260006109d601526000610a0001526000610a2a0152610f6f6000f3fe60806040526004361061004a5760003560e01c806319d8d38c1461004f5780637ecebe001461008457806384b0196e146100c8578063ccf96b4a146100f0578063df905caf14610105575b600080fd5b34801561005b57600080fd5b5061006f61006a366004610beb565b610118565b60405190151581526020015b60405180910390f35b34801561009057600080fd5b506100ba61009f366004610c42565b6001600160a01b031660009081526002602052604090205490565b60405190815260200161007b565b3480156100d457600080fd5b506100dd61014a565b60405161007b9796959493929190610ca5565b6101036100fe366004610d3e565b610190565b005b610103610113366004610beb565b610297565b600080600080610127856102f2565b509250925092508280156101385750815b80156101415750805b95945050505050565b60006060806000806000606061015e610377565b6101666103a9565b60408051600080825260208201909252600f60f81b9b939a50919850469750309650945092509050565b6001600160a01b03811615600080805b85811015610250578686828181106101ba576101ba610dc4565b90506020028101906101cc9190610dda565b6101da906040013584610dfa565b9250600061020b8888848181106101f3576101f3610dc4565b90506020028101906102059190610dda565b866103d6565b9050806102475787878381811061022457610224610dc4565b90506020028101906102369190610dda565b610244906040013584610dfa565b92505b506001016101a0565b5034821461027f576040516370647f7960e01b8152600481018390523460248201526044015b60405180910390fd5b801561028f5761028f84826105b9565b505050505050565b806040013534146102c757604080516370647f7960e01b8152908201356004820152346024820152604401610276565b6102d28160016103d6565b6102ef57604051630a12f52160e11b815260040160405180910390fd5b50565b60008060008060008061030487610655565b909250905061032161031c6040890160208a01610c42565b6107ca565b4261033260a08a0160808b01610e1b565b65ffffffffffff161015838015610366575061035160208a018a610c42565b6001600160a01b0316836001600160a01b0316145b919750955093509150509193509193565b60606103a47f00000000000000000000000000000000000000000000000000000000000000006000610847565b905090565b60606103a47f00000000000000000000000000000000000000000000000000000000000000006001610847565b60008060008060006103e7876102f2565b935093509350935085156104ad57836104355761040a6040880160208901610c42565b60405163d2650cd160e01b81526001600160a01b039091166004820152306024820152604401610276565b8261046e5761044a60a0880160808901610e1b565b604051634a777ac560e11b815265ffffffffffff9091166004820152602401610276565b816104ad57806104816020890189610c42565b604051636422d02b60e11b81526001600160a01b03928316600482015291166024820152604401610276565b8380156104b75750815b80156104c05750825b156105af576001600160a01b03811660009081526002602052604081208054600181019091559050606088013560006104ff60408b0160208c01610c42565b905060408a0135600061051560a08d018d610e43565b61052260208f018f610c42565b60405160200161053493929190610e91565b6040516020818303038152906040529050600080600083516020850186888af19a505a9050610563818e6108f4565b604080518781528c151560208201526001600160a01b038916917f842fb24a83793558587a3dab2be7674da4a51d09c5542d6dd354e5d0ea70813c910160405180910390a25050505050505b5050505092915050565b804710156105dc5760405163cd78605960e01b8152306004820152602401610276565b6000826001600160a01b03168260405160006040518083038185875af1925050503d8060008114610629576040519150601f19603f3d011682016040523d82523d6000602084013e61062e565b606091505b505090508061065057604051630a12f52160e11b815260040160405180910390fd5b505050565b60008080806107a461066a60c0870187610e43565b8080601f01602080910402602001604051908101604052809392919081815260200183838082843760009201919091525061079e92507f7f96328b83274ebc7c1cf4f7a3abda602b51a78b7fa1d86a2ce353d75e587cac91506106d2905060208a018a610c42565b6106e260408b0160208c01610c42565b60408b013560608c01356106fc61009f60208f018f610c42565b8d608001602081019061070f9190610e1b565b8e8060a0019061071f9190610e43565b60405161072d929190610eb7565b6040805191829003822060208301999099526001600160a01b0397881690820152959094166060860152608085019290925260a084015260c083015265ffffffffffff1660e08201526101008101919091526101200160405160208183030381529060405280519060200120610910565b9061093d565b50909250905060008160038111156107be576107be610ec7565b14959194509092505050565b604051306024820152600090819060440160408051601f19818403018152919052602080820180516001600160e01b031663572b6c0560e01b17815282519293506000928392839290918391895afa92503d91506000519050828015610831575060208210155b801561083d5750600081115b9695505050505050565b606060ff83146108615761085a8361098a565b90506108ee565b81805461086d90610edd565b80601f016020809104026020016040519081016040528092919081815260200182805461089990610edd565b80156108e65780601f106108bb576101008083540402835291602001916108e6565b820191906000526020600020905b8154815290600101906020018083116108c957829003601f168201915b505050505090505b92915050565b610903603f6060830135610f17565b82101561090c57fe5b5050565b60006108ee61091d6109c9565b8360405161190160f01b8152600281019290925260228201526042902090565b600080600083516041036109775760208401516040850151606086015160001a61096988828585610af4565b955095509550505050610983565b50508151600091506002905b9250925092565b6060600061099783610bc3565b604080516020808252818301909252919250600091906020820181803683375050509182525060208101929092525090565b6000306001600160a01b037f000000000000000000000000000000000000000000000000000000000000000016148015610a2257507f000000000000000000000000000000000000000000000000000000000000000046145b15610a4c57507f000000000000000000000000000000000000000000000000000000000000000090565b6103a4604080517f8b73c3c69bb8fe3d512ecc4cf759cc79239f7b179b0ffacaa9a75d522b39400f60208201527f0000000000000000000000000000000000000000000000000000000000000000918101919091527f000000000000000000000000000000000000000000000000000000000000000060608201524660808201523060a082015260009060c00160405160208183030381529060405280519060200120905090565b600080807f7fffffffffffffffffffffffffffffff5d576e7357a4501ddfe92f46681b20a0841115610b2f5750600091506003905082610bb9565b604080516000808252602082018084528a905260ff891692820192909252606081018790526080810186905260019060a0016020604051602081039080840390855afa158015610b83573d6000803e3d6000fd5b5050604051601f1901519150506001600160a01b038116610baf57506000925060019150829050610bb9565b9250600091508190505b9450945094915050565b600060ff8216601f8111156108ee57604051632cd44ac360e21b815260040160405180910390fd5b600060208284031215610bfd57600080fd5b813567ffffffffffffffff811115610c1457600080fd5b820160e08185031215610c2657600080fd5b9392505050565b6001600160a01b03811681146102ef57600080fd5b600060208284031215610c5457600080fd5b8135610c2681610c2d565b6000815180845260005b81811015610c8557602081850181015186830182015201610c69565b506000602082860101526020601f19601f83011685010191505092915050565b60ff60f81b881681526000602060e06020840152610cc660e084018a610c5f565b8381036040850152610cd8818a610c5f565b606085018990526001600160a01b038816608086015260a0850187905284810360c08601528551808252602080880193509091019060005b81811015610d2c57835183529284019291840191600101610d10565b50909c9b505050505050505050505050565b600080600060408486031215610d5357600080fd5b833567ffffffffffffffff80821115610d6b57600080fd5b818601915086601f830112610d7f57600080fd5b813581811115610d8e57600080fd5b8760208260051b8501011115610da357600080fd5b60209283019550935050840135610db981610c2d565b809150509250925092565b634e487b7160e01b600052603260045260246000fd5b6000823560de19833603018112610df057600080fd5b9190910192915050565b808201808211156108ee57634e487b7160e01b600052601160045260246000fd5b600060208284031215610e2d57600080fd5b813565ffffffffffff81168114610c2657600080fd5b6000808335601e19843603018112610e5a57600080fd5b83018035915067ffffffffffffffff821115610e7557600080fd5b602001915036819003821315610e8a57600080fd5b9250929050565b8284823760609190911b6bffffffffffffffffffffffff19169101908152601401919050565b8183823760009101908152919050565b634e487b7160e01b600052602160045260246000fd5b600181811c90821680610ef157607f821691505b602082108103610f1157634e487b7160e01b600052602260045260246000fd5b50919050565b600082610f3457634e487b7160e01b600052601260045260246000fd5b50049056fea2646970667358221220b01c6fbe440e863b1671bc14320e8aafc5f3ebf472a9441583279691cf9aeb9964736f6c63430008160033",
    "linkReferences": {}
  },
  "methodIdentifiers": {
    "eip712Domain()": "84b0196e",
    "execute((address,address,uint256,uint256,uint48,bytes,bytes))": "df905caf",
    "executeBatch((address,address,uint256,uint256,uint48,bytes,bytes)[],address)": "ccf96b4a",
    "nonces(address)": "7ecebe00",
    "verify((address,address,uint256,uint256,uint48,bytes,bytes))": "19d8d38c"
  },
  "id": 28
}