{
  "abi": [
    {
      "type": "constructor",
      "inputs": [
        {
          "name": "name",
          "type": "string",
          "internalType": "string"
        },
        {
          "name": "symbol",
          "type": "string",
          "internalType": "string"
        },
        {
          "name": "_asset",
          "type": "address",
          "internalType": "contract IERC20"
        },
        {
          "name": "forwarder",
          "type": "address",
          "internalType": "contract ERC2771Forwarder"
        }
      ],
      "stateMutability": "nonpayable"
    },
    {
      "type": "function",
      "name": "allowance",
      "inputs": [
        {
          "name": "owner",
          "type": "address",
          "internalType": "address"
        },
        {
          "name": "spender",
          "type": "address",
          "internalType": "address"
        }
      ],
      "outputs": [
        {
          "name": "",
          "type": "uint256",
          "internalType": "uint256"
        }
      ],
      "stateMutability": "view"
    },
    {
      "type": "function",
      "name": "approve",
      "inputs": [
        {
          "name": "spender",
          "type": "address",
          "internalType": "address"
        },
        {
          "name": "value",
          "type": "uint256",
          "internalType": "uint256"
        }
      ],
      "outputs": [
        {
          "name": "",
          "type": "bool",
          "internalType": "bool"
        }
      ],
      "stateMutability": "nonpayable"
    },
    {
      "type": "function",
      "name": "asset",
      "inputs": [],
      "outputs": [
        {
          "name": "",
          "type": "address",
          "internalType": "address"
        }
      ],
      "stateMutability": "view"
    },
    {
      "type": "function",
      "name": "balanceOf",
      "inputs": [
        {
          "name": "account",
          "type": "address",
          "internalType": "address"
        }
      ],
      "outputs": [
        {
          "name": "",
          "type": "uint256",
          "internalType": "uint256"
        }
      ],
      "stateMutability": "view"
    },
    {
      "type": "function",
      "name": "convertToAssets",
      "inputs": [
        {
          "name": "shares",
          "type": "uint256",
          "internalType": "uint256"
        }
      ],
      "outputs": [
        {
          "name": "",
          "type": "uint256",
          "internalType": "uint256"
        }
      ],
      "stateMutability": "view"
    },
    {
      "type": "function",
      "name": "convertToShares",
      "inputs": [
        {
          "name": "assets",
          "type": "uint256",
          "internalType": "uint256"
        }
      ],
      "outputs": [
        {
          "name": "",
          "type": "uint256",
          "internalType": "uint256"
        }
      ],
      "stateMutability": "view"
    },
    {
      "type": "function",
      "name": "decimals",
      "inputs": [],
      "outputs": [
        {
          "name": "",
          "type": "uint8",
          "internalType": "uint8"
        }
      ],
      "stateMutability": "view"
    },
    {
      "type": "function",
      "name": "deposit",
      "inputs": [
        {
          "name": "assets",
          "type": "uint256",
          "internalType": "uint256"
        },
        {
          "name": "receiver",
          "type": "address",
          "internalType": "address"
        }
      ],
      "outputs": [
        {
          "name": "",
          "type": "uint256",
          "internalType": "uint256"
        }
      ],
      "stateMutability": "nonpayable"
    },
    {
      "type": "function",
      "name": "depositWithPermit",
      "inputs": [
        {
          "name": "sender",
          "type": "address",
          "internalType": "address"
        },
        {
          "name": "receiver",
          "type": "address",
          "internalType": "address"
        },
        {
          "name": "assets",
          "type": "uint256",
          "internalType": "uint256"
        },
        {
          "name": "deadline",
          "type": "uint256",
          "internalType": "uint256"
        },
        {
          "name": "v",
          "type": "uint8",
          "internalType": "uint8"
        },
        {
          "name": "r",
          "type": "bytes32",
          "internalType": "bytes32"
        },
        {
          "name": "s",
          "type": "bytes32",
          "internalType": "bytes32"
        }
      ],
      "outputs": [
        {
          "name": "",
          "type": "uint256",
          "internalType": "uint256"
        }
      ],
      "stateMutability": "nonpayable"
    },
    {
      "type": "function",
      "name": "isTrustedForwarder",
      "inputs": [
        {
          "name": "forwarder",
          "type": "address",
          "internalType": "address"
        }
      ],
      "outputs": [
        {
          "name": "",
          "type": "bool",
          "internalType": "bool"
        }
      ],
      "stateMutability": "view"
    },
    {
      "type": "function",
      "name": "maxDeposit",
      "inputs": [
        {
          "name": "",
          "type": "address",
          "internalType": "address"
        }
      ],
      "outputs": [
        {
          "name": "",
          "type": "uint256",
          "internalType": "uint256"
        }
      ],
      "stateMutability": "view"
    },
    {
      "type": "function",
      "name": "maxMint",
      "inputs": [
        {
          "name": "",
          "type": "address",
          "internalType": "address"
        }
      ],
      "outputs": [
        {
          "name": "",
          "type": "uint256",
          "internalType": "uint256"
        }
      ],
      "stateMutability": "view"
    },
    {
      "type": "function",
      "name": "maxRedeem",
      "inputs": [
        {
          "name": "owner",
          "type": "address",
          "internalType": "address"
        }
      ],
      "outputs": [
        {
          "name": "",
          "type": "uint256",
          "internalType": "uint256"
        }
      ],
      "stateMutability": "view"
    },
    {
      "type": "function",
      "name": "maxWithdraw",
      "inputs": [
        {
          "name": "owner",
          "type": "address",
          "internalType": "address"
        }
      ],
      "outputs": [
        {
          "name": "",
          "type": "uint256",
          "internalType": "uint256"
        }
      ],
      "stateMutability": "view"
    },
    {
      "type": "function",
      "name": "mint",
      "inputs": [
        {
          "name": "shares",
          "type": "uint256",
          "internalType": "uint256"
        },
        {
          "name": "receiver",
          "type": "address",
          "internalType": "address"
        }
      ],
      "outputs": [
        {
          "name": "",
          "type": "uint256",
          "internalType": "uint256"
        }
      ],
      "stateMutability": "nonpayable"
    },
    {
      "type": "function",
      "name": "name",
      "inputs": [],
      "outputs": [
        {
          "name": "",
          "type": "string",
          "internalType": "string"
        }
      ],
      "stateMutability": "view"
    },
    {
      "type": "function",
      "name": "previewDeposit",
      "inputs": [
        {
          "name": "assets",
          "type": "uint256",
          "internalType": "uint256"
        }
      ],
      "outputs": [
        {
          "name": "",
          "type": "uint256",
          "internalType": "uint256"
        }
      ],
      "stateMutability": "view"
    },
    {
      "type": "function",
      "name": "previewMint",
      "inputs": [
        {
          "name": "shares",
          "type": "uint256",
          "internalType": "uint256"
        }
      ],
      "outputs": [
        {
          "name": "",
          "type": "uint256",
          "internalType": "uint256"
        }
      ],
      "stateMutability": "view"
    },
    {
      "type": "function",
      "name": "previewRedeem",
      "inputs": [
        {
          "name": "shares",
          "type": "uint256",
          "internalType": "uint256"
        }
      ],
      "outputs": [
        {
          "name": "",
          "type": "uint256",
          "internalType": "uint256"
        }
      ],
      "stateMutability": "view"
    },
    {
      "type": "function",
      "name": "previewWithdraw",
      "inputs": [
        {
          "name": "assets",
          "type": "uint256",
          "internalType": "uint256"
        }
      ],
      "outputs": [
        {
          "name": "",
          "type": "uint256",
          "internalType": "uint256"
        }
      ],
      "stateMutability": "view"
    },
    {
      "type": "function",
      "name": "redeem",
      "inputs": [
        {
          "name": "shares",
          "type": "uint256",
          "internalType": "uint256"
        },
        {
          "name": "receiver",
          "type": "address",
          "internalType": "address"
        },
        {
          "name": "owner",
          "type": "address",
          "internalType": "address"
        }
      ],
      "outputs": [
        {
          "name": "",
          "type": "uint256",
          "internalType": "uint256"
        }
      ],
      "stateMutability": "nonpayable"
    },
    {
      "type": "function",
      "name": "symbol",
      "inputs": [],
      "outputs": [
        {
          "name": "",
          "type": "string",
          "internalType": "string"
        }
      ],
      "stateMutability": "view"
    },
    {
      "type": "function",
      "name": "totalAssets",
      "inputs": [],
      "outputs": [
        {
          "name": "",
          "type": "uint256",
          "internalType": "uint256"
        }
      ],
      "stateMutability": "view"
    },
    {
      "type": "function",
      "name": "totalSupply",
      "inputs": [],
      "outputs": [
        {
          "name": "",
          "type": "uint256",
          "internalType": "uint256"
        }
      ],
      "stateMutability": "view"
    },
    {
      "type": "function",
      "name": "transfer",
      "inputs": [
        {
          "name": "to",
          "type": "address",
          "internalType": "address"
        },
        {
          "name": "value",
          "type": "uint256",
          "internalType": "uint256"
        }
      ],
      "outputs": [
        {
          "name": "",
          "type": "bool",
          "internalType": "bool"
        }
      ],
      "stateMutability": "nonpayable"
    },
    {
      "type": "function",
      "name": "transferFrom",
      "inputs": [
        {
          "name": "from",
          "type": "address",
          "internalType": "address"
        },
        {
          "name": "to",
          "type": "address",
          "internalType": "address"
        },
        {
          "name": "value",
          "type": "uint256",
          "internalType": "uint256"
        }
      ],
      "outputs": [
        {
          "name": "",
          "type": "bool",
          "internalType": "bool"
        }
      ],
      "stateMutability": "nonpayable"
    },
    {
      "type": "function",
      "name": "trustedForwarder",
      "inputs": [],
      "outputs": [
        {
          "name": "",
          "type": "address",
          "internalType": "address"
        }
      ],
      "stateMutability": "view"
    },
    {
      "type": "function",
      "name": "withdraw",
      "inputs": [
        {
          "name": "assets",
          "type": "uint256",
          "internalType": "uint256"
        },
        {
          "name": "receiver",
          "type": "address",
          "internalType": "address"
        },
        {
          "name": "owner",
          "type": "address",
          "internalType": "address"
        }
      ],
      "outputs": [
        {
          "name": "",
          "type": "uint256",
          "internalType": "uint256"
        }
      ],
      "stateMutability": "nonpayable"
    },
    {
      "type": "event",
      "name": "Approval",
      "inputs": [
        {
          "name": "owner",
          "type": "address",
          "indexed": true,
          "internalType": "address"
        },
        {
          "name": "spender",
          "type": "address",
          "indexed": true,
          "internalType": "address"
        },
        {
          "name": "value",
          "type": "uint256",
          "indexed": false,
          "internalType": "uint256"
        }
      ],
      "anonymous": false
    },
    {
      "type": "event",
      "name": "Deposit",
      "inputs": [
        {
          "name": "sender",
          "type": "address",
          "indexed": true,
          "internalType": "address"
        },
        {
          "name": "owner",
          "type": "address",
          "indexed": true,
          "internalType": "address"
        },
        {
          "name": "assets",
          "type": "uint256",
          "indexed": false,
          "internalType": "uint256"
        },
        {
          "name": "shares",
          "type": "uint256",
          "indexed": false,
          "internalType": "uint256"
        }
      ],
      "anonymous": false
    },
    {
      "type": "event",
      "name": "Transfer",
      "inputs": [
        {
          "name": "from",
          "type": "address",
          "indexed": true,
          "internalType": "address"
        },
        {
          "name": "to",
          "type": "address",
          "indexed": true,
          "internalType": "address"
        },
        {
          "name": "value",
          "type": "uint256",
          "indexed": false,
          "internalType": "uint256"
        }
      ],
      "anonymous": false
    },
    {
      "type": "event",
      "name": "Withdraw",
      "inputs": [
        {
          "name": "sender",
          "type": "address",
          "indexed": true,
          "internalType": "address"
        },
        {
          "name": "receiver",
          "type": "address",
          "indexed": true,
          "internalType": "address"
        },
        {
          "name": "owner",
          "type": "address",
          "indexed": true,
          "internalType": "address"
        },
        {
          "name": "assets",
          "type": "uint256",
          "indexed": false,
          "internalType": "uint256"
        },
        {
          "name": "shares",
          "type": "uint256",
          "indexed": false,
          "internalType": "uint256"
        }
      ],
      "anonymous": false
    },
    {
      "type": "error",
      "name": "AddressEmptyCode",
      "inputs": [
        {
          "name": "target",
          "type": "address",
          "internalType": "address"
        }
      ]
    },
    {
      "type": "error",
      "name": "AddressInsufficientBalance",
      "inputs": [
        {
          "name": "account",
          "type": "address",
          "internalType": "address"
        }
      ]
    },
    {
      "type": "error",
      "name": "ERC20InsufficientAllowance",
      "inputs": [
        {
          "name": "spender",
          "type": "address",
          "internalType": "address"
        },
        {
          "name": "allowance",
          "type": "uint256",
          "internalType": "uint256"
        },
        {
          "name": "needed",
          "type": "uint256",
          "internalType": "uint256"
        }
      ]
    },
    {
      "type": "error",
      "name": "ERC20InsufficientBalance",
      "inputs": [
        {
          "name": "sender",
          "type": "address",
          "internalType": "address"
        },
        {
          "name": "balance",
          "type": "uint256",
          "internalType": "uint256"
        },
        {
          "name": "needed",
          "type": "uint256",
          "internalType": "uint256"
        }
      ]
    },
    {
      "type": "error",
      "name": "ERC20InvalidApprover",
      "inputs": [
        {
          "name": "approver",
          "type": "address",
          "internalType": "address"
        }
      ]
    },
    {
      "type": "error",
      "name": "ERC20InvalidReceiver",
      "inputs": [
        {
          "name": "receiver",
          "type": "address",
          "internalType": "address"
        }
      ]
    },
    {
      "type": "error",
      "name": "ERC20InvalidSender",
      "inputs": [
        {
          "name": "sender",
          "type": "address",
          "internalType": "address"
        }
      ]
    },
    {
      "type": "error",
      "name": "ERC20InvalidSpender",
      "inputs": [
        {
          "name": "spender",
          "type": "address",
          "internalType": "address"
        }
      ]
    },
    {
      "type": "error",
      "name": "ERC4626ExceededMaxDeposit",
      "inputs": [
        {
          "name": "receiver",
          "type": "address",
          "internalType": "address"
        },
        {
          "name": "assets",
          "type": "uint256",
          "internalType": "uint256"
        },
        {
          "name": "max",
          "type": "uint256",
          "internalType": "uint256"
        }
      ]
    },
    {
      "type": "error",
      "name": "ERC4626ExceededMaxMint",
      "inputs": [
        {
          "name": "receiver",
          "type": "address",
          "internalType": "address"
        },
        {
          "name": "shares",
          "type": "uint256",
          "internalType": "uint256"
        },
        {
          "name": "max",
          "type": "uint256",
          "internalType": "uint256"
        }
      ]
    },
    {
      "type": "error",
      "name": "ERC4626ExceededMaxRedeem",
      "inputs": [
        {
          "name": "owner",
          "type": "address",
          "internalType": "address"
        },
        {
          "name": "shares",
          "type": "uint256",
          "internalType": "uint256"
        },
        {
          "name": "max",
          "type": "uint256",
          "internalType": "uint256"
        }
      ]
    },
    {
      "type": "error",
      "name": "ERC4626ExceededMaxWithdraw",
      "inputs": [
        {
          "name": "owner",
          "type": "address",
          "internalType": "address"
        },
        {
          "name": "assets",
          "type": "uint256",
          "internalType": "uint256"
        },
        {
          "name": "max",
          "type": "uint256",
          "internalType": "uint256"
        }
      ]
    },
    {
      "type": "error",
      "name": "FailedInnerCall",
      "inputs": []
    },
    {
      "type": "error",
      "name": "MathOverflowedMulDiv",
      "inputs": []
    },
    {
      "type": "error",
      "name": "SafeERC20FailedOperation",
      "inputs": [
        {
          "name": "token",
          "type": "address",
          "internalType": "address"
        }
      ]
    }
  ],
  "bytecode": {
    "object": "0x60e06040523480156200001157600080fd5b5060405162001ace38038062001ace833981016040819052620000349162000270565b80828585600362000046838262000395565b50600462000055828262000395565b5050506000806200006c83620000a560201b60201c565b91509150816200007e57601262000080565b805b60ff1660a05250506001600160a01b039081166080521660c052506200049992505050565b60408051600481526024810182526020810180516001600160e01b031663313ce56760e01b17905290516000918291829182916001600160a01b03871691620000ee9162000461565b600060405180830381855afa9150503d80600081146200012b576040519150601f19603f3d011682016040523d82523d6000602084013e62000130565b606091505b50915091508180156200014557506020815110155b156200017d576000818060200190518101906200016391906200047f565b905060ff81116200017b576001969095509350505050565b505b5060009485945092505050565b634e487b7160e01b600052604160045260246000fd5b60005b83811015620001bd578181015183820152602001620001a3565b50506000910152565b600082601f830112620001d857600080fd5b81516001600160401b0380821115620001f557620001f56200018a565b604051601f8301601f19908116603f011681019082821181831017156200022057620002206200018a565b816040528381528660208588010111156200023a57600080fd5b6200024d846020830160208901620001a0565b9695505050505050565b6001600160a01b03811681146200026d57600080fd5b50565b600080600080608085870312156200028757600080fd5b84516001600160401b03808211156200029f57600080fd5b620002ad88838901620001c6565b95506020870151915080821115620002c457600080fd5b50620002d387828801620001c6565b9350506040850151620002e68162000257565b6060860151909250620002f98162000257565b939692955090935050565b600181811c908216806200031957607f821691505b6020821081036200033a57634e487b7160e01b600052602260045260246000fd5b50919050565b601f82111562000390576000816000526020600020601f850160051c810160208610156200036b5750805b601f850160051c820191505b818110156200038c5782815560010162000377565b5050505b505050565b81516001600160401b03811115620003b157620003b16200018a565b620003c981620003c2845462000304565b8462000340565b602080601f831160018114620004015760008415620003e85750858301515b600019600386901b1c1916600185901b1785556200038c565b600085815260208120601f198616915b82811015620004325788860151825594840194600190910190840162000411565b5085821015620004515787850151600019600388901b60f8161c191681555b5050505050600190811b01905550565b6000825162000475818460208701620001a0565b9190910192915050565b6000602082840312156200049257600080fd5b5051919050565b60805160a05160c0516115e2620004ec600039600081816102d6015281816103440152610ba3015260006105f00152600081816102790152818161046c01528181610a030152610ac301526115e26000f3fe608060405234801561001057600080fd5b50600436106101c45760003560e01c80637da0a877116100f9578063ba08765211610097578063ce96cb7711610071578063ce96cb77146103f5578063d905777e14610408578063dd62ed3e1461041b578063ef8b30f7146103e257600080fd5b8063ba087652146103cf578063c63d75b6146102b1578063c6e6f592146103e257600080fd5b806395d89b41116100d357806395d89b411461038e578063a9059cbb14610396578063b3d7f6b9146103a9578063b460af94146103bc57600080fd5b80637da0a877146103425780638ef597391461036857806394bf804d1461037b57600080fd5b8063313ce567116101665780634cdad506116101405780634cdad506146101f9578063572b6c05146102c65780636e553f651461030657806370a082311461031957600080fd5b8063313ce5671461025d57806338d52e0f14610277578063402d267d146102b157600080fd5b8063095ea7b3116101a2578063095ea7b31461020c5780630a28a4771461022f57806318160ddd1461024257806323b872dd1461024a57600080fd5b806301e1d114146101c957806306fdde03146101e457806307a2d13a146101f9575b600080fd5b6101d1610454565b6040519081526020015b60405180910390f35b6101ec6104e4565b6040516101db919061114a565b6101d161020736600461117d565b610576565b61021f61021a3660046111ab565b610589565b60405190151581526020016101db565b6101d161023d36600461117d565b6105ab565b6002546101d1565b61021f6102583660046111d7565b6105b8565b6102656105e8565b60405160ff90911681526020016101db565b7f00000000000000000000000000000000000000000000000000000000000000005b6040516001600160a01b0390911681526020016101db565b6101d16102bf366004611218565b5060001990565b61021f6102d4366004611218565b7f00000000000000000000000000000000000000000000000000000000000000006001600160a01b0390811691161490565b6101d1610314366004611235565b610614565b6101d1610327366004611218565b6001600160a01b031660009081526020819052604090205490565b7f0000000000000000000000000000000000000000000000000000000000000000610299565b6101d1610376366004611265565b61064f565b6101d1610389366004611235565b610751565b6101ec610776565b61021f6103a43660046111ab565b610785565b6101d16103b736600461117d565b61079d565b6101d16103ca3660046112dc565b6107aa565b6101d16103dd3660046112dc565b610809565b6101d16103f036600461117d565b61085f565b6101d1610403366004611218565b61086c565b6101d1610416366004611218565b610890565b6101d161042936600461131e565b6001600160a01b03918216600090815260016020908152604080832093909416825291909152205490565b6040516370a0823160e01b81523060048201526000907f00000000000000000000000000000000000000000000000000000000000000006001600160a01b0316906370a0823190602401602060405180830381865afa1580156104bb573d6000803e3d6000fd5b505050506040513d601f19601f820116820180604052508101906104df919061134c565b905090565b6060600380546104f390611365565b80601f016020809104026020016040519081016040528092919081815260200182805461051f90611365565b801561056c5780601f106105415761010080835404028352916020019161056c565b820191906000526020600020905b81548152906001019060200180831161054f57829003601f168201915b5050505050905090565b60006105838260006108ae565b92915050565b6000806105946108e8565b90506105a18185856108f2565b5060019392505050565b6000610583826001610904565b6000806105c36108e8565b90506105d0858285610934565b6105db85858561099f565b60019150505b9392505050565b60006104df817f00000000000000000000000000000000000000000000000000000000000000006113b5565b6000600019610627565b60405180910390fd5b60006106328561085f565b905061064761063f6108e8565b8587846109fe565b949350505050565b6000306001600160a01b03166338d52e0f6040518163ffffffff1660e01b8152600401602060405180830381865afa15801561068f573d6000803e3d6000fd5b505050506040513d601f19601f820116820180604052508101906106b391906113ef565b60405163d505accf60e01b81526001600160a01b038a81166004830152306024830152604482018990526064820188905260ff8716608483015260a4820186905260c48201859052919091169063d505accf9060e401600060405180830381600087803b15801561072357600080fd5b505af1158015610737573d6000803e3d6000fd5b505050506107458688610614565b98975050505050505050565b600060001960006107618561079d565b905061064761076e6108e8565b8583886109fe565b6060600480546104f390611365565b6000806107906108e8565b90506105a181858561099f565b60006105838260016108ae565b6000806107b68361086c565b9050808511156107df57828582604051633fa733bb60e21b815260040161061e939291906113ce565b60006107ea866105ab565b90506108006107f76108e8565b86868985610a90565b95945050505050565b60008061081583610890565b90508085111561083e57828582604051632e52afbb60e21b815260040161061e939291906113ce565b600061084986610576565b90506108006108566108e8565b8686848a610a90565b6000610583826000610904565b6001600160a01b0381166000908152602081905260408120546105839060006108ae565b6001600160a01b038116600090815260208190526040812054610583565b60006105e16108bb610454565b6108c690600161140c565b6108d26000600a611503565b6002546108df919061140c565b85919085610b50565b60006104df610b9f565b6108ff8383836001610bf1565b505050565b60006105e161091482600a611503565b600254610921919061140c565b610929610454565b6108df90600161140c565b6001600160a01b038381166000908152600160209081526040808320938616835292905220546000198114610999578181101561098a57828183604051637dc7a0d960e11b815260040161061e939291906113ce565b61099984848484036000610bf1565b50505050565b6001600160a01b0383166109c957604051634b637e8f60e11b81526000600482015260240161061e565b6001600160a01b0382166109f35760405163ec442f0560e01b81526000600482015260240161061e565b6108ff838383610cb8565b610a2a7f0000000000000000000000000000000000000000000000000000000000000000853085610dcf565b610a348382610e36565b826001600160a01b0316846001600160a01b03167fdcbc1c05240f31ff3ad067ef1ee35ce4997762752e3a095284754544f4c709d78484604051610a82929190918252602082015260400190565b60405180910390a350505050565b826001600160a01b0316856001600160a01b031614610ab457610ab4838683610934565b610abe8382610e70565b610ae97f00000000000000000000000000000000000000000000000000000000000000008584610ea6565b826001600160a01b0316846001600160a01b0316866001600160a01b03167ffbde797d201c681b91056529119e0b02407c7bb96a4a2c75c01fc9667232c8db8585604051610b41929190918252602082015260400190565b60405180910390a45050505050565b600080610b5e868686610ed7565b9050610b6983610f9b565b8015610b85575060008480610b8057610b80611512565b868809115b1561080057610b9560018261140c565b9695505050505050565b60007f00000000000000000000000000000000000000000000000000000000000000006001600160a01b031633148015610bda575060143610155b15610bec575060131936013560601c90565b503390565b6001600160a01b038416610c1b5760405163e602df0560e01b81526000600482015260240161061e565b6001600160a01b038316610c4557604051634a1406b160e11b81526000600482015260240161061e565b6001600160a01b038085166000908152600160209081526040808320938716835292905220829055801561099957826001600160a01b0316846001600160a01b03167f8c5be1e5ebec7d5bd14f71427d1e84f3dd0314c0f7b2291e5b200ac8c7c3b92584604051610a8291815260200190565b6001600160a01b038316610ce3578060026000828254610cd8919061140c565b90915550610d429050565b6001600160a01b03831660009081526020819052604090205481811015610d235783818360405163391434e360e21b815260040161061e939291906113ce565b6001600160a01b03841660009081526020819052604090209082900390555b6001600160a01b038216610d5e57600280548290039055610d7d565b6001600160a01b03821660009081526020819052604090208054820190555b816001600160a01b0316836001600160a01b03167fddf252ad1be2c89b69c2b068fc378daa952ba7f163c4a11628f55a4df523b3ef83604051610dc291815260200190565b60405180910390a3505050565b6040516001600160a01b0384811660248301528381166044830152606482018390526109999186918216906323b872dd906084015b604051602081830303815290604052915060e01b6020820180516001600160e01b038381831617835250505050610fc8565b6001600160a01b038216610e605760405163ec442f0560e01b81526000600482015260240161061e565b610e6c60008383610cb8565b5050565b6001600160a01b038216610e9a57604051634b637e8f60e11b81526000600482015260240161061e565b610e6c82600083610cb8565b6040516001600160a01b038381166024830152604482018390526108ff91859182169063a9059cbb90606401610e04565b6000838302816000198587098281108382030391505080600003610f0e57838281610f0457610f04611512565b04925050506105e1565b808411610f2e5760405163227bc15360e01b815260040160405180910390fd5b6000848688096000868103871696879004966002600389028118808a02820302808a02820302808a02820302808a02820302808a02820302808a02909103029181900381900460010186841190950394909402919094039290920491909117919091029150509392505050565b60006002826003811115610fb157610fb1611528565b610fbb919061153e565b60ff166001149050919050565b6000610fdd6001600160a01b0384168361102b565b90508051600014158015611002575080806020019051810190611000919061156e565b155b156108ff57604051635274afe760e01b81526001600160a01b038416600482015260240161061e565b60606105e18383600084600080856001600160a01b031684866040516110519190611590565b60006040518083038185875af1925050503d806000811461108e576040519150601f19603f3d011682016040523d82523d6000602084013e611093565b606091505b5091509150610b958683836060826110b3576110ae826110fa565b6105e1565b81511580156110ca57506001600160a01b0384163b155b156110f357604051639996b31560e01b81526001600160a01b038516600482015260240161061e565b50806105e1565b80511561110a5780518082602001fd5b604051630a12f52160e11b815260040160405180910390fd5b50565b60005b83811015611141578181015183820152602001611129565b50506000910152565b6020815260008251806020840152611169816040850160208701611126565b601f01601f19169190910160400192915050565b60006020828403121561118f57600080fd5b5035919050565b6001600160a01b038116811461112357600080fd5b600080604083850312156111be57600080fd5b82356111c981611196565b946020939093013593505050565b6000806000606084860312156111ec57600080fd5b83356111f781611196565b9250602084013561120781611196565b929592945050506040919091013590565b60006020828403121561122a57600080fd5b81356105e181611196565b6000806040838503121561124857600080fd5b82359150602083013561125a81611196565b809150509250929050565b600080600080600080600060e0888a03121561128057600080fd5b873561128b81611196565b9650602088013561129b81611196565b95506040880135945060608801359350608088013560ff811681146112bf57600080fd5b9699959850939692959460a0840135945060c09093013592915050565b6000806000606084860312156112f157600080fd5b83359250602084013561130381611196565b9150604084013561131381611196565b809150509250925092565b6000806040838503121561133157600080fd5b823561133c81611196565b9150602083013561125a81611196565b60006020828403121561135e57600080fd5b5051919050565b600181811c9082168061137957607f821691505b60208210810361139957634e487b7160e01b600052602260045260246000fd5b50919050565b634e487b7160e01b600052601160045260246000fd5b60ff81811683821601908111156105835761058361139f565b6001600160a01b039390931683526020830191909152604082015260600190565b60006020828403121561140157600080fd5b81516105e181611196565b808201808211156105835761058361139f565b600181815b8085111561145a5781600019048211156114405761144061139f565b8085161561144d57918102915b93841c9390800290611424565b509250929050565b60008261147157506001610583565b8161147e57506000610583565b8160018114611494576002811461149e576114ba565b6001915050610583565b60ff8411156114af576114af61139f565b50506001821b610583565b5060208310610133831016604e8410600b84101617156114dd575081810a610583565b6114e7838361141f565b80600019048211156114fb576114fb61139f565b029392505050565b60006105e160ff841683611462565b634e487b7160e01b600052601260045260246000fd5b634e487b7160e01b600052602160045260246000fd5b600060ff83168061155f57634e487b7160e01b600052601260045260246000fd5b8060ff84160691505092915050565b60006020828403121561158057600080fd5b815180151581146105e157600080fd5b600082516115a2818460208701611126565b919091019291505056fea2646970667358221220b12497c68097feda2ebb0672572df6e84557028eae9219630aa1b8579d18671364736f6c63430008160033",
    "linkReferences": {}
  },
  "methodIdentifiers": {
    "allowance(address,address)": "dd62ed3e",
    "approve(address,uint256)": "095ea7b3",
    "asset()": "38d52e0f",
    "balanceOf(address)": "70a08231",
    "convertToAssets(uint256)": "07a2d13a",
    "convertToShares(uint256)": "c6e6f592",
    "decimals()": "313ce567",
    "deposit(uint256,address)": "6e553f65",
    "depositWithPermit(address,address,uint256,uint256,uint8,bytes32,bytes32)": "8ef59739",
    "isTrustedForwarder(address)": "572b6c05",
    "maxDeposit(address)": "402d267d",
    "maxMint(address)": "c63d75b6",
    "maxRedeem(address)": "d905777e",
    "maxWithdraw(address)": "ce96cb77",
    "mint(uint256,address)": "94bf804d",
    "name()": "06fdde03",
    "previewDeposit(uint256)": "ef8b30f7",
    "previewMint(uint256)": "b3d7f6b9",
    "previewRedeem(uint256)": "4cdad506",
    "previewWithdraw(uint256)": "0a28a477",
    "redeem(uint256,address,address)": "ba087652",
    "symbol()": "95d89b41",
    "totalAssets()": "01e1d114",
    "totalSupply()": "18160ddd",
    "transfer(address,uint256)": "a9059cbb",
    "transferFrom(address,address,uint256)": "23b872dd",
    "trustedForwarder()": "7da0a877",
    "withdraw(uint256,address,address)": "b460af94"
  },
  "id": 2
}