{
  "_format": "hh-sol-artifact-1",
  "contractName": "InterchainMultisig",
  "sourceName": "contracts/governance/InterchainMultisig.sol",
  "abi": [
    {
      "inputs": [
        {
          "internalType": "string",
          "name": "chainName",
          "type": "string"
        },
        {
          "internalType": "bytes32",
          "name": "domainSeparator_",
          "type": "bytes32"
        },
        {
          "components": [
            {
              "components": [
                {
                  "internalType": "address",
                  "name": "signer",
                  "type": "address"
                },
                {
                  "internalType": "uint128",
                  "name": "weight",
                  "type": "uint128"
                }
              ],
              "internalType": "struct WeightedSigner[]",
              "name": "signers",
              "type": "tuple[]"
            },
            {
              "internalType": "uint128",
              "name": "threshold",
              "type": "uint128"
            },
            {
              "internalType": "bytes32",
              "name": "nonce",
              "type": "bytes32"
            }
          ],
          "internalType": "struct WeightedSigners",
          "name": "signers",
          "type": "tuple"
        }
      ],
      "stateMutability": "nonpayable",
      "type": "constructor"
    },
    {
      "inputs": [],
      "name": "AlreadyExecuted",
      "type": "error"
    },
    {
      "inputs": [],
      "name": "EmptyBatch",
      "type": "error"
    },
    {
      "inputs": [],
      "name": "ExecutionFailed",
      "type": "error"
    },
    {
      "inputs": [],
      "name": "InsufficientBalance",
      "type": "error"
    },
    {
      "inputs": [],
      "name": "InvalidChainName",
      "type": "error"
    },
    {
      "inputs": [],
      "name": "InvalidChainNameHash",
      "type": "error"
    },
    {
      "inputs": [
        {
          "internalType": "address",
          "name": "target",
          "type": "address"
        }
      ],
      "name": "InvalidContract",
      "type": "error"
    },
    {
      "inputs": [],
      "name": "InvalidPayloadType",
      "type": "error"
    },
    {
      "inputs": [],
      "name": "InvalidRecipient",
      "type": "error"
    },
    {
      "inputs": [],
      "name": "InvalidS",
      "type": "error"
    },
    {
      "inputs": [],
      "name": "InvalidSignature",
      "type": "error"
    },
    {
      "inputs": [],
      "name": "InvalidSignatureLength",
      "type": "error"
    },
    {
      "inputs": [],
      "name": "InvalidSigners",
      "type": "error"
    },
    {
      "inputs": [],
      "name": "InvalidThreshold",
      "type": "error"
    },
    {
      "inputs": [],
      "name": "InvalidV",
      "type": "error"
    },
    {
      "inputs": [],
      "name": "InvalidVoidBatch",
      "type": "error"
    },
    {
      "inputs": [],
      "name": "InvalidWeights",
      "type": "error"
    },
    {
      "inputs": [],
      "name": "LowSignaturesWeight",
      "type": "error"
    },
    {
      "inputs": [],
      "name": "MalformedSignatures",
      "type": "error"
    },
    {
      "inputs": [],
      "name": "NativeTransferFailed",
      "type": "error"
    },
    {
      "inputs": [],
      "name": "NotSelf",
      "type": "error"
    },
    {
      "anonymous": false,
      "inputs": [
        {
          "indexed": true,
          "internalType": "bytes32",
          "name": "batchId",
          "type": "bytes32"
        },
        {
          "indexed": true,
          "internalType": "bytes32",
          "name": "batchHash",
          "type": "bytes32"
        },
        {
          "indexed": false,
          "internalType": "uint256",
          "name": "callsExecuted",
          "type": "uint256"
        },
        {
          "indexed": true,
          "internalType": "uint256",
          "name": "batchLength",
          "type": "uint256"
        }
      ],
      "name": "BatchExecuted",
      "type": "event"
    },
    {
      "anonymous": false,
      "inputs": [
        {
          "indexed": true,
          "internalType": "bytes32",
          "name": "batchId",
          "type": "bytes32"
        },
        {
          "indexed": true,
          "internalType": "address",
          "name": "target",
          "type": "address"
        },
        {
          "indexed": false,
          "internalType": "bytes",
          "name": "callData",
          "type": "bytes"
        },
        {
          "indexed": false,
          "internalType": "uint256",
          "name": "nativeValue",
          "type": "uint256"
        }
      ],
      "name": "CallExecuted",
      "type": "event"
    },
    {
      "anonymous": false,
      "inputs": [
        {
          "indexed": true,
          "internalType": "uint256",
          "name": "epoch",
          "type": "uint256"
        },
        {
          "indexed": true,
          "internalType": "bytes32",
          "name": "signersHash",
          "type": "bytes32"
        },
        {
          "indexed": false,
          "internalType": "bytes",
          "name": "signers",
          "type": "bytes"
        }
      ],
      "name": "SignersRotated",
      "type": "event"
    },
    {
      "inputs": [],
      "name": "chainNameHash",
      "outputs": [
        {
          "internalType": "bytes32",
          "name": "",
          "type": "bytes32"
        }
      ],
      "stateMutability": "view",
      "type": "function"
    },
    {
      "inputs": [],
      "name": "domainSeparator",
      "outputs": [
        {
          "internalType": "bytes32",
          "name": "",
          "type": "bytes32"
        }
      ],
      "stateMutability": "view",
      "type": "function"
    },
    {
      "inputs": [],
      "name": "epoch",
      "outputs": [
        {
          "internalType": "uint256",
          "name": "",
          "type": "uint256"
        }
      ],
      "stateMutability": "view",
      "type": "function"
    },
    {
      "inputs": [
        {
          "internalType": "bytes32",
          "name": "signerHash",
          "type": "bytes32"
        }
      ],
      "name": "epochBySignerHash",
      "outputs": [
        {
          "internalType": "uint256",
          "name": "",
          "type": "uint256"
        }
      ],
      "stateMutability": "view",
      "type": "function"
    },
    {
      "inputs": [
        {
          "internalType": "bytes32",
          "name": "batchId",
          "type": "bytes32"
        },
        {
          "components": [
            {
              "internalType": "string",
              "name": "chainName",
              "type": "string"
            },
            {
              "internalType": "address",
              "name": "executor",
              "type": "address"
            },
            {
              "internalType": "address",
              "name": "target",
              "type": "address"
            },
            {
              "internalType": "bytes",
              "name": "callData",
              "type": "bytes"
            },
            {
              "internalType": "uint256",
              "name": "nativeValue",
              "type": "uint256"
            }
          ],
          "internalType": "struct IInterchainMultisig.Call[]",
          "name": "calls",
          "type": "tuple[]"
        },
        {
          "components": [
            {
              "components": [
                {
                  "components": [
                    {
                      "internalType": "address",
                      "name": "signer",
                      "type": "address"
                    },
                    {
                      "internalType": "uint128",
                      "name": "weight",
                      "type": "uint128"
                    }
                  ],
                  "internalType": "struct WeightedSigner[]",
                  "name": "signers",
                  "type": "tuple[]"
                },
                {
                  "internalType": "uint128",
                  "name": "threshold",
                  "type": "uint128"
                },
                {
                  "internalType": "bytes32",
                  "name": "nonce",
                  "type": "bytes32"
                }
              ],
              "internalType": "struct WeightedSigners",
              "name": "signers",
              "type": "tuple"
            },
            {
              "internalType": "bytes[]",
              "name": "signatures",
              "type": "bytes[]"
            }
          ],
          "internalType": "struct Proof",
          "name": "proof",
          "type": "tuple"
        }
      ],
      "name": "executeCalls",
      "outputs": [],
      "stateMutability": "payable",
      "type": "function"
    },
    {
      "inputs": [
        {
          "internalType": "bytes32",
          "name": "batchId",
          "type": "bytes32"
        }
      ],
      "name": "isBatchExecuted",
      "outputs": [
        {
          "internalType": "bool",
          "name": "",
          "type": "bool"
        }
      ],
      "stateMutability": "view",
      "type": "function"
    },
    {
      "inputs": [
        {
          "internalType": "bytes32",
          "name": "signersHash",
          "type": "bytes32"
        },
        {
          "internalType": "bytes32",
          "name": "dataHash",
          "type": "bytes32"
        }
      ],
      "name": "messageHashToSign",
      "outputs": [
        {
          "internalType": "bytes32",
          "name": "",
          "type": "bytes32"
        }
      ],
      "stateMutability": "view",
      "type": "function"
    },
    {
      "inputs": [],
      "name": "noop",
      "outputs": [],
      "stateMutability": "view",
      "type": "function"
    },
    {
      "inputs": [],
      "name": "previousSignersRetention",
      "outputs": [
        {
          "internalType": "uint256",
          "name": "",
          "type": "uint256"
        }
      ],
      "stateMutability": "view",
      "type": "function"
    },
    {
      "inputs": [
        {
          "components": [
            {
              "components": [
                {
                  "internalType": "address",
                  "name": "signer",
                  "type": "address"
                },
                {
                  "internalType": "uint128",
                  "name": "weight",
                  "type": "uint128"
                }
              ],
              "internalType": "struct WeightedSigner[]",
              "name": "signers",
              "type": "tuple[]"
            },
            {
              "internalType": "uint128",
              "name": "threshold",
              "type": "uint128"
            },
            {
              "internalType": "bytes32",
              "name": "nonce",
              "type": "bytes32"
            }
          ],
          "internalType": "struct WeightedSigners",
          "name": "newSigners",
          "type": "tuple"
        }
      ],
      "name": "rotateSigners",
      "outputs": [],
      "stateMutability": "nonpayable",
      "type": "function"
    },
    {
      "inputs": [
        {
          "internalType": "uint256",
          "name": "signerEpoch",
          "type": "uint256"
        }
      ],
      "name": "signerHashByEpoch",
      "outputs": [
        {
          "internalType": "bytes32",
          "name": "",
          "type": "bytes32"
        }
      ],
      "stateMutability": "view",
      "type": "function"
    },
    {
      "inputs": [
        {
          "internalType": "bytes32",
          "name": "dataHash",
          "type": "bytes32"
        },
        {
          "components": [
            {
              "components": [
                {
                  "components": [
                    {
                      "internalType": "address",
                      "name": "signer",
                      "type": "address"
                    },
                    {
                      "internalType": "uint128",
                      "name": "weight",
                      "type": "uint128"
                    }
                  ],
                  "internalType": "struct WeightedSigner[]",
                  "name": "signers",
                  "type": "tuple[]"
                },
                {
                  "internalType": "uint128",
                  "name": "threshold",
                  "type": "uint128"
                },
                {
                  "internalType": "bytes32",
                  "name": "nonce",
                  "type": "bytes32"
                }
              ],
              "internalType": "struct WeightedSigners",
              "name": "signers",
              "type": "tuple"
            },
            {
              "internalType": "bytes[]",
              "name": "signatures",
              "type": "bytes[]"
            }
          ],
          "internalType": "struct Proof",
          "name": "proof",
          "type": "tuple"
        }
      ],
      "name": "validateProof",
      "outputs": [
        {
          "internalType": "bool",
          "name": "isLatestSigners",
          "type": "bool"
        }
      ],
      "stateMutability": "view",
      "type": "function"
    },
    {
      "inputs": [
        {
          "internalType": "address",
          "name": "recipient",
          "type": "address"
        },
        {
          "internalType": "uint256",
          "name": "amount",
          "type": "uint256"
        }
      ],
      "name": "withdraw",
      "outputs": [],
      "stateMutability": "nonpayable",
      "type": "function"
    },
    {
      "stateMutability": "payable",
      "type": "receive"
    }
  ],
  "bytecode": "0x60e06040523480156200001157600080fd5b50604051620023f3380380620023f3833981016040819052620000349162000490565b6000608081905260a0839052835190036200006257604051630470832760e11b815260040160405180910390fd5b8251602084012060c052620000778162000080565b50505062000662565b7f457f3fc26bf430b020fe76358b1bfaba57e1657ace718da6437cda9934eabfe8620000ac826200015e565b600082604051602001620000c191906200055f565b60408051601f1981840301815291905280516020820120835491925090600090620000ee906001620005ef565b80855560008181526001860160209081526040808320869055858352600288019091529081902082905551909150829082907fe7cf1d3405bd906f8500af030e1130f3affbe991be73471a0d3983fe3ca61ebc906200014f90879062000617565b60405180910390a35050505050565b8051805160008181036200018557604051635e231fff60e01b815260040160405180910390fd5b6000805b8381101562000243576000858281518110620001a957620001a96200064c565b60200260200101519050600081600001519050806001600160a01b0316846001600160a01b031610620001ef57604051635e231fff60e01b815260040160405180910390fd5b809350600082602001516001600160801b0316905080600003620002265760405163108cef9d60e31b815260040160405180910390fd5b620002328187620005ef565b955050505080600101905062000189565b5060208501516001600160801b0381161580620002685750806001600160801b031683105b15620002875760405163aabd5a0960e01b815260040160405180910390fd5b505050505050565b634e487b7160e01b600052604160045260246000fd5b604051606081016001600160401b0381118282101715620002ca57620002ca6200028f565b60405290565b604080519081016001600160401b0381118282101715620002ca57620002ca6200028f565b604051601f8201601f191681016001600160401b03811182821017156200032057620003206200028f565b604052919050565b60005b83811015620003455781810151838201526020016200032b565b50506000910152565b80516001600160801b03811681146200036657600080fd5b919050565b6000606082840312156200037e57600080fd5b62000388620002a5565b82519091506001600160401b0380821115620003a357600080fd5b818401915084601f830112620003b857600080fd5b8151602082821115620003cf57620003cf6200028f565b620003df818360051b01620002f5565b828152818101935060069290921b8401810191878311156200040057600080fd5b938101935b82851015620004695760408589031215620004205760008081fd5b6200042a620002d0565b85516001600160a01b0381168114620004435760008081fd5b8152620004528684016200034e565b818401528452604094909401939281019262000405565b8552620004788682016200034e565b81860152505050506040820151604082015292915050565b600080600060608486031215620004a657600080fd5b83516001600160401b0380821115620004be57600080fd5b818601915086601f830112620004d357600080fd5b815181811115620004e857620004e86200028f565b620004fd601f8201601f1916602001620002f5565b8181528860208386010111156200051357600080fd5b6200052682602083016020870162000328565b602088015160408901519197509550925050808211156200054657600080fd5b5062000555868287016200036b565b9150509250925092565b6020808252825160608383015280516080840181905260009291820190839060a08601905b80831015620005c357835180516001600160a01b031683528501516001600160801b031685830152928401926001929092019160409091019062000584565b50928601516001600160801b038116604087015292604087015160608701528094505050505092915050565b808201808211156200061157634e487b7160e01b600052601160045260246000fd5b92915050565b60208152600082518060208401526200063881604085016020870162000328565b601f01601f19169190910160400192915050565b634e487b7160e01b600052603260045260246000fd5b60805160a05160c051611d45620006ae6000396000818161023501526105630152600081816103240152818161038c015261096201526000818161026901526108d00152611d456000f3fe6080604052600436106100d65760003560e01c80638c212aa51161007f578063d34636a511610059578063d34636a5146102d2578063f3fef3a3146102f2578063f698da2514610312578063fd721b471461034657600080fd5b80638c212aa514610257578063900cf0cf1461028b578063c6267953146102bf57600080fd5b80635dfc2e4a116100b05780635dfc2e4a146101c05780636f9badf4146101d7578063864a0dcf1461022357600080fd5b8063046441b7146100e2578063116399e41461014657806322c9eea81461016657600080fd5b366100dd57005b600080fd5b3480156100ee57600080fd5b506101316100fd366004611283565b60009081527fee4c79745c2938ff2a269d76f8921d82df3b09446024c758a2e0e593fb2a65a7602052604090205460ff1690565b60405190151581526020015b60405180910390f35b34801561015257600080fd5b506101316101613660046112b4565b6103e2565b34801561017257600080fd5b506101b2610181366004611283565b60009081527f457f3fc26bf430b020fe76358b1bfaba57e1657ace718da6437cda9934eabfea602052604090205490565b60405190815260200161013d565b3480156101cc57600080fd5b506101d56103f7565b005b3480156101e357600080fd5b506101b26101f2366004611283565b60009081527f457f3fc26bf430b020fe76358b1bfaba57e1657ace718da6437cda9934eabfe9602052604090205490565b34801561022f57600080fd5b506101b27f000000000000000000000000000000000000000000000000000000000000000081565b34801561026357600080fd5b506101b27f000000000000000000000000000000000000000000000000000000000000000081565b34801561029757600080fd5b507f457f3fc26bf430b020fe76358b1bfaba57e1657ace718da6437cda9934eabfe8546101b2565b6101d56102cd3660046112fb565b610432565b3480156102de57600080fd5b506101d56102ed3660046114b2565b61070a565b3480156102fe57600080fd5b506101d561030d3660046115d4565b61074f565b34801561031e57600080fd5b506101b27f000000000000000000000000000000000000000000000000000000000000000081565b34801561035257600080fd5b506101b26103613660046115fe565b6040517f19457468657265756d205369676e6564204d6573736167653a0a39360000000060208201527f0000000000000000000000000000000000000000000000000000000000000000603c820152605c8101839052607c8101829052600090609c0160405160208183030381529060405280519060200120905092915050565b60006103ee8383610833565b90505b92915050565b333014610430576040517f29c3b7ee00000000000000000000000000000000000000000000000000000000815260040160405180910390fd5b565b6040517fee4c79745c2938ff2a269d76f8921d82df3b09446024c758a2e0e593fb2a65a79060009061046c908790879087906020016116d4565b604080517fffffffffffffffffffffffffffffffffffffffffffffffffffffffffffffffe081840301815291905280516020909101209050836104af8285610833565b5060008781526020849052604090205460ff16156104f9576040517f0dc1019700000000000000000000000000000000000000000000000000000000815260040160405180910390fd5b600087815260208490526040812080547fffffffffffffffffffffffffffffffffffffffffffffffffffffffffffffff00166001179055805b82811015610689573688888381811061054d5761054d611810565b905060200281019061055f919061183f565b90507f000000000000000000000000000000000000000000000000000000000000000061058c828061187d565b60405161059a9291906118e2565b60405180910390201480156105d35750306105bb60408301602084016118f2565b73ffffffffffffffffffffffffffffffffffffffff16145b15610680576105e860608201604083016118f2565b73ffffffffffffffffffffffffffffffffffffffff168a7faabc1e599793918af41b1daf0853296f93106500a3380209d579817b40d3357161062d606085018561187d565b85608001356040516106419392919061190d565b60405180910390a361067361065c60608301604084016118f2565b610669606084018461187d565b84608001356109cf565b5061067d83611960565b92505b50600101610532565b50806000036106c4576040517fc2e5347d00000000000000000000000000000000000000000000000000000000815260040160405180910390fd5b8183897feb57ff0e1a235f95b3d7327ba1b4087831f3252ec476fef8cfe0b8cb9329b3d3846040516106f891815260200190565b60405180910390a45050505050505050565b333014610743576040517f29c3b7ee00000000000000000000000000000000000000000000000000000000815260040160405180910390fd5b61074c81610b2f565b50565b333014610788576040517f29c3b7ee00000000000000000000000000000000000000000000000000000000815260040160405180910390fd5b73ffffffffffffffffffffffffffffffffffffffff82166107d5576040517f9c8d2cd200000000000000000000000000000000000000000000000000000000815260040160405180910390fd5b4781111561080f576040517ff4d678b800000000000000000000000000000000000000000000000000000000815260040160405180910390fd5b61082f73ffffffffffffffffffffffffffffffffffffffff831682610c23565b5050565b60007f457f3fc26bf430b020fe76358b1bfaba57e1657ace718da6437cda9934eabfe8366108618480611998565b905060008160405160200161087691906119cc565b604080517fffffffffffffffffffffffffffffffffffffffffffffffffffffffffffffffe0818403018152918152815160209283012060008181526002870190935291205484548082149650919250908115806108fb57507f00000000000000000000000000000000000000000000000000000000000000006108f98383611ae4565b115b15610932576040517f5e231fff00000000000000000000000000000000000000000000000000000000815260040160405180910390fd5b604080517f19457468657265756d205369676e6564204d6573736167653a0a3936000000006020808301919091527f0000000000000000000000000000000000000000000000000000000000000000603c830152605c8201869052607c8083018c905283518084039091018152609c90920190925280519101206109c381866109be60208c018c611af7565b610c6d565b50505050505092915050565b60606109f08573ffffffffffffffffffffffffffffffffffffffff16610ea9565b610a42576040517fec01648400000000000000000000000000000000000000000000000000000000815273ffffffffffffffffffffffffffffffffffffffff8616600482015260240160405180910390fd5b47821115610a7c576040517ff4d678b800000000000000000000000000000000000000000000000000000000815260040160405180910390fd5b6000808673ffffffffffffffffffffffffffffffffffffffff16848787604051610aa79291906118e2565b60006040518083038185875af1925050503d8060008114610ae4576040519150601f19603f3d011682016040523d82523d6000602084013e610ae9565b606091505b509150915081610b25576040517facfdb44400000000000000000000000000000000000000000000000000000000815260040160405180910390fd5b9695505050505050565b7f457f3fc26bf430b020fe76358b1bfaba57e1657ace718da6437cda9934eabfe8610b5982610ef9565b600082604051602001610b6c9190611b5f565b604080517fffffffffffffffffffffffffffffffffffffffffffffffffffffffffffffffe081840301815291905280516020820120835491925090600090610bb5906001611c0c565b80855560008181526001860160209081526040808320869055858352600288019091529081902082905551909150829082907fe7cf1d3405bd906f8500af030e1130f3affbe991be73471a0d3983fe3ca61ebc90610c14908790611c1f565b60405180910390a35050505050565b600080600080600085875af1905080610c68576040517ff4b3b1bc00000000000000000000000000000000000000000000000000000000815260040160405180910390fd5b505050565b366000610c7a8580611c8c565b90925090508083600080828103610cbd576040517f203b225800000000000000000000000000000000000000000000000000000000815260040160405180910390fd5b60005b83811015610e70576000610d2c8c8b8b85818110610ce057610ce0611810565b9050602002810190610cf2919061187d565b8080601f0160208091040260200160405190810160405280939291908181526020018383808284376000920191909152506110b792505050565b90505b8584108015610d915750878785818110610d4b57610d4b611810565b610d6192602060409092020190810191506118f2565b73ffffffffffffffffffffffffffffffffffffffff168173ffffffffffffffffffffffffffffffffffffffff1614155b15610da657610d9f84611960565b9350610d2f565b858403610ddf576040517f186f8a7200000000000000000000000000000000000000000000000000000000815260040160405180910390fd5b878785818110610df157610df1611810565b9050604002016020016020810190610e099190611cf4565b610e25906fffffffffffffffffffffffffffffffff1684611c0c565b9250610e3760408c0160208d01611cf4565b6fffffffffffffffffffffffffffffffff168310610e5c575050505050505050610ea3565b610e6584611960565b935050600101610cc0565b506040517f203b225800000000000000000000000000000000000000000000000000000000815260040160405180910390fd5b50505050565b600073ffffffffffffffffffffffffffffffffffffffff82163f8015801590610ef257507fc5d2460186f7233c927e7db2dcc703c0e500b653ca82273b7bfad8045d85a4708114155b9392505050565b805180516000818103610f38576040517f5e231fff00000000000000000000000000000000000000000000000000000000815260040160405180910390fd5b6000805b83811015611042576000858281518110610f5857610f58611810565b602002602001015190506000816000015190508073ffffffffffffffffffffffffffffffffffffffff168473ffffffffffffffffffffffffffffffffffffffff1610610fd0576040517f5e231fff00000000000000000000000000000000000000000000000000000000815260040160405180910390fd5b809350600082602001516fffffffffffffffffffffffffffffffff16905080600003611028576040517f84677ce800000000000000000000000000000000000000000000000000000000815260040160405180910390fd5b6110328187611c0c565b9550505050806001019050610f3c565b5060208501516fffffffffffffffffffffffffffffffff811615806110785750806fffffffffffffffffffffffffffffffff1683105b156110af576040517faabd5a0900000000000000000000000000000000000000000000000000000000815260040160405180910390fd5b505050505050565b600081516041146110f4576040517f4be6321b00000000000000000000000000000000000000000000000000000000815260040160405180910390fd5b60208201516040830151606084015160001a7f7fffffffffffffffffffffffffffffff5d576e7357a4501ddfe92f46681b20a0821115611160576040517f40c1e74800000000000000000000000000000000000000000000000000000000815260040160405180910390fd5b8060ff16601b1415801561117857508060ff16601c14155b156111af576040517f119bce3900000000000000000000000000000000000000000000000000000000815260040160405180910390fd5b60408051600081526020810180835288905260ff831691810191909152606081018490526080810183905260019060a0016020604051602081039080840390855afa158015611202573d6000803e3d6000fd5b50506040517fffffffffffffffffffffffffffffffffffffffffffffffffffffffffffffffe0015194505073ffffffffffffffffffffffffffffffffffffffff841661127a576040517f8baa579f00000000000000000000000000000000000000000000000000000000815260040160405180910390fd5b50505092915050565b60006020828403121561129557600080fd5b5035919050565b6000604082840312156112ae57600080fd5b50919050565b600080604083850312156112c757600080fd5b82359150602083013567ffffffffffffffff8111156112e557600080fd5b6112f18582860161129c565b9150509250929050565b6000806000806060858703121561131157600080fd5b84359350602085013567ffffffffffffffff8082111561133057600080fd5b818701915087601f83011261134457600080fd5b81358181111561135357600080fd5b8860208260051b850101111561136857600080fd5b60208301955080945050604087013591508082111561138657600080fd5b506113938782880161129c565b91505092959194509250565b7f4e487b7100000000000000000000000000000000000000000000000000000000600052604160045260246000fd5b6040516060810167ffffffffffffffff811182821017156113f1576113f161139f565b60405290565b6040805190810167ffffffffffffffff811182821017156113f1576113f161139f565b604051601f82017fffffffffffffffffffffffffffffffffffffffffffffffffffffffffffffffe016810167ffffffffffffffff811182821017156114615761146161139f565b604052919050565b803573ffffffffffffffffffffffffffffffffffffffff8116811461148d57600080fd5b919050565b80356fffffffffffffffffffffffffffffffff8116811461148d57600080fd5b600060208083850312156114c557600080fd5b823567ffffffffffffffff808211156114dd57600080fd5b90840190606082870312156114f157600080fd5b6114f96113ce565b82358281111561150857600080fd5b8301601f8101881361151957600080fd5b80358381111561152b5761152b61139f565b611539868260051b0161141a565b818152868101945060069190911b82018601908982111561155957600080fd5b918601915b818310156115ab576040838b0312156115775760008081fd5b61157f6113f7565b61158884611469565b8152611595888501611492565b818901528552938601936040929092019161155e565b8352506115bb9050838501611492565b9381019390935250604090810135908201529392505050565b600080604083850312156115e757600080fd5b6115f083611469565b946020939093013593505050565b6000806040838503121561161157600080fd5b50508035926020909101359150565b60008083357fffffffffffffffffffffffffffffffffffffffffffffffffffffffffffffffe184360301811261165557600080fd5b830160208101925035905067ffffffffffffffff81111561167557600080fd5b80360382131561168457600080fd5b9250929050565b8183528181602085013750600060208284010152600060207fffffffffffffffffffffffffffffffffffffffffffffffffffffffffffffffe0601f840116840101905092915050565b60006040808301868452602060406020860152818683526060925060608601905060608760051b870101886000805b8a8110156117ff577fffffffffffffffffffffffffffffffffffffffffffffffffffffffffffffffa08a850301855282357fffffffffffffffffffffffffffffffffffffffffffffffffffffffffffffff618d3603018112611763578283fd5b8c0160a06117718280611620565b828852611781838901828461168b565b92505050611790888301611469565b73ffffffffffffffffffffffffffffffffffffffff8082168a890152806117b88d8601611469565b168c89015250506117cb89830183611620565b8783038b8901526117dd83828461168b565b6080948501359890940197909752505094860194935091850191600101611703565b50919b9a5050505050505050505050565b7f4e487b7100000000000000000000000000000000000000000000000000000000600052603260045260246000fd5b600082357fffffffffffffffffffffffffffffffffffffffffffffffffffffffffffffff6183360301811261187357600080fd5b9190910192915050565b60008083357fffffffffffffffffffffffffffffffffffffffffffffffffffffffffffffffe18436030181126118b257600080fd5b83018035915067ffffffffffffffff8211156118cd57600080fd5b60200191503681900382131561168457600080fd5b8183823760009101908152919050565b60006020828403121561190457600080fd5b6103ee82611469565b60408152600061192160408301858761168b565b9050826020830152949350505050565b7f4e487b7100000000000000000000000000000000000000000000000000000000600052601160045260246000fd5b60007fffffffffffffffffffffffffffffffffffffffffffffffffffffffffffffffff820361199157611991611931565b5060010190565b600082357fffffffffffffffffffffffffffffffffffffffffffffffffffffffffffffffa183360301811261187357600080fd5b600060208083526080830184357fffffffffffffffffffffffffffffffffffffffffffffffffffffffffffffffe1863603018112611a0957600080fd5b8501828101903567ffffffffffffffff811115611a2557600080fd5b8060061b3603821315611a3757600080fd5b606086850152918290529060009060a086015b81831015611aa75773ffffffffffffffffffffffffffffffffffffffff611a7085611469565b1681526fffffffffffffffffffffffffffffffff611a8f868601611492565b16818601526040938401936001939093019201611a4a565b611ab2858901611492565b6fffffffffffffffffffffffffffffffff81166040890152945060408801356060880152809550505050505092915050565b818103818111156103f1576103f1611931565b60008083357fffffffffffffffffffffffffffffffffffffffffffffffffffffffffffffffe1843603018112611b2c57600080fd5b83018035915067ffffffffffffffff821115611b4757600080fd5b6020019150600581901b360382131561168457600080fd5b6020808252825160608383015280516080840181905260009291820190839060a08601905b80831015611bd7578351805173ffffffffffffffffffffffffffffffffffffffff1683528501516fffffffffffffffffffffffffffffffff16858301529284019260019290920191604090910190611b84565b50928601516fffffffffffffffffffffffffffffffff8116604087015292604087015160608701528094505050505092915050565b808201808211156103f1576103f1611931565b60006020808352835180602085015260005b81811015611c4d57858101830151858201604001528201611c31565b5060006040828601015260407fffffffffffffffffffffffffffffffffffffffffffffffffffffffffffffffe0601f8301168501019250505092915050565b60008083357fffffffffffffffffffffffffffffffffffffffffffffffffffffffffffffffe1843603018112611cc157600080fd5b83018035915067ffffffffffffffff821115611cdc57600080fd5b6020019150600681901b360382131561168457600080fd5b600060208284031215611d0657600080fd5b6103ee8261149256fea26469706673582212207778dc64954d91ca16fefce776bfede4b3a78a4252b3033fadc3797d08aadee064736f6c63430008170033",
  "linkReferences": {},
  "deployedLinkReferences": {}
}