{
  "_format": "hh-sol-artifact-1",
  "contractName": "AxelarServiceGovernance",
  "sourceName": "contracts/governance/AxelarServiceGovernance.sol",
  "abi": [
    {
      "inputs": [
        {
          "internalType": "address",
          "name": "gateway_",
          "type": "address"
        },
        {
          "internalType": "string",
          "name": "governanceChain_",
          "type": "string"
        },
        {
          "internalType": "string",
          "name": "governanceAddress_",
          "type": "string"
        },
        {
          "internalType": "uint256",
          "name": "minimumTimeDelay",
          "type": "uint256"
        },
        {
          "internalType": "address",
          "name": "multisig_",
          "type": "address"
        }
      ],
      "stateMutability": "nonpayable",
      "type": "constructor"
    },
    {
      "inputs": [],
      "name": "ExecutionFailed",
      "type": "error"
    },
    {
      "inputs": [],
      "name": "InsufficientBalance",
      "type": "error"
    },
    {
      "inputs": [],
      "name": "InvalidAddress",
      "type": "error"
    },
    {
      "inputs": [],
      "name": "InvalidCommand",
      "type": "error"
    },
    {
      "inputs": [
        {
          "internalType": "address",
          "name": "target",
          "type": "address"
        }
      ],
      "name": "InvalidContract",
      "type": "error"
    },
    {
      "inputs": [],
      "name": "InvalidMultisigAddress",
      "type": "error"
    },
    {
      "inputs": [],
      "name": "InvalidTarget",
      "type": "error"
    },
    {
      "inputs": [],
      "name": "InvalidTimeLockHash",
      "type": "error"
    },
    {
      "inputs": [],
      "name": "NativeTransferFailed",
      "type": "error"
    },
    {
      "inputs": [],
      "name": "NotApproved",
      "type": "error"
    },
    {
      "inputs": [],
      "name": "NotApprovedByGateway",
      "type": "error"
    },
    {
      "inputs": [],
      "name": "NotAuthorized",
      "type": "error"
    },
    {
      "inputs": [],
      "name": "NotGovernance",
      "type": "error"
    },
    {
      "inputs": [],
      "name": "NotSelf",
      "type": "error"
    },
    {
      "inputs": [],
      "name": "TimeLockAlreadyScheduled",
      "type": "error"
    },
    {
      "inputs": [],
      "name": "TimeLockNotReady",
      "type": "error"
    },
    {
      "inputs": [],
      "name": "TokenNotSupported",
      "type": "error"
    },
    {
      "anonymous": false,
      "inputs": [
        {
          "indexed": true,
          "internalType": "bytes32",
          "name": "proposalHash",
          "type": "bytes32"
        },
        {
          "indexed": true,
          "internalType": "address",
          "name": "targetContract",
          "type": "address"
        },
        {
          "indexed": false,
          "internalType": "bytes",
          "name": "callData",
          "type": "bytes"
        },
        {
          "indexed": false,
          "internalType": "uint256",
          "name": "nativeValue",
          "type": "uint256"
        }
      ],
      "name": "MultisigApproved",
      "type": "event"
    },
    {
      "anonymous": false,
      "inputs": [
        {
          "indexed": true,
          "internalType": "bytes32",
          "name": "proposalHash",
          "type": "bytes32"
        },
        {
          "indexed": true,
          "internalType": "address",
          "name": "targetContract",
          "type": "address"
        },
        {
          "indexed": false,
          "internalType": "bytes",
          "name": "callData",
          "type": "bytes"
        },
        {
          "indexed": false,
          "internalType": "uint256",
          "name": "nativeValue",
          "type": "uint256"
        }
      ],
      "name": "MultisigCancelled",
      "type": "event"
    },
    {
      "anonymous": false,
      "inputs": [
        {
          "indexed": true,
          "internalType": "bytes32",
          "name": "proposalHash",
          "type": "bytes32"
        },
        {
          "indexed": true,
          "internalType": "address",
          "name": "targetContract",
          "type": "address"
        },
        {
          "indexed": false,
          "internalType": "bytes",
          "name": "callData",
          "type": "bytes"
        },
        {
          "indexed": false,
          "internalType": "uint256",
          "name": "nativeValue",
          "type": "uint256"
        }
      ],
      "name": "MultisigExecuted",
      "type": "event"
    },
    {
      "anonymous": false,
      "inputs": [
        {
          "indexed": true,
          "internalType": "address",
          "name": "oldMultisig",
          "type": "address"
        },
        {
          "indexed": true,
          "internalType": "address",
          "name": "newMultisig",
          "type": "address"
        }
      ],
      "name": "MultisigTransferred",
      "type": "event"
    },
    {
      "anonymous": false,
      "inputs": [
        {
          "indexed": true,
          "internalType": "bytes32",
          "name": "proposalHash",
          "type": "bytes32"
        },
        {
          "indexed": true,
          "internalType": "address",
          "name": "target",
          "type": "address"
        },
        {
          "indexed": false,
          "internalType": "bytes",
          "name": "callData",
          "type": "bytes"
        },
        {
          "indexed": false,
          "internalType": "uint256",
          "name": "value",
          "type": "uint256"
        },
        {
          "indexed": true,
          "internalType": "uint256",
          "name": "eta",
          "type": "uint256"
        }
      ],
      "name": "ProposalCancelled",
      "type": "event"
    },
    {
      "anonymous": false,
      "inputs": [
        {
          "indexed": true,
          "internalType": "bytes32",
          "name": "proposalHash",
          "type": "bytes32"
        },
        {
          "indexed": true,
          "internalType": "address",
          "name": "target",
          "type": "address"
        },
        {
          "indexed": false,
          "internalType": "bytes",
          "name": "callData",
          "type": "bytes"
        },
        {
          "indexed": false,
          "internalType": "uint256",
          "name": "value",
          "type": "uint256"
        },
        {
          "indexed": true,
          "internalType": "uint256",
          "name": "timestamp",
          "type": "uint256"
        }
      ],
      "name": "ProposalExecuted",
      "type": "event"
    },
    {
      "anonymous": false,
      "inputs": [
        {
          "indexed": true,
          "internalType": "bytes32",
          "name": "proposalHash",
          "type": "bytes32"
        },
        {
          "indexed": true,
          "internalType": "address",
          "name": "target",
          "type": "address"
        },
        {
          "indexed": false,
          "internalType": "bytes",
          "name": "callData",
          "type": "bytes"
        },
        {
          "indexed": false,
          "internalType": "uint256",
          "name": "value",
          "type": "uint256"
        },
        {
          "indexed": true,
          "internalType": "uint256",
          "name": "eta",
          "type": "uint256"
        }
      ],
      "name": "ProposalScheduled",
      "type": "event"
    },
    {
      "inputs": [
        {
          "internalType": "bytes32",
          "name": "commandId",
          "type": "bytes32"
        },
        {
          "internalType": "string",
          "name": "sourceChain",
          "type": "string"
        },
        {
          "internalType": "string",
          "name": "sourceAddress",
          "type": "string"
        },
        {
          "internalType": "bytes",
          "name": "payload",
          "type": "bytes"
        }
      ],
      "name": "execute",
      "outputs": [],
      "stateMutability": "nonpayable",
      "type": "function"
    },
    {
      "inputs": [
        {
          "internalType": "address",
          "name": "target",
          "type": "address"
        },
        {
          "internalType": "bytes",
          "name": "callData",
          "type": "bytes"
        },
        {
          "internalType": "uint256",
          "name": "nativeValue",
          "type": "uint256"
        }
      ],
      "name": "executeMultisigProposal",
      "outputs": [],
      "stateMutability": "payable",
      "type": "function"
    },
    {
      "inputs": [
        {
          "internalType": "address",
          "name": "target",
          "type": "address"
        },
        {
          "internalType": "bytes",
          "name": "callData",
          "type": "bytes"
        },
        {
          "internalType": "uint256",
          "name": "nativeValue",
          "type": "uint256"
        }
      ],
      "name": "executeProposal",
      "outputs": [],
      "stateMutability": "payable",
      "type": "function"
    },
    {
      "inputs": [
        {
          "internalType": "bytes32",
          "name": "commandId",
          "type": "bytes32"
        },
        {
          "internalType": "string",
          "name": "sourceChain",
          "type": "string"
        },
        {
          "internalType": "string",
          "name": "sourceAddress",
          "type": "string"
        },
        {
          "internalType": "bytes",
          "name": "payload",
          "type": "bytes"
        },
        {
          "internalType": "string",
          "name": "tokenSymbol",
          "type": "string"
        },
        {
          "internalType": "uint256",
          "name": "amount",
          "type": "uint256"
        }
      ],
      "name": "executeWithToken",
      "outputs": [],
      "stateMutability": "nonpayable",
      "type": "function"
    },
    {
      "inputs": [],
      "name": "gateway",
      "outputs": [
        {
          "internalType": "contract IAxelarGateway",
          "name": "",
          "type": "address"
        }
      ],
      "stateMutability": "view",
      "type": "function"
    },
    {
      "inputs": [
        {
          "internalType": "address",
          "name": "target",
          "type": "address"
        },
        {
          "internalType": "bytes",
          "name": "callData",
          "type": "bytes"
        },
        {
          "internalType": "uint256",
          "name": "nativeValue",
          "type": "uint256"
        }
      ],
      "name": "getProposalEta",
      "outputs": [
        {
          "internalType": "uint256",
          "name": "",
          "type": "uint256"
        }
      ],
      "stateMutability": "view",
      "type": "function"
    },
    {
      "inputs": [
        {
          "internalType": "bytes32",
          "name": "hash",
          "type": "bytes32"
        }
      ],
      "name": "getTimeLock",
      "outputs": [
        {
          "internalType": "uint256",
          "name": "",
          "type": "uint256"
        }
      ],
      "stateMutability": "view",
      "type": "function"
    },
    {
      "inputs": [],
      "name": "governanceAddress",
      "outputs": [
        {
          "internalType": "string",
          "name": "",
          "type": "string"
        }
      ],
      "stateMutability": "view",
      "type": "function"
    },
    {
      "inputs": [],
      "name": "governanceAddressHash",
      "outputs": [
        {
          "internalType": "bytes32",
          "name": "",
          "type": "bytes32"
        }
      ],
      "stateMutability": "view",
      "type": "function"
    },
    {
      "inputs": [],
      "name": "governanceChain",
      "outputs": [
        {
          "internalType": "string",
          "name": "",
          "type": "string"
        }
      ],
      "stateMutability": "view",
      "type": "function"
    },
    {
      "inputs": [],
      "name": "governanceChainHash",
      "outputs": [
        {
          "internalType": "bytes32",
          "name": "",
          "type": "bytes32"
        }
      ],
      "stateMutability": "view",
      "type": "function"
    },
    {
      "inputs": [
        {
          "internalType": "address",
          "name": "target",
          "type": "address"
        },
        {
          "internalType": "bytes",
          "name": "callData",
          "type": "bytes"
        },
        {
          "internalType": "uint256",
          "name": "nativeValue",
          "type": "uint256"
        }
      ],
      "name": "isMultisigProposalApproved",
      "outputs": [
        {
          "internalType": "bool",
          "name": "",
          "type": "bool"
        }
      ],
      "stateMutability": "view",
      "type": "function"
    },
    {
      "inputs": [],
      "name": "minimumTimeLockDelay",
      "outputs": [
        {
          "internalType": "uint256",
          "name": "",
          "type": "uint256"
        }
      ],
      "stateMutability": "view",
      "type": "function"
    },
    {
      "inputs": [],
      "name": "multisig",
      "outputs": [
        {
          "internalType": "address",
          "name": "",
          "type": "address"
        }
      ],
      "stateMutability": "view",
      "type": "function"
    },
    {
      "inputs": [
        {
          "internalType": "bytes32",
          "name": "",
          "type": "bytes32"
        }
      ],
      "name": "multisigApprovals",
      "outputs": [
        {
          "internalType": "bool",
          "name": "",
          "type": "bool"
        }
      ],
      "stateMutability": "view",
      "type": "function"
    },
    {
      "inputs": [
        {
          "internalType": "address",
          "name": "newMultisig",
          "type": "address"
        }
      ],
      "name": "transferMultisig",
      "outputs": [],
      "stateMutability": "nonpayable",
      "type": "function"
    },
    {
      "inputs": [
        {
          "internalType": "address",
          "name": "recipient",
          "type": "address"
        },
        {
          "internalType": "uint256",
          "name": "amount",
          "type": "uint256"
        }
      ],
      "name": "withdraw",
      "outputs": [],
      "stateMutability": "nonpayable",
      "type": "function"
    },
    {
      "stateMutability": "payable",
      "type": "receive"
    }
  ],
  "bytecode": "0x6101006040523480156200001257600080fd5b5060405162001fa538038062001fa583398101604081905262000035916200020a565b8484848480846001600160a01b038116620000635760405163e6c4247b60e01b815260040160405180910390fd5b6001600160a01b031660805260a052825115806200008057508151155b156200009f5760405163e6c4247b60e01b815260040160405180910390fd5b6000620000ad848262000335565b506001620000bc838262000335565b5050815160209283012060c052805191012060e052506001600160a01b038116620000fa5760405163c2bd570760e01b815260040160405180910390fd5b600280546001600160a01b0319166001600160a01b0392909216919091179055506200040192505050565b80516001600160a01b03811681146200013d57600080fd5b919050565b634e487b7160e01b600052604160045260246000fd5b600082601f8301126200016a57600080fd5b81516001600160401b038082111562000187576200018762000142565b604051601f8301601f19908116603f01168101908282118183101715620001b257620001b262000142565b8160405283815260209250866020858801011115620001d057600080fd5b600091505b83821015620001f45785820183015181830184015290820190620001d5565b6000602085830101528094505050505092915050565b600080600080600060a086880312156200022357600080fd5b6200022e8662000125565b60208701519095506001600160401b03808211156200024c57600080fd5b6200025a89838a0162000158565b955060408801519150808211156200027157600080fd5b50620002808882890162000158565b93505060608601519150620002986080870162000125565b90509295509295909350565b600181811c90821680620002b957607f821691505b602082108103620002da57634e487b7160e01b600052602260045260246000fd5b50919050565b601f82111562000330576000816000526020600020601f850160051c810160208610156200030b5750805b601f850160051c820191505b818110156200032c5782815560010162000317565b5050505b505050565b81516001600160401b0381111562000351576200035162000142565b6200036981620003628454620002a4565b84620002e0565b602080601f831160018114620003a15760008415620003885750858301515b600019600386901b1c1916600185901b1785556200032c565b600085815260208120601f198616915b82811015620003d257888601518255948401946001909101908401620003b1565b5085821015620003f15787850151600019600388901b60f8161c191681555b5050505050600190811b01905550565b60805160a05160c05160e051611b476200045e6000396000818161023f0152610c4f01526000818161031d0152610c0e01526000818161018e015261138301526000818161013001528181610429015261055c0152611b476000f3fe6080604052600436106101125760003560e01c80637e68be80116100a5578063c3e0ddce11610074578063d011f66c11610059578063d011f66c14610372578063f3fef3a314610392578063fab832e9146103b257600080fd5b8063c3e0ddce1461033f578063c74c3c571461035f57600080fd5b80637e68be80146102b3578063891b591b146102c8578063bb77b021146102f8578063bbea95fc1461030b57600080fd5b806349160658116100e1578063491606581461020d578063700150691461022d578063795053d3146102615780637d78dad71461028357600080fd5b8063116191b61461011e57806315334a201461017c5780631a98b2e0146101be5780634783c35b146101e057600080fd5b3661011957005b600080fd5b34801561012a57600080fd5b506101527f000000000000000000000000000000000000000000000000000000000000000081565b60405173ffffffffffffffffffffffffffffffffffffffff90911681526020015b60405180910390f35b34801561018857600080fd5b506101b07f000000000000000000000000000000000000000000000000000000000000000081565b604051908152602001610173565b3480156101ca57600080fd5b506101de6101d93660046114e3565b6103d2565b005b3480156101ec57600080fd5b506002546101529073ffffffffffffffffffffffffffffffffffffffff1681565b34801561021957600080fd5b506101de6102283660046115bd565b610505565b34801561023957600080fd5b506101b07f000000000000000000000000000000000000000000000000000000000000000081565b34801561026d57600080fd5b5061027661062c565b60405161017391906116c5565b34801561028f57600080fd5b506102a361029e3660046116fa565b6106ba565b6040519015158152602001610173565b3480156102bf57600080fd5b5061027661071f565b3480156102d457600080fd5b506102a36102e3366004611756565b60036020526000908152604090205460ff1681565b6101de6103063660046116fa565b61072c565b34801561031757600080fd5b506101b07f000000000000000000000000000000000000000000000000000000000000000081565b34801561034b57600080fd5b506101b061035a3660046116fa565b6107e3565b6101de61036d3660046116fa565b610882565b34801561037e57600080fd5b506101de61038d36600461176f565b6109f8565b34801561039e57600080fd5b506101de6103ad36600461178c565b610b24565b3480156103be57600080fd5b506101b06103cd366004611756565b610b81565b600085856040516103e49291906117b8565b6040519081900381207f1876eed9000000000000000000000000000000000000000000000000000000008252915073ffffffffffffffffffffffffffffffffffffffff7f00000000000000000000000000000000000000000000000000000000000000001690631876eed99061046e908e908e908e908e908e9089908d908d908d90600401611811565b6020604051808303816000875af115801561048d573d6000803e3d6000fd5b505050506040513d601f19601f820116820180604052508101906104b19190611870565b6104e7576040517f500c44b400000000000000000000000000000000000000000000000000000000815260040160405180910390fd5b6104f88a8a8a8a8a8a8a8a8a610bd6565b5050505050505050505050565b600082826040516105179291906117b8565b6040519081900381207f5f6970c3000000000000000000000000000000000000000000000000000000008252915073ffffffffffffffffffffffffffffffffffffffff7f00000000000000000000000000000000000000000000000000000000000000001690635f6970c39061059b908b908b908b908b908b908990600401611892565b6020604051808303816000875af11580156105ba573d6000803e3d6000fd5b505050506040513d601f19601f820116820180604052508101906105de9190611870565b610614576040517f500c44b400000000000000000000000000000000000000000000000000000000815260040160405180910390fd5b610622878787878787610c08565b5050505050505050565b60018054610639906118d3565b80601f0160208091040260200160405190810160405280929190818152602001828054610665906118d3565b80156106b25780601f10610687576101008083540402835291602001916106b2565b820191906000526020600020905b81548152906001019060200180831161069557829003601f168201915b505050505081565b6000600360006107028787878080601f016020809104026020016040519081016040528093929190818152602001838380828437600092019190915250899250610d49915050565b815260208101919091526040016000205460ff1695945050505050565b60008054610639906118d3565b60006107708585858080601f016020809104026020016040519081016040528093929190818152602001838380828437600092019190915250879250610d49915050565b905061077b81610d7f565b428573ffffffffffffffffffffffffffffffffffffffff16827f75da59867bf5abe66d94fdeb60ac5a55f4801ea5128580a42d32cbd835ecfbb98787876040516107c793929190611926565b60405180910390a46107db85858585610e98565b505050505050565b600061087961082a8686868080601f016020809104026020016040519081016040528093929190818152602001838380828437600092019190915250889250610d49915050565b604080517f672972c619ec56f688503695fad0be72db018ab34394c45adb4c8e5b29418cc760208083019190915281830193909352815180820383018152606090910190915280519101205490565b95945050505050565b60025473ffffffffffffffffffffffffffffffffffffffff1633146108d3576040517fea8e4eb500000000000000000000000000000000000000000000000000000000815260040160405180910390fd5b60006109178585858080601f016020809104026020016040519081016040528093929190818152602001838380828437600092019190915250879250610d49915050565b60008181526003602052604090205490915060ff16610962576040517fc19f17a900000000000000000000000000000000000000000000000000000000815260040160405180910390fd5b6000818152600360205260409081902080547fffffffffffffffffffffffffffffffffffffffffffffffffffffffffffffff001690555173ffffffffffffffffffffffffffffffffffffffff86169082907faccce5ece926e368460a9df5e6696b2b553b6573a9dbde76d4febe3de4dbe8bc906109e490889088908890611926565b60405180910390a36107db85858585610e98565b60025473ffffffffffffffffffffffffffffffffffffffff163314610a49576040517fea8e4eb500000000000000000000000000000000000000000000000000000000815260040160405180910390fd5b73ffffffffffffffffffffffffffffffffffffffff8116610a96576040517fc2bd570700000000000000000000000000000000000000000000000000000000815260040160405180910390fd5b60025460405173ffffffffffffffffffffffffffffffffffffffff8084169216907f32911a2d59a9d4c952ec2065ce8e1f0ff57dc6c63e9e80e97cbe39a1c4d1254f90600090a3600280547fffffffffffffffffffffffff00000000000000000000000000000000000000001673ffffffffffffffffffffffffffffffffffffffff92909216919091179055565b333014610b5d576040517f29c3b7ee00000000000000000000000000000000000000000000000000000000815260040160405180910390fd5b610b7d73ffffffffffffffffffffffffffffffffffffffff831682610ff8565b5050565b604080517f672972c619ec56f688503695fad0be72db018ab34394c45adb4c8e5b29418cc760208083019190915281830184905282518083038401815260609092019092528051910120546000905b92915050565b6040517f3dd1b30500000000000000000000000000000000000000000000000000000000815260040160405180910390fd5b858585857f00000000000000000000000000000000000000000000000000000000000000008484604051610c3d9291906117b8565b6040518091039020141580610c8957507f00000000000000000000000000000000000000000000000000000000000000008282604051610c7e9291906117b8565b604051809103902014155b15610cc0576040517fb56f932c00000000000000000000000000000000000000000000000000000000815260040160405180910390fd5b600080808080610cd28a8c018c611979565b93985091965094509250905073ffffffffffffffffffffffffffffffffffffffff8416610d2b576040517f82d5d76a00000000000000000000000000000000000000000000000000000000815260040160405180910390fd5b610d388585858585611042565b505050505050505050505050505050565b6000838383604051602001610d6093929190611a76565b6040516020818303038152906040528051906020012090509392505050565b604080517f672972c619ec56f688503695fad0be72db018ab34394c45adb4c8e5b29418cc76020808301919091528183018490528251808303840181526060909201909252805191012054811580610dd5575080155b15610e0c576040517f0f40322b00000000000000000000000000000000000000000000000000000000815260040160405180910390fd5b80421015610e46576040517f4019a5d300000000000000000000000000000000000000000000000000000000815260040160405180910390fd5b604080517f672972c619ec56f688503695fad0be72db018ab34394c45adb4c8e5b29418cc760208083019190915281830185905282518083038401815260609092019092528051910120600090555050565b6060610eb98573ffffffffffffffffffffffffffffffffffffffff1661126f565b610f0b576040517fec01648400000000000000000000000000000000000000000000000000000000815273ffffffffffffffffffffffffffffffffffffffff8616600482015260240160405180910390fd5b47821115610f45576040517ff4d678b800000000000000000000000000000000000000000000000000000000815260040160405180910390fd5b6000808673ffffffffffffffffffffffffffffffffffffffff16848787604051610f709291906117b8565b60006040518083038185875af1925050503d8060008114610fad576040519150601f19603f3d011682016040523d82523d6000602084013e610fb2565b606091505b509150915081610fee576040517facfdb44400000000000000000000000000000000000000000000000000000000815260040160405180910390fd5b9695505050505050565b600080600080600085875af190508061103d576040517ff4b3b1bc00000000000000000000000000000000000000000000000000000000815260040160405180910390fd5b505050565b600061104f858585610d49565b9050856110ba5761106081836112bf565b9150818573ffffffffffffffffffffffffffffffffffffffff16827fe30ae8e631edafb973a80848898efd2d198f99e515a4e26d8a24e95742d3599187876040516110ac929190611ab5565b60405180910390a450611268565b60018603611115576110cb8161140b565b818573ffffffffffffffffffffffffffffffffffffffff16827fa154e9e339a72c35f5b279134b38ba1605aff3fc3919f5319d5a27943efb977187876040516110ac929190611ab5565b600286036111ae576000818152600360205260409081902080547fffffffffffffffffffffffffffffffffffffffffffffffffffffffffffffff001660011790555173ffffffffffffffffffffffffffffffffffffffff86169082907f48fb04548cea6ae752d7a11ea33e1b018b29a869e6e4d54a68b05db592654c23906111a09088908890611ab5565b60405180910390a350611268565b60038603611236576000818152600360205260409081902080547fffffffffffffffffffffffffffffffffffffffffffffffffffffffffffffff001690555173ffffffffffffffffffffffffffffffffffffffff86169082907f01626c43eed47a376b71a053125ac7e218e7624a0bd74211dc26c8ca3ec49d2a906111a09088908890611ab5565b6040517f12f269e500000000000000000000000000000000000000000000000000000000815260040160405180910390fd5b5050505050565b600073ffffffffffffffffffffffffffffffffffffffff82163f80158015906112b857507fc5d2460186f7233c927e7db2dcc703c0e500b653ca82273b7bfad8045d85a4708114155b9392505050565b60008281036112fa576040517f0f40322b00000000000000000000000000000000000000000000000000000000815260040160405180910390fd5b604080517f672972c619ec56f688503695fad0be72db018ab34394c45adb4c8e5b29418cc760208083019190915281830186905282518083038401815260609092019092528051910120541561137c576040517f1a02d58400000000000000000000000000000000000000000000000000000000815260040160405180910390fd5b60006113a87f000000000000000000000000000000000000000000000000000000000000000042611ad7565b9050808310156113b6578092505b604080517f672972c619ec56f688503695fad0be72db018ab34394c45adb4c8e5b29418cc760208083019190915281830187905282518083038401815260609092019092528051910120839055509092915050565b6000819003611446576040517f0f40322b00000000000000000000000000000000000000000000000000000000815260040160405180910390fd5b604080517f672972c619ec56f688503695fad0be72db018ab34394c45adb4c8e5b29418cc7602080830191909152818301849052825180830384018152606090920190925280519101206000905550565b50565b60008083601f8401126114ac57600080fd5b50813567ffffffffffffffff8111156114c457600080fd5b6020830191508360208285010111156114dc57600080fd5b9250929050565b60008060008060008060008060008060c08b8d03121561150257600080fd5b8a35995060208b013567ffffffffffffffff8082111561152157600080fd5b61152d8e838f0161149a565b909b50995060408d013591508082111561154657600080fd5b6115528e838f0161149a565b909950975060608d013591508082111561156b57600080fd5b6115778e838f0161149a565b909750955060808d013591508082111561159057600080fd5b5061159d8d828e0161149a565b9150809450508092505060a08b013590509295989b9194979a5092959850565b60008060008060008060006080888a0312156115d857600080fd5b87359650602088013567ffffffffffffffff808211156115f757600080fd5b6116038b838c0161149a565b909850965060408a013591508082111561161c57600080fd5b6116288b838c0161149a565b909650945060608a013591508082111561164157600080fd5b5061164e8a828b0161149a565b989b979a50959850939692959293505050565b6000815180845260005b818110156116875760208185018101518683018201520161166b565b5060006020828601015260207fffffffffffffffffffffffffffffffffffffffffffffffffffffffffffffffe0601f83011685010191505092915050565b6020815260006112b86020830184611661565b73ffffffffffffffffffffffffffffffffffffffff8116811461149757600080fd5b6000806000806060858703121561171057600080fd5b843561171b816116d8565b9350602085013567ffffffffffffffff81111561173757600080fd5b6117438782880161149a565b9598909750949560400135949350505050565b60006020828403121561176857600080fd5b5035919050565b60006020828403121561178157600080fd5b81356112b8816116d8565b6000806040838503121561179f57600080fd5b82356117aa816116d8565b946020939093013593505050565b8183823760009101908152919050565b8183528181602085013750600060208284010152600060207fffffffffffffffffffffffffffffffffffffffffffffffffffffffffffffffe0601f840116840101905092915050565b89815260c06020820152600061182b60c083018a8c6117c8565b828103604084015261183e81898b6117c8565b905086606084015282810360808401526118598186886117c8565b9150508260a08301529a9950505050505050505050565b60006020828403121561188257600080fd5b815180151581146112b857600080fd5b8681526080602082015260006118ac6080830187896117c8565b82810360408401526118bf8186886117c8565b915050826060830152979650505050505050565b600181811c908216806118e757607f821691505b602082108103611920577f4e487b7100000000000000000000000000000000000000000000000000000000600052602260045260246000fd5b50919050565b60408152600061193a6040830185876117c8565b9050826020830152949350505050565b7f4e487b7100000000000000000000000000000000000000000000000000000000600052604160045260246000fd5b600080600080600060a0868803121561199157600080fd5b8535945060208601356119a3816116d8565b9350604086013567ffffffffffffffff808211156119c057600080fd5b818801915088601f8301126119d457600080fd5b8135818111156119e6576119e661194a565b604051601f82017fffffffffffffffffffffffffffffffffffffffffffffffffffffffffffffffe0908116603f01168101908382118183101715611a2c57611a2c61194a565b816040528281528b6020848701011115611a4557600080fd5b8260208601602083013760009281016020019290925250969995985095966060810135965060800135949350505050565b73ffffffffffffffffffffffffffffffffffffffff84168152606060208201526000611aa56060830185611661565b9050826040830152949350505050565b604081526000611ac86040830185611661565b90508260208301529392505050565b80820180821115610bd0577f4e487b7100000000000000000000000000000000000000000000000000000000600052601160045260246000fdfea2646970667358221220d511f901de624efa7a7ef2a3b087ec0a9cef0e5ec2cbaa3fdeeaebf1420b5b4e64736f6c63430008170033",
  "linkReferences": {},
  "deployedLinkReferences": {}
}