{
  "_format": "hh-sol-artifact-1",
  "contractName": "AxelarAmplifierAuth",
  "sourceName": "contracts/gateway/AxelarAmplifierAuth.sol",
  "abi": [
    {
      "inputs": [
        {
          "internalType": "address",
          "name": "owner_",
          "type": "address"
        },
        {
          "internalType": "uint256",
          "name": "previousSignersRetention_",
          "type": "uint256"
        },
        {
          "internalType": "bytes32",
          "name": "domainSeparator_",
          "type": "bytes32"
        },
        {
          "components": [
            {
              "components": [
                {
                  "internalType": "address",
                  "name": "signer",
                  "type": "address"
                },
                {
                  "internalType": "uint128",
                  "name": "weight",
                  "type": "uint128"
                }
              ],
              "internalType": "struct WeightedSigner[]",
              "name": "signers",
              "type": "tuple[]"
            },
            {
              "internalType": "uint128",
              "name": "threshold",
              "type": "uint128"
            },
            {
              "internalType": "bytes32",
              "name": "nonce",
              "type": "bytes32"
            }
          ],
          "internalType": "struct WeightedSigners",
          "name": "initialSigners",
          "type": "tuple"
        }
      ],
      "stateMutability": "nonpayable",
      "type": "constructor"
    },
    {
      "inputs": [],
      "name": "InvalidOwner",
      "type": "error"
    },
    {
      "inputs": [],
      "name": "InvalidOwnerAddress",
      "type": "error"
    },
    {
      "inputs": [],
      "name": "InvalidS",
      "type": "error"
    },
    {
      "inputs": [],
      "name": "InvalidSignature",
      "type": "error"
    },
    {
      "inputs": [],
      "name": "InvalidSignatureLength",
      "type": "error"
    },
    {
      "inputs": [],
      "name": "InvalidSigners",
      "type": "error"
    },
    {
      "inputs": [],
      "name": "InvalidThreshold",
      "type": "error"
    },
    {
      "inputs": [],
      "name": "InvalidV",
      "type": "error"
    },
    {
      "inputs": [],
      "name": "InvalidWeights",
      "type": "error"
    },
    {
      "inputs": [],
      "name": "LowSignaturesWeight",
      "type": "error"
    },
    {
      "inputs": [],
      "name": "MalformedSignatures",
      "type": "error"
    },
    {
      "inputs": [],
      "name": "NotOwner",
      "type": "error"
    },
    {
      "anonymous": false,
      "inputs": [
        {
          "indexed": true,
          "internalType": "address",
          "name": "newOwner",
          "type": "address"
        }
      ],
      "name": "OwnershipTransferStarted",
      "type": "event"
    },
    {
      "anonymous": false,
      "inputs": [
        {
          "indexed": true,
          "internalType": "address",
          "name": "newOwner",
          "type": "address"
        }
      ],
      "name": "OwnershipTransferred",
      "type": "event"
    },
    {
      "anonymous": false,
      "inputs": [
        {
          "indexed": true,
          "internalType": "uint256",
          "name": "epoch",
          "type": "uint256"
        },
        {
          "indexed": true,
          "internalType": "bytes32",
          "name": "signersHash",
          "type": "bytes32"
        },
        {
          "indexed": false,
          "internalType": "bytes",
          "name": "signers",
          "type": "bytes"
        }
      ],
      "name": "SignersRotated",
      "type": "event"
    },
    {
      "inputs": [],
      "name": "acceptOwnership",
      "outputs": [],
      "stateMutability": "nonpayable",
      "type": "function"
    },
    {
      "inputs": [],
      "name": "domainSeparator",
      "outputs": [
        {
          "internalType": "bytes32",
          "name": "",
          "type": "bytes32"
        }
      ],
      "stateMutability": "view",
      "type": "function"
    },
    {
      "inputs": [],
      "name": "epoch",
      "outputs": [
        {
          "internalType": "uint256",
          "name": "",
          "type": "uint256"
        }
      ],
      "stateMutability": "view",
      "type": "function"
    },
    {
      "inputs": [
        {
          "internalType": "bytes32",
          "name": "signerHash",
          "type": "bytes32"
        }
      ],
      "name": "epochBySignerHash",
      "outputs": [
        {
          "internalType": "uint256",
          "name": "",
          "type": "uint256"
        }
      ],
      "stateMutability": "view",
      "type": "function"
    },
    {
      "inputs": [
        {
          "internalType": "bytes32",
          "name": "signersHash",
          "type": "bytes32"
        },
        {
          "internalType": "bytes32",
          "name": "dataHash",
          "type": "bytes32"
        }
      ],
      "name": "messageHashToSign",
      "outputs": [
        {
          "internalType": "bytes32",
          "name": "",
          "type": "bytes32"
        }
      ],
      "stateMutability": "view",
      "type": "function"
    },
    {
      "inputs": [],
      "name": "owner",
      "outputs": [
        {
          "internalType": "address",
          "name": "owner_",
          "type": "address"
        }
      ],
      "stateMutability": "view",
      "type": "function"
    },
    {
      "inputs": [],
      "name": "pendingOwner",
      "outputs": [
        {
          "internalType": "address",
          "name": "owner_",
          "type": "address"
        }
      ],
      "stateMutability": "view",
      "type": "function"
    },
    {
      "inputs": [],
      "name": "previousSignersRetention",
      "outputs": [
        {
          "internalType": "uint256",
          "name": "",
          "type": "uint256"
        }
      ],
      "stateMutability": "view",
      "type": "function"
    },
    {
      "inputs": [
        {
          "internalType": "address",
          "name": "newOwner",
          "type": "address"
        }
      ],
      "name": "proposeOwnership",
      "outputs": [],
      "stateMutability": "nonpayable",
      "type": "function"
    },
    {
      "inputs": [
        {
          "components": [
            {
              "components": [
                {
                  "internalType": "address",
                  "name": "signer",
                  "type": "address"
                },
                {
                  "internalType": "uint128",
                  "name": "weight",
                  "type": "uint128"
                }
              ],
              "internalType": "struct WeightedSigner[]",
              "name": "signers",
              "type": "tuple[]"
            },
            {
              "internalType": "uint128",
              "name": "threshold",
              "type": "uint128"
            },
            {
              "internalType": "bytes32",
              "name": "nonce",
              "type": "bytes32"
            }
          ],
          "internalType": "struct WeightedSigners",
          "name": "newSigners",
          "type": "tuple"
        }
      ],
      "name": "rotateSigners",
      "outputs": [],
      "stateMutability": "nonpayable",
      "type": "function"
    },
    {
      "inputs": [
        {
          "internalType": "uint256",
          "name": "signerEpoch",
          "type": "uint256"
        }
      ],
      "name": "signerHashByEpoch",
      "outputs": [
        {
          "internalType": "bytes32",
          "name": "",
          "type": "bytes32"
        }
      ],
      "stateMutability": "view",
      "type": "function"
    },
    {
      "inputs": [
        {
          "internalType": "address",
          "name": "newOwner",
          "type": "address"
        }
      ],
      "name": "transferOwnership",
      "outputs": [],
      "stateMutability": "nonpayable",
      "type": "function"
    },
    {
      "inputs": [
        {
          "internalType": "bytes32",
          "name": "dataHash",
          "type": "bytes32"
        },
        {
          "components": [
            {
              "components": [
                {
                  "components": [
                    {
                      "internalType": "address",
                      "name": "signer",
                      "type": "address"
                    },
                    {
                      "internalType": "uint128",
                      "name": "weight",
                      "type": "uint128"
                    }
                  ],
                  "internalType": "struct WeightedSigner[]",
                  "name": "signers",
                  "type": "tuple[]"
                },
                {
                  "internalType": "uint128",
                  "name": "threshold",
                  "type": "uint128"
                },
                {
                  "internalType": "bytes32",
                  "name": "nonce",
                  "type": "bytes32"
                }
              ],
              "internalType": "struct WeightedSigners",
              "name": "signers",
              "type": "tuple"
            },
            {
              "internalType": "bytes[]",
              "name": "signatures",
              "type": "bytes[]"
            }
          ],
          "internalType": "struct Proof",
          "name": "proof",
          "type": "tuple"
        }
      ],
      "name": "validateProof",
      "outputs": [
        {
          "internalType": "bool",
          "name": "isLatestSigners",
          "type": "bool"
        }
      ],
      "stateMutability": "view",
      "type": "function"
    }
  ],
  "bytecode": "0x60c06040523480156200001157600080fd5b5060405162001d8438038062001d848339810160408190526200003491620003e2565b828285620000428162000061565b5060809190915260a052620000578162000105565b505050506200065e565b6001600160a01b0381166200008957604051633649397d60e21b815260040160405180910390fd5b6040516001600160a01b038216907f04dba622d284ed0014ee4b9a6a68386be1a4c08a4913ae272de89199cc68616390600090a27f02016836a56b71f0d02689e69e326f4f4c1b9057164ef592671cf0d37c8040c05560007f9855384122b55936fbfb8ca5120e63c6537a1ac40caf6ae33502b3c5da8c87d155565b7f457f3fc26bf430b020fe76358b1bfaba57e1657ace718da6437cda9934eabfe86200013182620001e3565b6000826040516020016200014691906200053f565b60408051601f198184030181529190528051602082012083549192509060009062000173906001620005cf565b80855560008181526001860160209081526040808320869055858352600288019091529081902082905551909150829082907fe7cf1d3405bd906f8500af030e1130f3affbe991be73471a0d3983fe3ca61ebc90620001d4908790620005f7565b60405180910390a35050505050565b8051805160008181036200020a57604051635e231fff60e01b815260040160405180910390fd5b6000805b83811015620002c85760008582815181106200022e576200022e62000648565b60200260200101519050600081600001519050806001600160a01b0316846001600160a01b0316106200027457604051635e231fff60e01b815260040160405180910390fd5b809350600082602001516001600160801b0316905080600003620002ab5760405163108cef9d60e31b815260040160405180910390fd5b620002b78187620005cf565b95505050508060010190506200020e565b5060208501516001600160801b0381161580620002ed5750806001600160801b031683105b156200030c5760405163aabd5a0960e01b815260040160405180910390fd5b505050505050565b80516001600160a01b03811681146200032c57600080fd5b919050565b634e487b7160e01b600052604160045260246000fd5b604051606081016001600160401b03811182821017156200036c576200036c62000331565b60405290565b604080519081016001600160401b03811182821017156200036c576200036c62000331565b604051601f8201601f191681016001600160401b0381118282101715620003c257620003c262000331565b604052919050565b80516001600160801b03811681146200032c57600080fd5b60008060008060808587031215620003f957600080fd5b620004048562000314565b935060208086015193506040808701519350606087015160018060401b03808211156200043057600080fd5b908801906060828b0312156200044557600080fd5b6200044f62000347565b8251828111156200045f57600080fd5b8301601f81018c136200047157600080fd5b80518381111562000486576200048662000331565b62000496878260051b0162000397565b818152878101945060069190911b82018701908d821115620004b757600080fd5b918701915b818310156200050e5786838f031215620004d65760008081fd5b620004e062000372565b620004eb8462000314565b8152620004fa898501620003ca565b818a015285529387019391860191620004bc565b835250620005209050838601620003ca565b8582015260408301516040820152809550505050505092959194509250565b6020808252825160608383015280516080840181905260009291820190839060a08601905b80831015620005a357835180516001600160a01b031683528501516001600160801b031685830152928401926001929092019160409091019062000564565b50928601516001600160801b038116604087015292604087015160608701528094505050505092915050565b80820180821115620005f157634e487b7160e01b600052601160045260246000fd5b92915050565b60006020808352835180602085015260005b81811015620006275785810183015185820160400152820162000609565b506000604082860101526040601f19601f8301168501019250505092915050565b634e487b7160e01b600052603260045260246000fd5b60805160a0516116eb620006996000396000818161029d015281816102f8015261073e0152600081816101ba01526106ac01526116eb6000f3fe608060405234801561001057600080fd5b50600436106100df5760003560e01c80638da5cb5b1161008c578063e30c397811610066578063e30c39781461025e578063f2fde38b14610285578063f698da2514610298578063fd721b47146102bf57600080fd5b80638da5cb5b146101dc578063900cf0cf14610224578063d34636a51461024b57600080fd5b8063710bf322116100bd578063710bf3221461019857806379ba5097146101ad5780638c212aa5146101b557600080fd5b8063116399e4146100e457806322c9eea81461010c5780636f9badf414610159575b600080fd5b6100f76100f2366004610f3b565b61034e565b60405190151581526020015b60405180910390f35b61014b61011a366004610f89565b60009081527f457f3fc26bf430b020fe76358b1bfaba57e1657ace718da6437cda9934eabfea602052604090205490565b604051908152602001610103565b61014b610167366004610f89565b60009081527f457f3fc26bf430b020fe76358b1bfaba57e1657ace718da6437cda9934eabfe9602052604090205490565b6101ab6101a6366004610fcb565b610363565b005b6101ab61048b565b61014b7f000000000000000000000000000000000000000000000000000000000000000081565b7f02016836a56b71f0d02689e69e326f4f4c1b9057164ef592671cf0d37c8040c0545b60405173ffffffffffffffffffffffffffffffffffffffff9091168152602001610103565b7f457f3fc26bf430b020fe76358b1bfaba57e1657ace718da6437cda9934eabfe85461014b565b6101ab610259366004610fe6565b610512565b7f9855384122b55936fbfb8ca5120e63c6537a1ac40caf6ae33502b3c5da8c87d1546101ff565b6101ab610293366004610fcb565b610599565b61014b7f000000000000000000000000000000000000000000000000000000000000000081565b61014b6102cd366004611028565b6040517f19457468657265756d205369676e6564204d6573736167653a0a39360000000060208201527f0000000000000000000000000000000000000000000000000000000000000000603c820152605c8101839052607c8101829052600090609c0160405160208183030381529060405280519060200120905092915050565b600061035a838361060f565b90505b92915050565b3361038c7f02016836a56b71f0d02689e69e326f4f4c1b9057164ef592671cf0d37c8040c05490565b73ffffffffffffffffffffffffffffffffffffffff16146103d9576040517f30cd747100000000000000000000000000000000000000000000000000000000815260040160405180910390fd5b73ffffffffffffffffffffffffffffffffffffffff8116610426576040517fd924e5f400000000000000000000000000000000000000000000000000000000815260040160405180910390fd5b60405173ffffffffffffffffffffffffffffffffffffffff8216907fd9be0e8e07417e00f2521db636cb53e316fd288f5051f16d2aa2bf0c3938a87690600090a27f9855384122b55936fbfb8ca5120e63c6537a1ac40caf6ae33502b3c5da8c87d155565b60006104b57f9855384122b55936fbfb8ca5120e63c6537a1ac40caf6ae33502b3c5da8c87d15490565b905073ffffffffffffffffffffffffffffffffffffffff81163314610506576040517f49e27cff00000000000000000000000000000000000000000000000000000000815260040160405180910390fd5b61050f816107ab565b50565b3361053b7f02016836a56b71f0d02689e69e326f4f4c1b9057164ef592671cf0d37c8040c05490565b73ffffffffffffffffffffffffffffffffffffffff1614610588576040517f30cd747100000000000000000000000000000000000000000000000000000000815260040160405180910390fd5b61050f61059482611134565b610881565b336105c27f02016836a56b71f0d02689e69e326f4f4c1b9057164ef592671cf0d37c8040c05490565b73ffffffffffffffffffffffffffffffffffffffff1614610506576040517f30cd747100000000000000000000000000000000000000000000000000000000815260040160405180910390fd5b60007f457f3fc26bf430b020fe76358b1bfaba57e1657ace718da6437cda9934eabfe83661063d8480611232565b90506000816040516020016106529190611270565b604080517fffffffffffffffffffffffffffffffffffffffffffffffffffffffffffffffe0818403018152918152815160209283012060008181526002870190935291205484548082149650919250908115806106d757507f00000000000000000000000000000000000000000000000000000000000000006106d583836113b7565b115b1561070e576040517f5e231fff00000000000000000000000000000000000000000000000000000000815260040160405180910390fd5b604080517f19457468657265756d205369676e6564204d6573736167653a0a3936000000006020808301919091527f0000000000000000000000000000000000000000000000000000000000000000603c830152605c8201869052607c8083018c905283518084039091018152609c909201909252805191012061079f818661079a60208c018c6113ca565b610975565b50505050505092915050565b73ffffffffffffffffffffffffffffffffffffffff81166107f8576040517fd924e5f400000000000000000000000000000000000000000000000000000000815260040160405180910390fd5b60405173ffffffffffffffffffffffffffffffffffffffff8216907f04dba622d284ed0014ee4b9a6a68386be1a4c08a4913ae272de89199cc68616390600090a27f02016836a56b71f0d02689e69e326f4f4c1b9057164ef592671cf0d37c8040c05560007f9855384122b55936fbfb8ca5120e63c6537a1ac40caf6ae33502b3c5da8c87d155565b7f457f3fc26bf430b020fe76358b1bfaba57e1657ace718da6437cda9934eabfe86108ab82610bb1565b6000826040516020016108be9190611439565b604080517fffffffffffffffffffffffffffffffffffffffffffffffffffffffffffffffe0818403018152919052805160208201208354919250906000906109079060016114e6565b80855560008181526001860160209081526040808320869055858352600288019091529081902082905551909150829082907fe7cf1d3405bd906f8500af030e1130f3affbe991be73471a0d3983fe3ca61ebc906109669087906114f9565b60405180910390a35050505050565b3660006109828580611566565b909250905080836000808281036109c5576040517f203b225800000000000000000000000000000000000000000000000000000000815260040160405180910390fd5b60005b83811015610b78576000610a348c8b8b858181106109e8576109e86115ce565b90506020028101906109fa91906115fd565b8080601f016020809104026020016040519081016040528093929190818152602001838380828437600092019190915250610d6f92505050565b90505b8584108015610a995750878785818110610a5357610a536115ce565b610a699260206040909202019081019150610fcb565b73ffffffffffffffffffffffffffffffffffffffff168173ffffffffffffffffffffffffffffffffffffffff1614155b15610aae57610aa784611662565b9350610a37565b858403610ae7576040517f186f8a7200000000000000000000000000000000000000000000000000000000815260040160405180910390fd5b878785818110610af957610af96115ce565b9050604002016020016020810190610b11919061169a565b610b2d906fffffffffffffffffffffffffffffffff16846114e6565b9250610b3f60408c0160208d0161169a565b6fffffffffffffffffffffffffffffffff168310610b64575050505050505050610bab565b610b6d84611662565b9350506001016109c8565b506040517f203b225800000000000000000000000000000000000000000000000000000000815260040160405180910390fd5b50505050565b805180516000818103610bf0576040517f5e231fff00000000000000000000000000000000000000000000000000000000815260040160405180910390fd5b6000805b83811015610cfa576000858281518110610c1057610c106115ce565b602002602001015190506000816000015190508073ffffffffffffffffffffffffffffffffffffffff168473ffffffffffffffffffffffffffffffffffffffff1610610c88576040517f5e231fff00000000000000000000000000000000000000000000000000000000815260040160405180910390fd5b809350600082602001516fffffffffffffffffffffffffffffffff16905080600003610ce0576040517f84677ce800000000000000000000000000000000000000000000000000000000815260040160405180910390fd5b610cea81876114e6565b9550505050806001019050610bf4565b5060208501516fffffffffffffffffffffffffffffffff81161580610d305750806fffffffffffffffffffffffffffffffff1683105b15610d67576040517faabd5a0900000000000000000000000000000000000000000000000000000000815260040160405180910390fd5b505050505050565b60008151604114610dac576040517f4be6321b00000000000000000000000000000000000000000000000000000000815260040160405180910390fd5b60208201516040830151606084015160001a7f7fffffffffffffffffffffffffffffff5d576e7357a4501ddfe92f46681b20a0821115610e18576040517f40c1e74800000000000000000000000000000000000000000000000000000000815260040160405180910390fd5b8060ff16601b14158015610e3057508060ff16601c14155b15610e67576040517f119bce3900000000000000000000000000000000000000000000000000000000815260040160405180910390fd5b60408051600081526020810180835288905260ff831691810191909152606081018490526080810183905260019060a0016020604051602081039080840390855afa158015610eba573d6000803e3d6000fd5b50506040517fffffffffffffffffffffffffffffffffffffffffffffffffffffffffffffffe0015194505073ffffffffffffffffffffffffffffffffffffffff8416610f32576040517f8baa579f00000000000000000000000000000000000000000000000000000000815260040160405180910390fd5b50505092915050565b60008060408385031215610f4e57600080fd5b82359150602083013567ffffffffffffffff811115610f6c57600080fd5b830160408186031215610f7e57600080fd5b809150509250929050565b600060208284031215610f9b57600080fd5b5035919050565b803573ffffffffffffffffffffffffffffffffffffffff81168114610fc657600080fd5b919050565b600060208284031215610fdd57600080fd5b61035a82610fa2565b600060208284031215610ff857600080fd5b813567ffffffffffffffff81111561100f57600080fd5b82016060818503121561102157600080fd5b9392505050565b6000806040838503121561103b57600080fd5b50508035926020909101359150565b7f4e487b7100000000000000000000000000000000000000000000000000000000600052604160045260246000fd5b6040516060810167ffffffffffffffff8111828210171561109c5761109c61104a565b60405290565b6040805190810167ffffffffffffffff8111828210171561109c5761109c61104a565b604051601f82017fffffffffffffffffffffffffffffffffffffffffffffffffffffffffffffffe016810167ffffffffffffffff8111828210171561110c5761110c61104a565b604052919050565b80356fffffffffffffffffffffffffffffffff81168114610fc657600080fd5b60006060823603121561114657600080fd5b61114e611079565b823567ffffffffffffffff8082111561116657600080fd5b9084019036601f83011261117957600080fd5b813560208282111561118d5761118d61104a565b61119b818360051b016110c5565b828152818101935060069290921b8401810191368311156111bb57600080fd5b938101935b8285101561120d57604085360312156111d95760008081fd5b6111e16110a2565b6111ea86610fa2565b81526111f7838701611114565b81840152845260409490940193928101926111c0565b855261121a878201611114565b90850152505050604092830135928101929092525090565b600082357fffffffffffffffffffffffffffffffffffffffffffffffffffffffffffffffa183360301811261126657600080fd5b9190910192915050565b600060208083526080830184357fffffffffffffffffffffffffffffffffffffffffffffffffffffffffffffffe18636030181126112ad57600080fd5b8501828101903567ffffffffffffffff8111156112c957600080fd5b8060061b36038213156112db57600080fd5b606086850152918290529060009060a086015b8183101561134b5773ffffffffffffffffffffffffffffffffffffffff61131485610fa2565b1681526fffffffffffffffffffffffffffffffff611333868601611114565b168186015260409384019360019390930192016112ee565b611356858901611114565b6fffffffffffffffffffffffffffffffff81166040890152945060408801356060880152809550505050505092915050565b7f4e487b7100000000000000000000000000000000000000000000000000000000600052601160045260246000fd5b8181038181111561035d5761035d611388565b60008083357fffffffffffffffffffffffffffffffffffffffffffffffffffffffffffffffe18436030181126113ff57600080fd5b83018035915067ffffffffffffffff82111561141a57600080fd5b6020019150600581901b360382131561143257600080fd5b9250929050565b6020808252825160608383015280516080840181905260009291820190839060a08601905b808310156114b1578351805173ffffffffffffffffffffffffffffffffffffffff1683528501516fffffffffffffffffffffffffffffffff1685830152928401926001929092019160409091019061145e565b50928601516fffffffffffffffffffffffffffffffff8116604087015292604087015160608701528094505050505092915050565b8082018082111561035d5761035d611388565b60006020808352835180602085015260005b818110156115275785810183015185820160400152820161150b565b5060006040828601015260407fffffffffffffffffffffffffffffffffffffffffffffffffffffffffffffffe0601f8301168501019250505092915050565b60008083357fffffffffffffffffffffffffffffffffffffffffffffffffffffffffffffffe184360301811261159b57600080fd5b83018035915067ffffffffffffffff8211156115b657600080fd5b6020019150600681901b360382131561143257600080fd5b7f4e487b7100000000000000000000000000000000000000000000000000000000600052603260045260246000fd5b60008083357fffffffffffffffffffffffffffffffffffffffffffffffffffffffffffffffe184360301811261163257600080fd5b83018035915067ffffffffffffffff82111561164d57600080fd5b60200191503681900382131561143257600080fd5b60007fffffffffffffffffffffffffffffffffffffffffffffffffffffffffffffffff820361169357611693611388565b5060010190565b6000602082840312156116ac57600080fd5b61035a8261111456fea2646970667358221220eb7c2080399f7d810da81ec3f24fbfae677e5e303db81132e25196023f7cda5d64736f6c63430008170033",
  "linkReferences": {},
  "deployedLinkReferences": {}
}