{
  "_format": "hh-sol-artifact-1",
  "contractName": "AxelarAmplifierGateway",
  "sourceName": "contracts/gateway/AxelarAmplifierGateway.sol",
  "abi": [
    {
      "inputs": [
        {
          "internalType": "uint256",
          "name": "previousSignersRetention_",
          "type": "uint256"
        },
        {
          "internalType": "bytes32",
          "name": "domainSeparator_",
          "type": "bytes32"
        }
      ],
      "stateMutability": "nonpayable",
      "type": "constructor"
    },
    {
      "inputs": [],
      "name": "AlreadyRotated",
      "type": "error"
    },
    {
      "inputs": [],
      "name": "InvalidCodeHash",
      "type": "error"
    },
    {
      "inputs": [],
      "name": "InvalidImplementation",
      "type": "error"
    },
    {
      "inputs": [],
      "name": "InvalidMessages",
      "type": "error"
    },
    {
      "inputs": [],
      "name": "InvalidOwner",
      "type": "error"
    },
    {
      "inputs": [],
      "name": "InvalidOwnerAddress",
      "type": "error"
    },
    {
      "inputs": [],
      "name": "InvalidS",
      "type": "error"
    },
    {
      "inputs": [],
      "name": "InvalidSignature",
      "type": "error"
    },
    {
      "inputs": [],
      "name": "InvalidSignatureLength",
      "type": "error"
    },
    {
      "inputs": [],
      "name": "InvalidSigners",
      "type": "error"
    },
    {
      "inputs": [],
      "name": "InvalidThreshold",
      "type": "error"
    },
    {
      "inputs": [],
      "name": "InvalidV",
      "type": "error"
    },
    {
      "inputs": [],
      "name": "InvalidWeights",
      "type": "error"
    },
    {
      "inputs": [],
      "name": "LowSignaturesWeight",
      "type": "error"
    },
    {
      "inputs": [],
      "name": "MalformedSignatures",
      "type": "error"
    },
    {
      "inputs": [],
      "name": "NotLatestSigners",
      "type": "error"
    },
    {
      "inputs": [],
      "name": "NotOwner",
      "type": "error"
    },
    {
      "inputs": [],
      "name": "NotProxy",
      "type": "error"
    },
    {
      "inputs": [],
      "name": "SetupFailed",
      "type": "error"
    },
    {
      "anonymous": false,
      "inputs": [
        {
          "indexed": true,
          "internalType": "address",
          "name": "sender",
          "type": "address"
        },
        {
          "indexed": false,
          "internalType": "string",
          "name": "destinationChain",
          "type": "string"
        },
        {
          "indexed": false,
          "internalType": "string",
          "name": "destinationContractAddress",
          "type": "string"
        },
        {
          "indexed": true,
          "internalType": "bytes32",
          "name": "payloadHash",
          "type": "bytes32"
        },
        {
          "indexed": false,
          "internalType": "bytes",
          "name": "payload",
          "type": "bytes"
        }
      ],
      "name": "ContractCall",
      "type": "event"
    },
    {
      "anonymous": false,
      "inputs": [
        {
          "indexed": true,
          "internalType": "bytes32",
          "name": "commandId",
          "type": "bytes32"
        },
        {
          "indexed": false,
          "internalType": "string",
          "name": "messageId",
          "type": "string"
        },
        {
          "indexed": false,
          "internalType": "string",
          "name": "sourceChain",
          "type": "string"
        },
        {
          "indexed": false,
          "internalType": "string",
          "name": "sourceAddress",
          "type": "string"
        },
        {
          "indexed": true,
          "internalType": "address",
          "name": "contractAddress",
          "type": "address"
        },
        {
          "indexed": true,
          "internalType": "bytes32",
          "name": "payloadHash",
          "type": "bytes32"
        }
      ],
      "name": "ContractCallApproved",
      "type": "event"
    },
    {
      "anonymous": false,
      "inputs": [
        {
          "indexed": true,
          "internalType": "bytes32",
          "name": "commandId",
          "type": "bytes32"
        }
      ],
      "name": "ContractCallExecuted",
      "type": "event"
    },
    {
      "anonymous": false,
      "inputs": [
        {
          "indexed": true,
          "internalType": "address",
          "name": "newOwner",
          "type": "address"
        }
      ],
      "name": "OwnershipTransferStarted",
      "type": "event"
    },
    {
      "anonymous": false,
      "inputs": [
        {
          "indexed": true,
          "internalType": "address",
          "name": "newOwner",
          "type": "address"
        }
      ],
      "name": "OwnershipTransferred",
      "type": "event"
    },
    {
      "anonymous": false,
      "inputs": [
        {
          "indexed": true,
          "internalType": "uint256",
          "name": "epoch",
          "type": "uint256"
        },
        {
          "indexed": true,
          "internalType": "bytes32",
          "name": "signersHash",
          "type": "bytes32"
        },
        {
          "indexed": false,
          "internalType": "bytes",
          "name": "signers",
          "type": "bytes"
        }
      ],
      "name": "SignersRotated",
      "type": "event"
    },
    {
      "anonymous": false,
      "inputs": [
        {
          "indexed": true,
          "internalType": "address",
          "name": "newImplementation",
          "type": "address"
        }
      ],
      "name": "Upgraded",
      "type": "event"
    },
    {
      "inputs": [],
      "name": "acceptOwnership",
      "outputs": [],
      "stateMutability": "nonpayable",
      "type": "function"
    },
    {
      "inputs": [
        {
          "components": [
            {
              "internalType": "string",
              "name": "messageId",
              "type": "string"
            },
            {
              "internalType": "string",
              "name": "sourceChain",
              "type": "string"
            },
            {
              "internalType": "string",
              "name": "sourceAddress",
              "type": "string"
            },
            {
              "internalType": "address",
              "name": "contractAddress",
              "type": "address"
            },
            {
              "internalType": "bytes32",
              "name": "payloadHash",
              "type": "bytes32"
            }
          ],
          "internalType": "struct Message[]",
          "name": "messages",
          "type": "tuple[]"
        },
        {
          "components": [
            {
              "components": [
                {
                  "components": [
                    {
                      "internalType": "address",
                      "name": "signer",
                      "type": "address"
                    },
                    {
                      "internalType": "uint128",
                      "name": "weight",
                      "type": "uint128"
                    }
                  ],
                  "internalType": "struct WeightedSigner[]",
                  "name": "signers",
                  "type": "tuple[]"
                },
                {
                  "internalType": "uint128",
                  "name": "threshold",
                  "type": "uint128"
                },
                {
                  "internalType": "bytes32",
                  "name": "nonce",
                  "type": "bytes32"
                }
              ],
              "internalType": "struct WeightedSigners",
              "name": "signers",
              "type": "tuple"
            },
            {
              "internalType": "bytes[]",
              "name": "signatures",
              "type": "bytes[]"
            }
          ],
          "internalType": "struct Proof",
          "name": "proof",
          "type": "tuple"
        }
      ],
      "name": "approveMessages",
      "outputs": [],
      "stateMutability": "nonpayable",
      "type": "function"
    },
    {
      "inputs": [
        {
          "internalType": "string",
          "name": "destinationChain",
          "type": "string"
        },
        {
          "internalType": "string",
          "name": "destinationContractAddress",
          "type": "string"
        },
        {
          "internalType": "bytes",
          "name": "payload",
          "type": "bytes"
        }
      ],
      "name": "callContract",
      "outputs": [],
      "stateMutability": "nonpayable",
      "type": "function"
    },
    {
      "inputs": [],
      "name": "contractId",
      "outputs": [
        {
          "internalType": "bytes32",
          "name": "",
          "type": "bytes32"
        }
      ],
      "stateMutability": "pure",
      "type": "function"
    },
    {
      "inputs": [],
      "name": "domainSeparator",
      "outputs": [
        {
          "internalType": "bytes32",
          "name": "",
          "type": "bytes32"
        }
      ],
      "stateMutability": "view",
      "type": "function"
    },
    {
      "inputs": [],
      "name": "epoch",
      "outputs": [
        {
          "internalType": "uint256",
          "name": "",
          "type": "uint256"
        }
      ],
      "stateMutability": "view",
      "type": "function"
    },
    {
      "inputs": [
        {
          "internalType": "bytes32",
          "name": "signerHash",
          "type": "bytes32"
        }
      ],
      "name": "epochBySignerHash",
      "outputs": [
        {
          "internalType": "uint256",
          "name": "",
          "type": "uint256"
        }
      ],
      "stateMutability": "view",
      "type": "function"
    },
    {
      "inputs": [],
      "name": "implementation",
      "outputs": [
        {
          "internalType": "address",
          "name": "implementation_",
          "type": "address"
        }
      ],
      "stateMutability": "view",
      "type": "function"
    },
    {
      "inputs": [
        {
          "internalType": "bytes32",
          "name": "commandId",
          "type": "bytes32"
        }
      ],
      "name": "isCommandExecuted",
      "outputs": [
        {
          "internalType": "bool",
          "name": "",
          "type": "bool"
        }
      ],
      "stateMutability": "view",
      "type": "function"
    },
    {
      "inputs": [
        {
          "internalType": "bytes32",
          "name": "commandId",
          "type": "bytes32"
        },
        {
          "internalType": "string",
          "name": "sourceChain",
          "type": "string"
        },
        {
          "internalType": "string",
          "name": "sourceAddress",
          "type": "string"
        },
        {
          "internalType": "address",
          "name": "contractAddress",
          "type": "address"
        },
        {
          "internalType": "bytes32",
          "name": "payloadHash",
          "type": "bytes32"
        }
      ],
      "name": "isContractCallApproved",
      "outputs": [
        {
          "internalType": "bool",
          "name": "",
          "type": "bool"
        }
      ],
      "stateMutability": "view",
      "type": "function"
    },
    {
      "inputs": [
        {
          "internalType": "string",
          "name": "messageId",
          "type": "string"
        },
        {
          "internalType": "string",
          "name": "sourceChain",
          "type": "string"
        },
        {
          "internalType": "string",
          "name": "sourceAddress",
          "type": "string"
        },
        {
          "internalType": "address",
          "name": "contractAddress",
          "type": "address"
        },
        {
          "internalType": "bytes32",
          "name": "payloadHash",
          "type": "bytes32"
        }
      ],
      "name": "isMessageApproved",
      "outputs": [
        {
          "internalType": "bool",
          "name": "",
          "type": "bool"
        }
      ],
      "stateMutability": "view",
      "type": "function"
    },
    {
      "inputs": [
        {
          "internalType": "string",
          "name": "sourceChain",
          "type": "string"
        },
        {
          "internalType": "string",
          "name": "messageId",
          "type": "string"
        }
      ],
      "name": "isMessageExecuted",
      "outputs": [
        {
          "internalType": "bool",
          "name": "",
          "type": "bool"
        }
      ],
      "stateMutability": "view",
      "type": "function"
    },
    {
      "inputs": [
        {
          "internalType": "bytes32",
          "name": "signersHash",
          "type": "bytes32"
        },
        {
          "internalType": "bytes32",
          "name": "dataHash",
          "type": "bytes32"
        }
      ],
      "name": "messageHashToSign",
      "outputs": [
        {
          "internalType": "bytes32",
          "name": "",
          "type": "bytes32"
        }
      ],
      "stateMutability": "view",
      "type": "function"
    },
    {
      "inputs": [
        {
          "internalType": "string",
          "name": "sourceChain",
          "type": "string"
        },
        {
          "internalType": "string",
          "name": "messageId",
          "type": "string"
        }
      ],
      "name": "messageToCommandId",
      "outputs": [
        {
          "internalType": "bytes32",
          "name": "",
          "type": "bytes32"
        }
      ],
      "stateMutability": "pure",
      "type": "function"
    },
    {
      "inputs": [],
      "name": "owner",
      "outputs": [
        {
          "internalType": "address",
          "name": "owner_",
          "type": "address"
        }
      ],
      "stateMutability": "view",
      "type": "function"
    },
    {
      "inputs": [],
      "name": "pendingOwner",
      "outputs": [
        {
          "internalType": "address",
          "name": "owner_",
          "type": "address"
        }
      ],
      "stateMutability": "view",
      "type": "function"
    },
    {
      "inputs": [],
      "name": "previousSignersRetention",
      "outputs": [
        {
          "internalType": "uint256",
          "name": "",
          "type": "uint256"
        }
      ],
      "stateMutability": "view",
      "type": "function"
    },
    {
      "inputs": [
        {
          "internalType": "address",
          "name": "newOwner",
          "type": "address"
        }
      ],
      "name": "proposeOwnership",
      "outputs": [],
      "stateMutability": "nonpayable",
      "type": "function"
    },
    {
      "inputs": [
        {
          "components": [
            {
              "components": [
                {
                  "internalType": "address",
                  "name": "signer",
                  "type": "address"
                },
                {
                  "internalType": "uint128",
                  "name": "weight",
                  "type": "uint128"
                }
              ],
              "internalType": "struct WeightedSigner[]",
              "name": "signers",
              "type": "tuple[]"
            },
            {
              "internalType": "uint128",
              "name": "threshold",
              "type": "uint128"
            },
            {
              "internalType": "bytes32",
              "name": "nonce",
              "type": "bytes32"
            }
          ],
          "internalType": "struct WeightedSigners",
          "name": "newSigners",
          "type": "tuple"
        },
        {
          "components": [
            {
              "components": [
                {
                  "components": [
                    {
                      "internalType": "address",
                      "name": "signer",
                      "type": "address"
                    },
                    {
                      "internalType": "uint128",
                      "name": "weight",
                      "type": "uint128"
                    }
                  ],
                  "internalType": "struct WeightedSigner[]",
                  "name": "signers",
                  "type": "tuple[]"
                },
                {
                  "internalType": "uint128",
                  "name": "threshold",
                  "type": "uint128"
                },
                {
                  "internalType": "bytes32",
                  "name": "nonce",
                  "type": "bytes32"
                }
              ],
              "internalType": "struct WeightedSigners",
              "name": "signers",
              "type": "tuple"
            },
            {
              "internalType": "bytes[]",
              "name": "signatures",
              "type": "bytes[]"
            }
          ],
          "internalType": "struct Proof",
          "name": "proof",
          "type": "tuple"
        }
      ],
      "name": "rotateSigners",
      "outputs": [],
      "stateMutability": "nonpayable",
      "type": "function"
    },
    {
      "inputs": [
        {
          "internalType": "bytes",
          "name": "data",
          "type": "bytes"
        }
      ],
      "name": "setup",
      "outputs": [],
      "stateMutability": "nonpayable",
      "type": "function"
    },
    {
      "inputs": [
        {
          "internalType": "uint256",
          "name": "signerEpoch",
          "type": "uint256"
        }
      ],
      "name": "signerHashByEpoch",
      "outputs": [
        {
          "internalType": "bytes32",
          "name": "",
          "type": "bytes32"
        }
      ],
      "stateMutability": "view",
      "type": "function"
    },
    {
      "inputs": [
        {
          "internalType": "address",
          "name": "newOwner",
          "type": "address"
        }
      ],
      "name": "transferOwnership",
      "outputs": [],
      "stateMutability": "nonpayable",
      "type": "function"
    },
    {
      "inputs": [
        {
          "internalType": "address",
          "name": "newImplementation",
          "type": "address"
        },
        {
          "internalType": "bytes32",
          "name": "newImplementationCodeHash",
          "type": "bytes32"
        },
        {
          "internalType": "bytes",
          "name": "params",
          "type": "bytes"
        }
      ],
      "name": "upgrade",
      "outputs": [],
      "stateMutability": "nonpayable",
      "type": "function"
    },
    {
      "inputs": [
        {
          "internalType": "bytes32",
          "name": "commandId",
          "type": "bytes32"
        },
        {
          "internalType": "string",
          "name": "sourceChain",
          "type": "string"
        },
        {
          "internalType": "string",
          "name": "sourceAddress",
          "type": "string"
        },
        {
          "internalType": "bytes32",
          "name": "payloadHash",
          "type": "bytes32"
        }
      ],
      "name": "validateContractCall",
      "outputs": [
        {
          "internalType": "bool",
          "name": "valid",
          "type": "bool"
        }
      ],
      "stateMutability": "nonpayable",
      "type": "function"
    },
    {
      "inputs": [
        {
          "internalType": "string",
          "name": "messageId",
          "type": "string"
        },
        {
          "internalType": "string",
          "name": "sourceChain",
          "type": "string"
        },
        {
          "internalType": "string",
          "name": "sourceAddress",
          "type": "string"
        },
        {
          "internalType": "bytes32",
          "name": "payloadHash",
          "type": "bytes32"
        }
      ],
      "name": "validateMessage",
      "outputs": [
        {
          "internalType": "bool",
          "name": "valid",
          "type": "bool"
        }
      ],
      "stateMutability": "nonpayable",
      "type": "function"
    },
    {
      "inputs": [
        {
          "internalType": "bytes32",
          "name": "dataHash",
          "type": "bytes32"
        },
        {
          "components": [
            {
              "components": [
                {
                  "components": [
                    {
                      "internalType": "address",
                      "name": "signer",
                      "type": "address"
                    },
                    {
                      "internalType": "uint128",
                      "name": "weight",
                      "type": "uint128"
                    }
                  ],
                  "internalType": "struct WeightedSigner[]",
                  "name": "signers",
                  "type": "tuple[]"
                },
                {
                  "internalType": "uint128",
                  "name": "threshold",
                  "type": "uint128"
                },
                {
                  "internalType": "bytes32",
                  "name": "nonce",
                  "type": "bytes32"
                }
              ],
              "internalType": "struct WeightedSigners",
              "name": "signers",
              "type": "tuple"
            },
            {
              "internalType": "bytes[]",
              "name": "signatures",
              "type": "bytes[]"
            }
          ],
          "internalType": "struct Proof",
          "name": "proof",
          "type": "tuple"
        }
      ],
      "name": "validateProof",
      "outputs": [
        {
          "internalType": "bool",
          "name": "isLatestSigners",
          "type": "bool"
        }
      ],
      "stateMutability": "view",
      "type": "function"
    }
  ],
  "bytecode": "0x60e06040523480156200001157600080fd5b5060405162002e1538038062002e158339810160408190526200003491620000fc565b608082905260a081905260016200004b8162000058565b50503060c0525062000121565b6001600160a01b0381166200008057604051633649397d60e21b815260040160405180910390fd5b6040516001600160a01b038216907f04dba622d284ed0014ee4b9a6a68386be1a4c08a4913ae272de89199cc68616390600090a27f02016836a56b71f0d02689e69e326f4f4c1b9057164ef592671cf0d37c8040c05560007f9855384122b55936fbfb8ca5120e63c6537a1ac40caf6ae33502b3c5da8c87d155565b600080604083850312156200011057600080fd5b505080516020909101519092909150565b60805160a05160c051612caf6200016660003960006109b70152600081816104a50152818161051301526110120152600081816103560152610f800152612caf6000f3fe608060405234801561001057600080fd5b50600436106101ae5760003560e01c80638da5cb5b116100ee578063d26ff21011610097578063f2fde38b11610071578063f2fde38b1461048d578063f698da25146104a0578063f6a5f9f5146104c7578063fd721b47146104da57600080fd5b8063d26ff21014610412578063e30c397814610453578063f10bfaa11461047a57600080fd5b80639ded06df116100c85780639ded06df146103d9578063a3499c73146103ec578063cba5be6a146103ff57600080fd5b80638da5cb5b146103785780638f686dc41461039f578063900cf0cf146103b257600080fd5b80635f6970c31161015b578063710bf32211610135578063710bf3221461031057806379ba5097146103235780638291286c1461032b5780638c212aa51461035157600080fd5b80635f6970c3146102ab57806364f1d85a146102be5780636f9badf4146102d157600080fd5b806322c9eea81161018c57806322c9eea8146102035780632fbceb4f146102505780635c60da1b1461026357600080fd5b8063116399e4146101b35780631c92115f146101db5780631d92c0bf146101f0575b600080fd5b6101c66101c1366004611b80565b610569565b60405190151581526020015b60405180910390f35b6101ee6101e9366004611c10565b61057e565b005b6101ee6101fe366004611ed0565b6105f6565b610242610211366004611f2a565b60009081527f457f3fc26bf430b020fe76358b1bfaba57e1657ace718da6437cda9934eabfea602052604090205490565b6040519081526020016101d2565b61024261025e366004611f43565b61073f565b7f360894a13ba1a3210667c828492db98dca3e2076cc3735a920a3ca505d382bbc545b60405173ffffffffffffffffffffffffffffffffffffffff90911681526020016101d2565b6101c66102b9366004611faf565b610778565b6101ee6102cc366004612031565b610793565b6102426102df366004611f2a565b60009081527f457f3fc26bf430b020fe76358b1bfaba57e1657ace718da6437cda9934eabfe9602052604090205490565b6101ee61031e3660046120c8565b6107d7565b6101ee6108ff565b7fd10cce6f0e3f6dc9eb8280c32952dc6e4759d0519c550c55d0f8747d13a64bfd610242565b6102427f000000000000000000000000000000000000000000000000000000000000000081565b7f02016836a56b71f0d02689e69e326f4f4c1b9057164ef592671cf0d37c8040c054610286565b6101c66103ad3660046120e3565b610986565b7f457f3fc26bf430b020fe76358b1bfaba57e1657ace718da6437cda9934eabfe854610242565b6101ee6103e7366004612197565b6109b4565b6101ee6103fa3660046121d9565b610a31565b6101c661040d366004611f43565b610dd7565b6101c6610420366004611f2a565b60009081527f978b1ab9e384397ce0aab28eec0e3c25603b3210984045ad0e0f0a50d88cfc556020526040902054151590565b7f9855384122b55936fbfb8ca5120e63c6537a1ac40caf6ae33502b3c5da8c87d154610286565b6101c6610488366004612227565b610e24565b6101ee61049b3660046120c8565b610e50565b6102427f000000000000000000000000000000000000000000000000000000000000000081565b6101c66104d53660046122ca565b610ec6565b6102426104e836600461235e565b6040517f19457468657265756d205369676e6564204d6573736167653a0a39360000000060208201527f0000000000000000000000000000000000000000000000000000000000000000603c820152605c8101839052607c8101829052600090609c0160405160208183030381529060405280519060200120905092915050565b60006105758383610ee3565b90505b92915050565b818160405161058e929190612380565b60405180910390203373ffffffffffffffffffffffffffffffffffffffff167f30ae6cc78c27e651745bf2ad08a11de83910ac1e347a52f7ac898c0fbef94dae8888888888886040516105e6969594939291906123d9565b60405180910390a3505050505050565b600060018360405160200161060c9291906124f1565b60405160208183030381529060405280519060200120905061064b7fca458dc12368669a3b8c292bc21c1b887ab1aa386fa3fcc1ed972afd74a330ca90565b6000828152602091909152604090205460ff1615610695576040517fd7105add00000000000000000000000000000000000000000000000000000000815260040160405180910390fd5b60006106a18284610ee3565b9050806106da576040517f83efaec200000000000000000000000000000000000000000000000000000000815260040160405180910390fd5b60008281527fca458dc12368669a3b8c292bc21c1b887ab1aa386fa3fcc1ed972afd74a330ca6020526040902080547fffffffffffffffffffffffffffffffffffffffffffffffffffffffffffffff001660011790556107398461107f565b50505050565b6000848484846040516020016107589493929190612519565b604051602081830303815290604052805190602001209050949350505050565b6000610788878787878787611173565b979650505050505050565b60008084846040516020016107aa939291906125c4565b6040516020818303038152906040528051906020012090506107cc8183610ee3565b506107398484611223565b336108007f02016836a56b71f0d02689e69e326f4f4c1b9057164ef592671cf0d37c8040c05490565b73ffffffffffffffffffffffffffffffffffffffff161461084d576040517f30cd747100000000000000000000000000000000000000000000000000000000815260040160405180910390fd5b73ffffffffffffffffffffffffffffffffffffffff811661089a576040517fd924e5f400000000000000000000000000000000000000000000000000000000815260040160405180910390fd5b60405173ffffffffffffffffffffffffffffffffffffffff8216907fd9be0e8e07417e00f2521db636cb53e316fd288f5051f16d2aa2bf0c3938a87690600090a27f9855384122b55936fbfb8ca5120e63c6537a1ac40caf6ae33502b3c5da8c87d155565b60006109297f9855384122b55936fbfb8ca5120e63c6537a1ac40caf6ae33502b3c5da8c87d15490565b905073ffffffffffffffffffffffffffffffffffffffff8116331461097a576040517f49e27cff00000000000000000000000000000000000000000000000000000000815260040160405180910390fd5b610983816112ff565b50565b60008061099588888c8c61073f565b90506109a6818989898989896113d5565b9a9950505050505050505050565b307f000000000000000000000000000000000000000000000000000000000000000073ffffffffffffffffffffffffffffffffffffffff1603610a23576040517fbf10dd3a00000000000000000000000000000000000000000000000000000000815260040160405180910390fd5b610a2d8282611425565b5050565b33610a5a7f02016836a56b71f0d02689e69e326f4f4c1b9057164ef592671cf0d37c8040c05490565b73ffffffffffffffffffffffffffffffffffffffff1614610aa7576040517f30cd747100000000000000000000000000000000000000000000000000000000815260040160405180910390fd5b7f360894a13ba1a3210667c828492db98dca3e2076cc3735a920a3ca505d382bbc5473ffffffffffffffffffffffffffffffffffffffff16638291286c6040518163ffffffff1660e01b8152600401602060405180830381865afa158015610b13573d6000803e3d6000fd5b505050506040513d601f19601f82011682018060405250810190610b379190612711565b8473ffffffffffffffffffffffffffffffffffffffff16638291286c6040518163ffffffff1660e01b8152600401602060405180830381865afa158015610b82573d6000803e3d6000fd5b505050506040513d601f19601f82011682018060405250810190610ba69190612711565b14610bdd576040517f68155f9a00000000000000000000000000000000000000000000000000000000815260040160405180910390fd5b8373ffffffffffffffffffffffffffffffffffffffff163f8314610c2d576040517f8f84fb2400000000000000000000000000000000000000000000000000000000815260040160405180910390fd5b7f360894a13ba1a3210667c828492db98dca3e2076cc3735a920a3ca505d382bbc84905560405173ffffffffffffffffffffffffffffffffffffffff8516907fbc7cd75a20ee27fd9adebab32041f755214dbc6bffa90cc0225b39da2e5c2d3b90600090a280156107395760008473ffffffffffffffffffffffffffffffffffffffff16639ded06df60e01b8484604051602401610ccc92919061272a565b604080517fffffffffffffffffffffffffffffffffffffffffffffffffffffffffffffffe08184030181529181526020820180517bffffffffffffffffffffffffffffffffffffffffffffffffffffffff167fffffffff00000000000000000000000000000000000000000000000000000000909416939093179092529051610d559190612762565b600060405180830381855af49150503d8060008114610d90576040519150601f19603f3d011682016040523d82523d6000602084013e610d95565b606091505b5050905080610dd0576040517f97905dfb00000000000000000000000000000000000000000000000000000000815260040160405180910390fd5b5050505050565b600060017f978b1ab9e384397ce0aab28eec0e3c25603b3210984045ad0e0f0a50d88cfc556000610e0a8888888861073f565b815260200190815260200160002054149050949350505050565b600080610e3387878b8b61073f565b9050610e43818888888888611173565b9998505050505050505050565b33610e797f02016836a56b71f0d02689e69e326f4f4c1b9057164ef592671cf0d37c8040c05490565b73ffffffffffffffffffffffffffffffffffffffff161461097a576040517f30cd747100000000000000000000000000000000000000000000000000000000815260040160405180910390fd5b6000610ed7888888888888886113d5565b98975050505050505050565b60007f457f3fc26bf430b020fe76358b1bfaba57e1657ace718da6437cda9934eabfe836610f11848061277e565b9050600081604051602001610f2691906127b2565b604080517fffffffffffffffffffffffffffffffffffffffffffffffffffffffffffffffe081840301815291815281516020928301206000818152600287019093529120548454808214965091925090811580610fab57507f0000000000000000000000000000000000000000000000000000000000000000610fa983836128f9565b115b15610fe2576040517f5e231fff00000000000000000000000000000000000000000000000000000000815260040160405180910390fd5b604080517f19457468657265756d205369676e6564204d6573736167653a0a3936000000006020808301919091527f0000000000000000000000000000000000000000000000000000000000000000603c830152605c8201869052607c8083018c905283518084039091018152609c9092019092528051910120611073818661106e60208c018c61290c565b61146b565b50505050505092915050565b7f457f3fc26bf430b020fe76358b1bfaba57e1657ace718da6437cda9934eabfe86110a9826116a1565b6000826040516020016110bc9190612974565b604080517fffffffffffffffffffffffffffffffffffffffffffffffffffffffffffffffe081840301815291905280516020820120835491925090600090611105906001612987565b80855560008181526001860160209081526040808320869055858352600288019091529081902082905551909150829082907fe7cf1d3405bd906f8500af030e1130f3affbe991be73471a0d3983fe3ca61ebc9061116490879061299a565b60405180910390a35050505050565b6000806111858888888888338961185f565b60008981527f978b1ab9e384397ce0aab28eec0e3c25603b3210984045ad0e0f0a50d88cfc55602052604090205481149250905081156112185760008881527f978b1ab9e384397ce0aab28eec0e3c25603b3210984045ad0e0f0a50d88cfc556020526040808220600190555189917f91057b069763121972ce22b18b2f319b1520dd4c72f1f94a6395e81ceaf63f4191a25b509695505050505050565b80600081900361125f576040517f9d583fca00000000000000000000000000000000000000000000000000000000815260040160405180910390fd5b60005b81811015610739573684848381811061127d5761127d6129eb565b905060200281019061128f9190612a1a565b905060006112ad6112a36020840184612a4e565b61025e8580612a4e565b60008181527f978b1ab9e384397ce0aab28eec0e3c25603b3210984045ad0e0f0a50d88cfc556020526040902054909150156112ea5750506112f7565b6112f481836118a1565b50505b600101611262565b73ffffffffffffffffffffffffffffffffffffffff811661134c576040517fd924e5f400000000000000000000000000000000000000000000000000000000815260040160405180910390fd5b60405173ffffffffffffffffffffffffffffffffffffffff8216907f04dba622d284ed0014ee4b9a6a68386be1a4c08a4913ae272de89199cc68616390600090a27f02016836a56b71f0d02689e69e326f4f4c1b9057164ef592671cf0d37c8040c05560007f9855384122b55936fbfb8ca5120e63c6537a1ac40caf6ae33502b3c5da8c87d155565b6000806113e78989898989898961185f565b6000998a527f978b1ab9e384397ce0aab28eec0e3c25603b3210984045ad0e0f0a50d88cfc5560205260409099205490981498975050505050505050565b600061143382840184612ab3565b905060005b815181101561073957611463828281518110611456576114566129eb565b602002602001015161107f565b600101611438565b3660006114788580612b64565b909250905080836000808281036114bb576040517f203b225800000000000000000000000000000000000000000000000000000000815260040160405180910390fd5b60005b8381101561166e57600061152a8c8b8b858181106114de576114de6129eb565b90506020028101906114f09190612a4e565b8080601f01602080910402602001604051908101604052809392919081815260200183838082843760009201919091525061199c92505050565b90505b858410801561158f5750878785818110611549576115496129eb565b61155f92602060409092020190810191506120c8565b73ffffffffffffffffffffffffffffffffffffffff168173ffffffffffffffffffffffffffffffffffffffff1614155b156115a45761159d84612bcc565b935061152d565b8584036115dd576040517f186f8a7200000000000000000000000000000000000000000000000000000000815260040160405180910390fd5b8787858181106115ef576115ef6129eb565b90506040020160200160208101906116079190612c04565b611623906fffffffffffffffffffffffffffffffff1684612987565b925061163560408c0160208d01612c04565b6fffffffffffffffffffffffffffffffff16831061165a575050505050505050610739565b61166384612bcc565b9350506001016114be565b506040517f203b225800000000000000000000000000000000000000000000000000000000815260040160405180910390fd5b8051805160008181036116e0576040517f5e231fff00000000000000000000000000000000000000000000000000000000815260040160405180910390fd5b6000805b838110156117ea576000858281518110611700576117006129eb565b602002602001015190506000816000015190508073ffffffffffffffffffffffffffffffffffffffff168473ffffffffffffffffffffffffffffffffffffffff1610611778576040517f5e231fff00000000000000000000000000000000000000000000000000000000815260040160405180910390fd5b809350600082602001516fffffffffffffffffffffffffffffffff169050806000036117d0576040517f84677ce800000000000000000000000000000000000000000000000000000000815260040160405180910390fd5b6117da8187612987565b95505050508060010190506116e4565b5060208501516fffffffffffffffffffffffffffffffff811615806118205750806fffffffffffffffffffffffffffffffff1683105b15611857576040517faabd5a0900000000000000000000000000000000000000000000000000000000815260040160405180910390fd5b505050505050565b60008787878787878760405160200161187e9796959493929190612c1f565b604051602081830303815290604052805190602001209050979650505050505050565b60006118db836118b46020850185612a4e565b6118c16040870187612a4e565b6118d16080890160608a016120c8565b886080013561185f565b60008481527f978b1ab9e384397ce0aab28eec0e3c25603b3210984045ad0e0f0a50d88cfc556020526040902081905590506080820180359061192190606085016120c8565b73ffffffffffffffffffffffffffffffffffffffff16847f820df8de4d5cc9debc5ad573caac8e8b24f5a75436f0d2fb8a1fd1b997368cf16119638680612a4e565b6119706020890189612a4e565b61197d60408b018b612a4e565b60405161198f969594939291906123d9565b60405180910390a4505050565b600081516041146119d9576040517f4be6321b00000000000000000000000000000000000000000000000000000000815260040160405180910390fd5b60208201516040830151606084015160001a7f7fffffffffffffffffffffffffffffff5d576e7357a4501ddfe92f46681b20a0821115611a45576040517f40c1e74800000000000000000000000000000000000000000000000000000000815260040160405180910390fd5b8060ff16601b14158015611a5d57508060ff16601c14155b15611a94576040517f119bce3900000000000000000000000000000000000000000000000000000000815260040160405180910390fd5b60408051600081526020810180835288905260ff831691810191909152606081018490526080810183905260019060a0016020604051602081039080840390855afa158015611ae7573d6000803e3d6000fd5b50506040517fffffffffffffffffffffffffffffffffffffffffffffffffffffffffffffffe0015194505073ffffffffffffffffffffffffffffffffffffffff8416611b5f576040517f8baa579f00000000000000000000000000000000000000000000000000000000815260040160405180910390fd5b50505092915050565b600060408284031215611b7a57600080fd5b50919050565b60008060408385031215611b9357600080fd5b82359150602083013567ffffffffffffffff811115611bb157600080fd5b611bbd85828601611b68565b9150509250929050565b60008083601f840112611bd957600080fd5b50813567ffffffffffffffff811115611bf157600080fd5b602083019150836020828501011115611c0957600080fd5b9250929050565b60008060008060008060608789031215611c2957600080fd5b863567ffffffffffffffff80821115611c4157600080fd5b611c4d8a838b01611bc7565b90985096506020890135915080821115611c6657600080fd5b611c728a838b01611bc7565b90965094506040890135915080821115611c8b57600080fd5b50611c9889828a01611bc7565b979a9699509497509295939492505050565b7f4e487b7100000000000000000000000000000000000000000000000000000000600052604160045260246000fd5b6040516060810167ffffffffffffffff81118282101715611cfc57611cfc611caa565b60405290565b6040805190810167ffffffffffffffff81118282101715611cfc57611cfc611caa565b604051601f82017fffffffffffffffffffffffffffffffffffffffffffffffffffffffffffffffe016810167ffffffffffffffff81118282101715611d6c57611d6c611caa565b604052919050565b600067ffffffffffffffff821115611d8e57611d8e611caa565b5060051b60200190565b803573ffffffffffffffffffffffffffffffffffffffff81168114611dbc57600080fd5b919050565b80356fffffffffffffffffffffffffffffffff81168114611dbc57600080fd5b600060608284031215611df357600080fd5b611dfb611cd9565b9050813567ffffffffffffffff811115611e1457600080fd5b8201601f81018413611e2557600080fd5b80356020611e3a611e3583611d74565b611d25565b82815260069290921b83018101918181019087841115611e5957600080fd5b938201935b83851015611eab5760408589031215611e775760008081fd5b611e7f611d02565b611e8886611d98565b8152611e95848701611dc1565b8185015282526040949094019390820190611e5e565b855250611eb9858201611dc1565b818501525050506040820135604082015292915050565b60008060408385031215611ee357600080fd5b823567ffffffffffffffff80821115611efb57600080fd5b611f0786838701611de1565b93506020850135915080821115611f1d57600080fd5b50611bbd85828601611b68565b600060208284031215611f3c57600080fd5b5035919050565b60008060008060408587031215611f5957600080fd5b843567ffffffffffffffff80821115611f7157600080fd5b611f7d88838901611bc7565b90965094506020870135915080821115611f9657600080fd5b50611fa387828801611bc7565b95989497509550505050565b60008060008060008060808789031215611fc857600080fd5b86359550602087013567ffffffffffffffff80821115611fe757600080fd5b611ff38a838b01611bc7565b9097509550604089013591508082111561200c57600080fd5b5061201989828a01611bc7565b979a9699509497949695606090950135949350505050565b60008060006040848603121561204657600080fd5b833567ffffffffffffffff8082111561205e57600080fd5b818601915086601f83011261207257600080fd5b81358181111561208157600080fd5b8760208260051b850101111561209657600080fd5b6020928301955093509085013590808211156120b157600080fd5b506120be86828701611b68565b9150509250925092565b6000602082840312156120da57600080fd5b61057582611d98565b60008060008060008060008060a0898b0312156120ff57600080fd5b883567ffffffffffffffff8082111561211757600080fd5b6121238c838d01611bc7565b909a50985060208b013591508082111561213c57600080fd5b6121488c838d01611bc7565b909850965060408b013591508082111561216157600080fd5b5061216e8b828c01611bc7565b9095509350612181905060608a01611d98565b9150608089013590509295985092959890939650565b600080602083850312156121aa57600080fd5b823567ffffffffffffffff8111156121c157600080fd5b6121cd85828601611bc7565b90969095509350505050565b600080600080606085870312156121ef57600080fd5b6121f885611d98565b935060208501359250604085013567ffffffffffffffff81111561221b57600080fd5b611fa387828801611bc7565b60008060008060008060006080888a03121561224257600080fd5b873567ffffffffffffffff8082111561225a57600080fd5b6122668b838c01611bc7565b909950975060208a013591508082111561227f57600080fd5b61228b8b838c01611bc7565b909750955060408a01359150808211156122a457600080fd5b506122b18a828b01611bc7565b989b979a50959894979596606090950135949350505050565b600080600080600080600060a0888a0312156122e557600080fd5b87359650602088013567ffffffffffffffff8082111561230457600080fd5b6123108b838c01611bc7565b909850965060408a013591508082111561232957600080fd5b506123368a828b01611bc7565b9095509350612349905060608901611d98565b91506080880135905092959891949750929550565b6000806040838503121561237157600080fd5b50508035926020909101359150565b8183823760009101908152919050565b8183528181602085013750600060208284010152600060207fffffffffffffffffffffffffffffffffffffffffffffffffffffffffffffffe0601f840116840101905092915050565b6060815260006123ed60608301888a612390565b8281036020840152612400818789612390565b90508281036040840152610e43818587612390565b6002811061244c577f4e487b7100000000000000000000000000000000000000000000000000000000600052602160045260246000fd5b9052565b805160608084528151908401819052600091602091908201906080860190845b818110156124bf578351805173ffffffffffffffffffffffffffffffffffffffff1684528501516fffffffffffffffffffffffffffffffff168584015292840192604090920191600101612470565b50506fffffffffffffffffffffffffffffffff8386015116838701526040850151604087015280935050505092915050565b6124fb8184612415565b6040602082015260006125116040830184612450565b949350505050565b8385823760008482017f5f00000000000000000000000000000000000000000000000000000000000000815283856001830137600093016001019283525090949350505050565b60008083357fffffffffffffffffffffffffffffffffffffffffffffffffffffffffffffffe184360301811261259557600080fd5b830160208101925035905067ffffffffffffffff8111156125b557600080fd5b803603821315611c0957600080fd5b600060408083016125d58488612415565b602060406020860152818683526060925060608601905060608760051b870101886000805b8a811015612700577fffffffffffffffffffffffffffffffffffffffffffffffffffffffffffffffa08a850301855282357fffffffffffffffffffffffffffffffffffffffffffffffffffffffffffffff618d360301811261265a578283fd5b8c0160a06126688280612560565b8288526126788389018284612390565b9250505061268888830183612560565b8783038a89015261269a838284612390565b925050506126aa8a830183612560565b8783038c8901526126bc838284612390565b9250505073ffffffffffffffffffffffffffffffffffffffff6126e08a8401611d98565b16868a0152608091820135919095015293850193918501916001016125fa565b50919b9a5050505050505050505050565b60006020828403121561272357600080fd5b5051919050565b602081526000612511602083018486612390565b60005b83811015612759578181015183820152602001612741565b50506000910152565b6000825161277481846020870161273e565b9190910192915050565b600082357fffffffffffffffffffffffffffffffffffffffffffffffffffffffffffffffa183360301811261277457600080fd5b600060208083526080830184357fffffffffffffffffffffffffffffffffffffffffffffffffffffffffffffffe18636030181126127ef57600080fd5b8501828101903567ffffffffffffffff81111561280b57600080fd5b8060061b360382131561281d57600080fd5b606086850152918290529060009060a086015b8183101561288d5773ffffffffffffffffffffffffffffffffffffffff61285685611d98565b1681526fffffffffffffffffffffffffffffffff612875868601611dc1565b16818601526040938401936001939093019201612830565b612898858901611dc1565b6fffffffffffffffffffffffffffffffff81166040890152945060408801356060880152809550505050505092915050565b7f4e487b7100000000000000000000000000000000000000000000000000000000600052601160045260246000fd5b81810381811115610578576105786128ca565b60008083357fffffffffffffffffffffffffffffffffffffffffffffffffffffffffffffffe184360301811261294157600080fd5b83018035915067ffffffffffffffff82111561295c57600080fd5b6020019150600581901b3603821315611c0957600080fd5b6020815260006105756020830184612450565b80820180821115610578576105786128ca565b60208152600082518060208401526129b981604085016020870161273e565b601f017fffffffffffffffffffffffffffffffffffffffffffffffffffffffffffffffe0169190910160400192915050565b7f4e487b7100000000000000000000000000000000000000000000000000000000600052603260045260246000fd5b600082357fffffffffffffffffffffffffffffffffffffffffffffffffffffffffffffff6183360301811261277457600080fd5b60008083357fffffffffffffffffffffffffffffffffffffffffffffffffffffffffffffffe1843603018112612a8357600080fd5b83018035915067ffffffffffffffff821115612a9e57600080fd5b602001915036819003821315611c0957600080fd5b60006020808385031215612ac657600080fd5b823567ffffffffffffffff80821115612ade57600080fd5b818501915085601f830112612af257600080fd5b8135612b00611e3582611d74565b81815260059190911b83018401908481019088831115612b1f57600080fd5b8585015b83811015612b5757803585811115612b3b5760008081fd5b612b498b89838a0101611de1565b845250918601918601612b23565b5098975050505050505050565b60008083357fffffffffffffffffffffffffffffffffffffffffffffffffffffffffffffffe1843603018112612b9957600080fd5b83018035915067ffffffffffffffff821115612bb457600080fd5b6020019150600681901b3603821315611c0957600080fd5b60007fffffffffffffffffffffffffffffffffffffffffffffffffffffffffffffffff8203612bfd57612bfd6128ca565b5060010190565b600060208284031215612c1657600080fd5b61057582611dc1565b87815260a060208201526000612c3960a08301888a612390565b8281036040840152612c4c818789612390565b73ffffffffffffffffffffffffffffffffffffffff9590951660608401525050608001529594505050505056fea26469706673582212204701ac746db396269c118eaf7afa21970b916e88525a3664c8718937f127d83164736f6c63430008170033",
  "linkReferences": {},
  "deployedLinkReferences": {}
}