{
  "_format": "hh-sol-artifact-1",
  "contractName": "AxelarGasService",
  "sourceName": "contracts/gas-service/AxelarGasService.sol",
  "abi": [
    {
      "inputs": [
        {
          "internalType": "address",
          "name": "gasCollector_",
          "type": "address"
        }
      ],
      "stateMutability": "nonpayable",
      "type": "constructor"
    },
    {
      "inputs": [
        {
          "internalType": "uint256",
          "name": "required",
          "type": "uint256"
        },
        {
          "internalType": "uint256",
          "name": "provided",
          "type": "uint256"
        }
      ],
      "name": "InsufficientGasPayment",
      "type": "error"
    },
    {
      "inputs": [],
      "name": "InvalidAddress",
      "type": "error"
    },
    {
      "inputs": [],
      "name": "InvalidAmounts",
      "type": "error"
    },
    {
      "inputs": [],
      "name": "InvalidCodeHash",
      "type": "error"
    },
    {
      "inputs": [],
      "name": "InvalidGasUpdates",
      "type": "error"
    },
    {
      "inputs": [],
      "name": "InvalidImplementation",
      "type": "error"
    },
    {
      "inputs": [],
      "name": "InvalidOwner",
      "type": "error"
    },
    {
      "inputs": [],
      "name": "InvalidOwnerAddress",
      "type": "error"
    },
    {
      "inputs": [],
      "name": "InvalidParams",
      "type": "error"
    },
    {
      "inputs": [],
      "name": "NativeTransferFailed",
      "type": "error"
    },
    {
      "inputs": [],
      "name": "NotCollector",
      "type": "error"
    },
    {
      "inputs": [],
      "name": "NotOwner",
      "type": "error"
    },
    {
      "inputs": [],
      "name": "NotProxy",
      "type": "error"
    },
    {
      "inputs": [],
      "name": "SetupFailed",
      "type": "error"
    },
    {
      "inputs": [],
      "name": "TokenTransferFailed",
      "type": "error"
    },
    {
      "inputs": [
        {
          "internalType": "enum GasEstimationType",
          "name": "gasEstimationType",
          "type": "uint8"
        }
      ],
      "name": "UnsupportedEstimationType",
      "type": "error"
    },
    {
      "anonymous": false,
      "inputs": [
        {
          "indexed": true,
          "internalType": "bytes32",
          "name": "txHash",
          "type": "bytes32"
        },
        {
          "indexed": true,
          "internalType": "uint256",
          "name": "logIndex",
          "type": "uint256"
        },
        {
          "indexed": false,
          "internalType": "address",
          "name": "gasToken",
          "type": "address"
        },
        {
          "indexed": false,
          "internalType": "uint256",
          "name": "gasFeeAmount",
          "type": "uint256"
        },
        {
          "indexed": false,
          "internalType": "address",
          "name": "refundAddress",
          "type": "address"
        }
      ],
      "name": "ExpressGasAdded",
      "type": "event"
    },
    {
      "anonymous": false,
      "inputs": [
        {
          "indexed": true,
          "internalType": "bytes32",
          "name": "txHash",
          "type": "bytes32"
        },
        {
          "indexed": true,
          "internalType": "uint256",
          "name": "logIndex",
          "type": "uint256"
        },
        {
          "indexed": false,
          "internalType": "address",
          "name": "gasToken",
          "type": "address"
        },
        {
          "indexed": false,
          "internalType": "uint256",
          "name": "gasFeeAmount",
          "type": "uint256"
        },
        {
          "indexed": false,
          "internalType": "address",
          "name": "refundAddress",
          "type": "address"
        }
      ],
      "name": "GasAdded",
      "type": "event"
    },
    {
      "anonymous": false,
      "inputs": [
        {
          "indexed": false,
          "internalType": "string",
          "name": "chain",
          "type": "string"
        },
        {
          "components": [
            {
              "internalType": "uint64",
              "name": "gasEstimationType",
              "type": "uint64"
            },
            {
              "internalType": "uint64",
              "name": "l1FeeScalar",
              "type": "uint64"
            },
            {
              "internalType": "uint128",
              "name": "axelarBaseFee",
              "type": "uint128"
            },
            {
              "internalType": "uint128",
              "name": "relativeGasPrice",
              "type": "uint128"
            },
            {
              "internalType": "uint128",
              "name": "relativeBlobBaseFee",
              "type": "uint128"
            },
            {
              "internalType": "uint128",
              "name": "expressFee",
              "type": "uint128"
            }
          ],
          "indexed": false,
          "internalType": "struct GasInfo",
          "name": "info",
          "type": "tuple"
        }
      ],
      "name": "GasInfoUpdated",
      "type": "event"
    },
    {
      "anonymous": false,
      "inputs": [
        {
          "indexed": true,
          "internalType": "address",
          "name": "sourceAddress",
          "type": "address"
        },
        {
          "indexed": false,
          "internalType": "string",
          "name": "destinationChain",
          "type": "string"
        },
        {
          "indexed": false,
          "internalType": "string",
          "name": "destinationAddress",
          "type": "string"
        },
        {
          "indexed": true,
          "internalType": "bytes32",
          "name": "payloadHash",
          "type": "bytes32"
        },
        {
          "indexed": false,
          "internalType": "address",
          "name": "gasToken",
          "type": "address"
        },
        {
          "indexed": false,
          "internalType": "uint256",
          "name": "gasFeeAmount",
          "type": "uint256"
        },
        {
          "indexed": false,
          "internalType": "address",
          "name": "refundAddress",
          "type": "address"
        }
      ],
      "name": "GasPaidForContractCall",
      "type": "event"
    },
    {
      "anonymous": false,
      "inputs": [
        {
          "indexed": true,
          "internalType": "address",
          "name": "sourceAddress",
          "type": "address"
        },
        {
          "indexed": false,
          "internalType": "string",
          "name": "destinationChain",
          "type": "string"
        },
        {
          "indexed": false,
          "internalType": "string",
          "name": "destinationAddress",
          "type": "string"
        },
        {
          "indexed": true,
          "internalType": "bytes32",
          "name": "payloadHash",
          "type": "bytes32"
        },
        {
          "indexed": false,
          "internalType": "string",
          "name": "symbol",
          "type": "string"
        },
        {
          "indexed": false,
          "internalType": "uint256",
          "name": "amount",
          "type": "uint256"
        },
        {
          "indexed": false,
          "internalType": "address",
          "name": "gasToken",
          "type": "address"
        },
        {
          "indexed": false,
          "internalType": "uint256",
          "name": "gasFeeAmount",
          "type": "uint256"
        },
        {
          "indexed": false,
          "internalType": "address",
          "name": "refundAddress",
          "type": "address"
        }
      ],
      "name": "GasPaidForContractCallWithToken",
      "type": "event"
    },
    {
      "anonymous": false,
      "inputs": [
        {
          "indexed": true,
          "internalType": "address",
          "name": "sourceAddress",
          "type": "address"
        },
        {
          "indexed": false,
          "internalType": "string",
          "name": "destinationChain",
          "type": "string"
        },
        {
          "indexed": false,
          "internalType": "string",
          "name": "destinationAddress",
          "type": "string"
        },
        {
          "indexed": true,
          "internalType": "bytes32",
          "name": "payloadHash",
          "type": "bytes32"
        },
        {
          "indexed": false,
          "internalType": "address",
          "name": "gasToken",
          "type": "address"
        },
        {
          "indexed": false,
          "internalType": "uint256",
          "name": "gasFeeAmount",
          "type": "uint256"
        },
        {
          "indexed": false,
          "internalType": "address",
          "name": "refundAddress",
          "type": "address"
        }
      ],
      "name": "GasPaidForExpressCall",
      "type": "event"
    },
    {
      "anonymous": false,
      "inputs": [
        {
          "indexed": true,
          "internalType": "address",
          "name": "sourceAddress",
          "type": "address"
        },
        {
          "indexed": false,
          "internalType": "string",
          "name": "destinationChain",
          "type": "string"
        },
        {
          "indexed": false,
          "internalType": "string",
          "name": "destinationAddress",
          "type": "string"
        },
        {
          "indexed": true,
          "internalType": "bytes32",
          "name": "payloadHash",
          "type": "bytes32"
        },
        {
          "indexed": false,
          "internalType": "string",
          "name": "symbol",
          "type": "string"
        },
        {
          "indexed": false,
          "internalType": "uint256",
          "name": "amount",
          "type": "uint256"
        },
        {
          "indexed": false,
          "internalType": "address",
          "name": "gasToken",
          "type": "address"
        },
        {
          "indexed": false,
          "internalType": "uint256",
          "name": "gasFeeAmount",
          "type": "uint256"
        },
        {
          "indexed": false,
          "internalType": "address",
          "name": "refundAddress",
          "type": "address"
        }
      ],
      "name": "GasPaidForExpressCallWithToken",
      "type": "event"
    },
    {
      "anonymous": false,
      "inputs": [
        {
          "indexed": true,
          "internalType": "bytes32",
          "name": "txHash",
          "type": "bytes32"
        },
        {
          "indexed": true,
          "internalType": "uint256",
          "name": "logIndex",
          "type": "uint256"
        },
        {
          "indexed": false,
          "internalType": "uint256",
          "name": "gasFeeAmount",
          "type": "uint256"
        },
        {
          "indexed": false,
          "internalType": "address",
          "name": "refundAddress",
          "type": "address"
        }
      ],
      "name": "NativeExpressGasAdded",
      "type": "event"
    },
    {
      "anonymous": false,
      "inputs": [
        {
          "indexed": true,
          "internalType": "bytes32",
          "name": "txHash",
          "type": "bytes32"
        },
        {
          "indexed": true,
          "internalType": "uint256",
          "name": "logIndex",
          "type": "uint256"
        },
        {
          "indexed": false,
          "internalType": "uint256",
          "name": "gasFeeAmount",
          "type": "uint256"
        },
        {
          "indexed": false,
          "internalType": "address",
          "name": "refundAddress",
          "type": "address"
        }
      ],
      "name": "NativeGasAdded",
      "type": "event"
    },
    {
      "anonymous": false,
      "inputs": [
        {
          "indexed": true,
          "internalType": "address",
          "name": "sourceAddress",
          "type": "address"
        },
        {
          "indexed": false,
          "internalType": "string",
          "name": "destinationChain",
          "type": "string"
        },
        {
          "indexed": false,
          "internalType": "string",
          "name": "destinationAddress",
          "type": "string"
        },
        {
          "indexed": true,
          "internalType": "bytes32",
          "name": "payloadHash",
          "type": "bytes32"
        },
        {
          "indexed": false,
          "internalType": "uint256",
          "name": "gasFeeAmount",
          "type": "uint256"
        },
        {
          "indexed": false,
          "internalType": "address",
          "name": "refundAddress",
          "type": "address"
        }
      ],
      "name": "NativeGasPaidForContractCall",
      "type": "event"
    },
    {
      "anonymous": false,
      "inputs": [
        {
          "indexed": true,
          "internalType": "address",
          "name": "sourceAddress",
          "type": "address"
        },
        {
          "indexed": false,
          "internalType": "string",
          "name": "destinationChain",
          "type": "string"
        },
        {
          "indexed": false,
          "internalType": "string",
          "name": "destinationAddress",
          "type": "string"
        },
        {
          "indexed": true,
          "internalType": "bytes32",
          "name": "payloadHash",
          "type": "bytes32"
        },
        {
          "indexed": false,
          "internalType": "string",
          "name": "symbol",
          "type": "string"
        },
        {
          "indexed": false,
          "internalType": "uint256",
          "name": "amount",
          "type": "uint256"
        },
        {
          "indexed": false,
          "internalType": "uint256",
          "name": "gasFeeAmount",
          "type": "uint256"
        },
        {
          "indexed": false,
          "internalType": "address",
          "name": "refundAddress",
          "type": "address"
        }
      ],
      "name": "NativeGasPaidForContractCallWithToken",
      "type": "event"
    },
    {
      "anonymous": false,
      "inputs": [
        {
          "indexed": true,
          "internalType": "address",
          "name": "sourceAddress",
          "type": "address"
        },
        {
          "indexed": false,
          "internalType": "string",
          "name": "destinationChain",
          "type": "string"
        },
        {
          "indexed": false,
          "internalType": "string",
          "name": "destinationAddress",
          "type": "string"
        },
        {
          "indexed": true,
          "internalType": "bytes32",
          "name": "payloadHash",
          "type": "bytes32"
        },
        {
          "indexed": false,
          "internalType": "uint256",
          "name": "gasFeeAmount",
          "type": "uint256"
        },
        {
          "indexed": false,
          "internalType": "address",
          "name": "refundAddress",
          "type": "address"
        }
      ],
      "name": "NativeGasPaidForExpressCall",
      "type": "event"
    },
    {
      "anonymous": false,
      "inputs": [
        {
          "indexed": true,
          "internalType": "address",
          "name": "sourceAddress",
          "type": "address"
        },
        {
          "indexed": false,
          "internalType": "string",
          "name": "destinationChain",
          "type": "string"
        },
        {
          "indexed": false,
          "internalType": "string",
          "name": "destinationAddress",
          "type": "string"
        },
        {
          "indexed": true,
          "internalType": "bytes32",
          "name": "payloadHash",
          "type": "bytes32"
        },
        {
          "indexed": false,
          "internalType": "string",
          "name": "symbol",
          "type": "string"
        },
        {
          "indexed": false,
          "internalType": "uint256",
          "name": "amount",
          "type": "uint256"
        },
        {
          "indexed": false,
          "internalType": "uint256",
          "name": "gasFeeAmount",
          "type": "uint256"
        },
        {
          "indexed": false,
          "internalType": "address",
          "name": "refundAddress",
          "type": "address"
        }
      ],
      "name": "NativeGasPaidForExpressCallWithToken",
      "type": "event"
    },
    {
      "anonymous": false,
      "inputs": [
        {
          "indexed": true,
          "internalType": "address",
          "name": "newOwner",
          "type": "address"
        }
      ],
      "name": "OwnershipTransferStarted",
      "type": "event"
    },
    {
      "anonymous": false,
      "inputs": [
        {
          "indexed": true,
          "internalType": "address",
          "name": "newOwner",
          "type": "address"
        }
      ],
      "name": "OwnershipTransferred",
      "type": "event"
    },
    {
      "anonymous": false,
      "inputs": [
        {
          "indexed": true,
          "internalType": "bytes32",
          "name": "txHash",
          "type": "bytes32"
        },
        {
          "indexed": true,
          "internalType": "uint256",
          "name": "logIndex",
          "type": "uint256"
        },
        {
          "indexed": false,
          "internalType": "address payable",
          "name": "receiver",
          "type": "address"
        },
        {
          "indexed": false,
          "internalType": "address",
          "name": "token",
          "type": "address"
        },
        {
          "indexed": false,
          "internalType": "uint256",
          "name": "amount",
          "type": "uint256"
        }
      ],
      "name": "Refunded",
      "type": "event"
    },
    {
      "anonymous": false,
      "inputs": [
        {
          "indexed": true,
          "internalType": "address",
          "name": "newImplementation",
          "type": "address"
        }
      ],
      "name": "Upgraded",
      "type": "event"
    },
    {
      "inputs": [],
      "name": "acceptOwnership",
      "outputs": [],
      "stateMutability": "nonpayable",
      "type": "function"
    },
    {
      "inputs": [
        {
          "internalType": "bytes32",
          "name": "txHash",
          "type": "bytes32"
        },
        {
          "internalType": "uint256",
          "name": "logIndex",
          "type": "uint256"
        },
        {
          "internalType": "address",
          "name": "gasToken",
          "type": "address"
        },
        {
          "internalType": "uint256",
          "name": "gasFeeAmount",
          "type": "uint256"
        },
        {
          "internalType": "address",
          "name": "refundAddress",
          "type": "address"
        }
      ],
      "name": "addExpressGas",
      "outputs": [],
      "stateMutability": "nonpayable",
      "type": "function"
    },
    {
      "inputs": [
        {
          "internalType": "bytes32",
          "name": "txHash",
          "type": "bytes32"
        },
        {
          "internalType": "uint256",
          "name": "logIndex",
          "type": "uint256"
        },
        {
          "internalType": "address",
          "name": "gasToken",
          "type": "address"
        },
        {
          "internalType": "uint256",
          "name": "gasFeeAmount",
          "type": "uint256"
        },
        {
          "internalType": "address",
          "name": "refundAddress",
          "type": "address"
        }
      ],
      "name": "addGas",
      "outputs": [],
      "stateMutability": "nonpayable",
      "type": "function"
    },
    {
      "inputs": [
        {
          "internalType": "bytes32",
          "name": "txHash",
          "type": "bytes32"
        },
        {
          "internalType": "uint256",
          "name": "logIndex",
          "type": "uint256"
        },
        {
          "internalType": "address",
          "name": "refundAddress",
          "type": "address"
        }
      ],
      "name": "addNativeExpressGas",
      "outputs": [],
      "stateMutability": "payable",
      "type": "function"
    },
    {
      "inputs": [
        {
          "internalType": "bytes32",
          "name": "txHash",
          "type": "bytes32"
        },
        {
          "internalType": "uint256",
          "name": "logIndex",
          "type": "uint256"
        },
        {
          "internalType": "address",
          "name": "refundAddress",
          "type": "address"
        }
      ],
      "name": "addNativeGas",
      "outputs": [],
      "stateMutability": "payable",
      "type": "function"
    },
    {
      "inputs": [
        {
          "internalType": "address payable",
          "name": "receiver",
          "type": "address"
        },
        {
          "internalType": "address[]",
          "name": "tokens",
          "type": "address[]"
        },
        {
          "internalType": "uint256[]",
          "name": "amounts",
          "type": "uint256[]"
        }
      ],
      "name": "collectFees",
      "outputs": [],
      "stateMutability": "nonpayable",
      "type": "function"
    },
    {
      "inputs": [],
      "name": "contractId",
      "outputs": [
        {
          "internalType": "bytes32",
          "name": "",
          "type": "bytes32"
        }
      ],
      "stateMutability": "pure",
      "type": "function"
    },
    {
      "inputs": [
        {
          "internalType": "string",
          "name": "destinationChain",
          "type": "string"
        },
        {
          "internalType": "string",
          "name": "",
          "type": "string"
        },
        {
          "internalType": "bytes",
          "name": "payload",
          "type": "bytes"
        },
        {
          "internalType": "uint256",
          "name": "executionGasLimit",
          "type": "uint256"
        },
        {
          "internalType": "bytes",
          "name": "",
          "type": "bytes"
        }
      ],
      "name": "estimateGasFee",
      "outputs": [
        {
          "internalType": "uint256",
          "name": "gasEstimate",
          "type": "uint256"
        }
      ],
      "stateMutability": "view",
      "type": "function"
    },
    {
      "inputs": [],
      "name": "gasCollector",
      "outputs": [
        {
          "internalType": "address",
          "name": "",
          "type": "address"
        }
      ],
      "stateMutability": "view",
      "type": "function"
    },
    {
      "inputs": [
        {
          "internalType": "string",
          "name": "chain",
          "type": "string"
        }
      ],
      "name": "getGasInfo",
      "outputs": [
        {
          "components": [
            {
              "internalType": "uint64",
              "name": "gasEstimationType",
              "type": "uint64"
            },
            {
              "internalType": "uint64",
              "name": "l1FeeScalar",
              "type": "uint64"
            },
            {
              "internalType": "uint128",
              "name": "axelarBaseFee",
              "type": "uint128"
            },
            {
              "internalType": "uint128",
              "name": "relativeGasPrice",
              "type": "uint128"
            },
            {
              "internalType": "uint128",
              "name": "relativeBlobBaseFee",
              "type": "uint128"
            },
            {
              "internalType": "uint128",
              "name": "expressFee",
              "type": "uint128"
            }
          ],
          "internalType": "struct GasInfo",
          "name": "",
          "type": "tuple"
        }
      ],
      "stateMutability": "view",
      "type": "function"
    },
    {
      "inputs": [],
      "name": "implementation",
      "outputs": [
        {
          "internalType": "address",
          "name": "implementation_",
          "type": "address"
        }
      ],
      "stateMutability": "view",
      "type": "function"
    },
    {
      "inputs": [],
      "name": "owner",
      "outputs": [
        {
          "internalType": "address",
          "name": "owner_",
          "type": "address"
        }
      ],
      "stateMutability": "view",
      "type": "function"
    },
    {
      "inputs": [
        {
          "internalType": "address",
          "name": "sender",
          "type": "address"
        },
        {
          "internalType": "string",
          "name": "destinationChain",
          "type": "string"
        },
        {
          "internalType": "string",
          "name": "destinationAddress",
          "type": "string"
        },
        {
          "internalType": "bytes",
          "name": "payload",
          "type": "bytes"
        },
        {
          "internalType": "uint256",
          "name": "executionGasLimit",
          "type": "uint256"
        },
        {
          "internalType": "bool",
          "name": "estimateOnChain",
          "type": "bool"
        },
        {
          "internalType": "address",
          "name": "refundAddress",
          "type": "address"
        },
        {
          "internalType": "bytes",
          "name": "params",
          "type": "bytes"
        }
      ],
      "name": "payGas",
      "outputs": [],
      "stateMutability": "payable",
      "type": "function"
    },
    {
      "inputs": [
        {
          "internalType": "address",
          "name": "sender",
          "type": "address"
        },
        {
          "internalType": "string",
          "name": "destinationChain",
          "type": "string"
        },
        {
          "internalType": "string",
          "name": "destinationAddress",
          "type": "string"
        },
        {
          "internalType": "bytes",
          "name": "payload",
          "type": "bytes"
        },
        {
          "internalType": "address",
          "name": "gasToken",
          "type": "address"
        },
        {
          "internalType": "uint256",
          "name": "gasFeeAmount",
          "type": "uint256"
        },
        {
          "internalType": "address",
          "name": "refundAddress",
          "type": "address"
        }
      ],
      "name": "payGasForContractCall",
      "outputs": [],
      "stateMutability": "nonpayable",
      "type": "function"
    },
    {
      "inputs": [
        {
          "internalType": "address",
          "name": "sender",
          "type": "address"
        },
        {
          "internalType": "string",
          "name": "destinationChain",
          "type": "string"
        },
        {
          "internalType": "string",
          "name": "destinationAddress",
          "type": "string"
        },
        {
          "internalType": "bytes",
          "name": "payload",
          "type": "bytes"
        },
        {
          "internalType": "string",
          "name": "symbol",
          "type": "string"
        },
        {
          "internalType": "uint256",
          "name": "amount",
          "type": "uint256"
        },
        {
          "internalType": "address",
          "name": "gasToken",
          "type": "address"
        },
        {
          "internalType": "uint256",
          "name": "gasFeeAmount",
          "type": "uint256"
        },
        {
          "internalType": "address",
          "name": "refundAddress",
          "type": "address"
        }
      ],
      "name": "payGasForContractCallWithToken",
      "outputs": [],
      "stateMutability": "nonpayable",
      "type": "function"
    },
    {
      "inputs": [
        {
          "internalType": "address",
          "name": "sender",
          "type": "address"
        },
        {
          "internalType": "string",
          "name": "destinationChain",
          "type": "string"
        },
        {
          "internalType": "string",
          "name": "destinationAddress",
          "type": "string"
        },
        {
          "internalType": "bytes",
          "name": "payload",
          "type": "bytes"
        },
        {
          "internalType": "address",
          "name": "gasToken",
          "type": "address"
        },
        {
          "internalType": "uint256",
          "name": "gasFeeAmount",
          "type": "uint256"
        },
        {
          "internalType": "address",
          "name": "refundAddress",
          "type": "address"
        }
      ],
      "name": "payGasForExpressCall",
      "outputs": [],
      "stateMutability": "nonpayable",
      "type": "function"
    },
    {
      "inputs": [
        {
          "internalType": "address",
          "name": "sender",
          "type": "address"
        },
        {
          "internalType": "string",
          "name": "destinationChain",
          "type": "string"
        },
        {
          "internalType": "string",
          "name": "destinationAddress",
          "type": "string"
        },
        {
          "internalType": "bytes",
          "name": "payload",
          "type": "bytes"
        },
        {
          "internalType": "string",
          "name": "symbol",
          "type": "string"
        },
        {
          "internalType": "uint256",
          "name": "amount",
          "type": "uint256"
        },
        {
          "internalType": "address",
          "name": "gasToken",
          "type": "address"
        },
        {
          "internalType": "uint256",
          "name": "gasFeeAmount",
          "type": "uint256"
        },
        {
          "internalType": "address",
          "name": "refundAddress",
          "type": "address"
        }
      ],
      "name": "payGasForExpressCallWithToken",
      "outputs": [],
      "stateMutability": "nonpayable",
      "type": "function"
    },
    {
      "inputs": [
        {
          "internalType": "address",
          "name": "sender",
          "type": "address"
        },
        {
          "internalType": "string",
          "name": "destinationChain",
          "type": "string"
        },
        {
          "internalType": "string",
          "name": "destinationAddress",
          "type": "string"
        },
        {
          "internalType": "bytes",
          "name": "payload",
          "type": "bytes"
        },
        {
          "internalType": "address",
          "name": "refundAddress",
          "type": "address"
        }
      ],
      "name": "payNativeGasForContractCall",
      "outputs": [],
      "stateMutability": "payable",
      "type": "function"
    },
    {
      "inputs": [
        {
          "internalType": "address",
          "name": "sender",
          "type": "address"
        },
        {
          "internalType": "string",
          "name": "destinationChain",
          "type": "string"
        },
        {
          "internalType": "string",
          "name": "destinationAddress",
          "type": "string"
        },
        {
          "internalType": "bytes",
          "name": "payload",
          "type": "bytes"
        },
        {
          "internalType": "string",
          "name": "symbol",
          "type": "string"
        },
        {
          "internalType": "uint256",
          "name": "amount",
          "type": "uint256"
        },
        {
          "internalType": "address",
          "name": "refundAddress",
          "type": "address"
        }
      ],
      "name": "payNativeGasForContractCallWithToken",
      "outputs": [],
      "stateMutability": "payable",
      "type": "function"
    },
    {
      "inputs": [
        {
          "internalType": "address",
          "name": "sender",
          "type": "address"
        },
        {
          "internalType": "string",
          "name": "destinationChain",
          "type": "string"
        },
        {
          "internalType": "string",
          "name": "destinationAddress",
          "type": "string"
        },
        {
          "internalType": "bytes",
          "name": "payload",
          "type": "bytes"
        },
        {
          "internalType": "address",
          "name": "refundAddress",
          "type": "address"
        }
      ],
      "name": "payNativeGasForExpressCall",
      "outputs": [],
      "stateMutability": "payable",
      "type": "function"
    },
    {
      "inputs": [
        {
          "internalType": "address",
          "name": "sender",
          "type": "address"
        },
        {
          "internalType": "string",
          "name": "destinationChain",
          "type": "string"
        },
        {
          "internalType": "string",
          "name": "destinationAddress",
          "type": "string"
        },
        {
          "internalType": "bytes",
          "name": "payload",
          "type": "bytes"
        },
        {
          "internalType": "string",
          "name": "symbol",
          "type": "string"
        },
        {
          "internalType": "uint256",
          "name": "amount",
          "type": "uint256"
        },
        {
          "internalType": "address",
          "name": "refundAddress",
          "type": "address"
        }
      ],
      "name": "payNativeGasForExpressCallWithToken",
      "outputs": [],
      "stateMutability": "payable",
      "type": "function"
    },
    {
      "inputs": [],
      "name": "pendingOwner",
      "outputs": [
        {
          "internalType": "address",
          "name": "owner_",
          "type": "address"
        }
      ],
      "stateMutability": "view",
      "type": "function"
    },
    {
      "inputs": [
        {
          "internalType": "address",
          "name": "newOwner",
          "type": "address"
        }
      ],
      "name": "proposeOwnership",
      "outputs": [],
      "stateMutability": "nonpayable",
      "type": "function"
    },
    {
      "inputs": [
        {
          "internalType": "bytes32",
          "name": "txHash",
          "type": "bytes32"
        },
        {
          "internalType": "uint256",
          "name": "logIndex",
          "type": "uint256"
        },
        {
          "internalType": "address payable",
          "name": "receiver",
          "type": "address"
        },
        {
          "internalType": "address",
          "name": "token",
          "type": "address"
        },
        {
          "internalType": "uint256",
          "name": "amount",
          "type": "uint256"
        }
      ],
      "name": "refund",
      "outputs": [],
      "stateMutability": "nonpayable",
      "type": "function"
    },
    {
      "inputs": [
        {
          "internalType": "address payable",
          "name": "receiver",
          "type": "address"
        },
        {
          "internalType": "address",
          "name": "token",
          "type": "address"
        },
        {
          "internalType": "uint256",
          "name": "amount",
          "type": "uint256"
        }
      ],
      "name": "refund",
      "outputs": [],
      "stateMutability": "nonpayable",
      "type": "function"
    },
    {
      "inputs": [
        {
          "internalType": "bytes",
          "name": "data",
          "type": "bytes"
        }
      ],
      "name": "setup",
      "outputs": [],
      "stateMutability": "nonpayable",
      "type": "function"
    },
    {
      "inputs": [
        {
          "internalType": "address",
          "name": "newOwner",
          "type": "address"
        }
      ],
      "name": "transferOwnership",
      "outputs": [],
      "stateMutability": "nonpayable",
      "type": "function"
    },
    {
      "inputs": [
        {
          "internalType": "string[]",
          "name": "chains",
          "type": "string[]"
        },
        {
          "components": [
            {
              "internalType": "uint64",
              "name": "gasEstimationType",
              "type": "uint64"
            },
            {
              "internalType": "uint64",
              "name": "l1FeeScalar",
              "type": "uint64"
            },
            {
              "internalType": "uint128",
              "name": "axelarBaseFee",
              "type": "uint128"
            },
            {
              "internalType": "uint128",
              "name": "relativeGasPrice",
              "type": "uint128"
            },
            {
              "internalType": "uint128",
              "name": "relativeBlobBaseFee",
              "type": "uint128"
            },
            {
              "internalType": "uint128",
              "name": "expressFee",
              "type": "uint128"
            }
          ],
          "internalType": "struct GasInfo[]",
          "name": "gasUpdates",
          "type": "tuple[]"
        }
      ],
      "name": "updateGasInfo",
      "outputs": [],
      "stateMutability": "nonpayable",
      "type": "function"
    },
    {
      "inputs": [
        {
          "internalType": "address",
          "name": "newImplementation",
          "type": "address"
        },
        {
          "internalType": "bytes32",
          "name": "newImplementationCodeHash",
          "type": "bytes32"
        },
        {
          "internalType": "bytes",
          "name": "params",
          "type": "bytes"
        }
      ],
      "name": "upgrade",
      "outputs": [],
      "stateMutability": "nonpayable",
      "type": "function"
    }
  ],
  "bytecode": "0x60c06040523480156200001157600080fd5b5060405162002f5f38038062002f5f8339810160408190526200003491620000fc565b6001620000418162000058565b50306080526001600160a01b031660a0526200012e565b6001600160a01b0381166200008057604051633649397d60e21b815260040160405180910390fd5b6040516001600160a01b038216907f04dba622d284ed0014ee4b9a6a68386be1a4c08a4913ae272de89199cc68616390600090a27f02016836a56b71f0d02689e69e326f4f4c1b9057164ef592671cf0d37c8040c05560007f9855384122b55936fbfb8ca5120e63c6537a1ac40caf6ae33502b3c5da8c87d155565b6000602082840312156200010f57600080fd5b81516001600160a01b03811681146200012757600080fd5b9392505050565b60805160a051612def62000170600039600081816104240152818161067201528181610afc01528181610ce5015261131f01526000610e190152612def6000f3fe6080604052600436106101c25760003560e01c8063892b5007116100f7578063cd433ada11610095578063edf936f211610064578063edf936f214610594578063f2fde38b146105a7578063f61ed218146105c7578063fd09e3bd146105da57600080fd5b8063cd433ada1461050d578063d3b81f0c14610520578063e30c397814610540578063edb6b3a51461057457600080fd5b8063a3499c73116100d1578063a3499c731461049a578063ab1999ba146104ba578063ba9ddc8d146104da578063c62c2002146104fa57600080fd5b8063892b5007146104125780638da5cb5b146104465780639ded06df1461047a57600080fd5b80634d2384891161016457806379ba50971161013e57806379ba50971461031d5780638291286c1461033257806382ad6f351461036557806386389f021461038557600080fd5b80634d238489146102a25780635c60da1b146102b5578063710bf322146102fd57600080fd5b806317a49f7c116101a057806317a49f7c1461022f5780632e9b74701461024f5780632edd2aa814610262578063365047211461028257600080fd5b80630c93e3bb146101c75780631055eaaf146101dc578063135eaa70146101fc575b600080fd5b6101da6101d5366004611e59565b6105fa565b005b3480156101e857600080fd5b506101da6101f7366004611f5e565b610667565b34801561020857600080fd5b5061021c610217366004611fe1565b610846565b6040519081526020015b60405180910390f35b34801561023b57600080fd5b506101da61024a366004612154565b610980565b6101da61025d366004612272565b610a0c565b34801561026e57600080fd5b506101da61027d366004612365565b610a82565b34801561028e57600080fd5b506101da61029d3660046123bb565b610af1565b6101da6102b036600461240d565b610b46565b3480156102c157600080fd5b507f360894a13ba1a3210667c828492db98dca3e2076cc3735a920a3ca505d382bbc545b6040516001600160a01b039091168152602001610226565b34801561030957600080fd5b506101da610318366004612446565b610b91565b34801561032957600080fd5b506101da610c60565b34801561033e57600080fd5b507ffaa2f015f2ce5aee225904728de2def86eb8837491efd21f1a04fc20d8e923f661021c565b34801561037157600080fd5b506101da61038036600461246a565b610cda565b34801561039157600080fd5b506103a56103a03660046124ab565b610d35565b6040516102269190600060c08201905067ffffffffffffffff8084511683528060208501511660208401525060408301516001600160801b0380821660408501528060608601511660608501528060808601511660808501528060a08601511660a0850152505092915050565b34801561041e57600080fd5b506102e57f000000000000000000000000000000000000000000000000000000000000000081565b34801561045257600080fd5b507f02016836a56b71f0d02689e69e326f4f4c1b9057164ef592671cf0d37c8040c0546102e5565b34801561048657600080fd5b506101da6104953660046124ab565b610e16565b3480156104a657600080fd5b506101da6104b53660046124ed565b610e7c565b3480156104c657600080fd5b506101da6104d5366004612365565b61119c565b3480156104e657600080fd5b506101da6104f5366004612549565b6111eb565b6101da610508366004612272565b611271565b6101da61051b36600461240d565b6112d2565b34801561052c57600080fd5b506101da61053b366004612621565b611314565b34801561054c57600080fd5b507f9855384122b55936fbfb8ca5120e63c6537a1ac40caf6ae33502b3c5da8c87d1546102e5565b34801561058057600080fd5b506101da61058f366004612154565b611405565b6101da6105a23660046126d4565b611466565b3480156105b357600080fd5b506101da6105c2366004612446565b611574565b6101da6105d5366004611e59565b6115c4565b3480156105e657600080fd5b506101da6105f5366004612549565b61161f565b828260405161060a9291906127f0565b6040518091039020886001600160a01b03167f617332c1832058df6ee45fcbdf471251474c9945a8e5d229287a21a5f67ccf0a89898989348860405161065596959493929190612829565b60405180910390a35050505050505050565b336001600160a01b037f000000000000000000000000000000000000000000000000000000000000000016146106af57604051623bb10360e91b815260040160405180910390fd5b6001600160a01b0385166106d65760405163e6c4247b60e01b815260040160405180910390fd5b828181146106f757604051636c2b7e2d60e11b815260040160405180910390fd5b60005b8181101561083d57600086868381811061071657610716612873565b905060200201602081019061072b9190612446565b9050600085858481811061074157610741612873565b9050602002013590508060000361076b57604051636c2b7e2d60e11b815260040160405180910390fd5b6001600160a01b03821661079857478111610793576107936001600160a01b038a168261167c565b610833565b6040517f70a082310000000000000000000000000000000000000000000000000000000081523060048201526001600160a01b038316906370a0823190602401602060405180830381865afa1580156107f5573d6000803e3d6000fd5b505050506040513d601f19601f820116820180604052508101906108199190612889565b8111610833576108336001600160a01b0383168a836116c1565b50506001016106fa565b50505050505050565b6000807f2fa150da4c9f4c3a28593398c65313dd42f63d0530ec6db4a2b46e6d837a390260405161087a908d908d906127f0565b908152604051908190036020019020805490915060009067ffffffffffffffff1660048111156108ac576108ac6128a2565b60018301549091506108c7906001600160801b0316876128ce565b82546108e39190600160801b90046001600160801b03166128e5565b925060008160048111156108f9576108f96128a2565b1461097157604080517f657468657265756d00000000000000000000000000000000000000000000000081527f2fa150da4c9f4c3a28593398c65313dd42f63d0530ec6db4a2b46e6d837a390260088201529051908190036028019020610963828a8a868561176a565b61096d90856128e5565b9350505b50509998505050505050505050565b86866040516109909291906127f0565b60405180910390208c6001600160a01b03167fda4ed638a7ffe9e814722efdb9ad6058c152c19c8564ceffe52e11dda1ca32238d8d8d8d8b8b8b8b8b6040516109e19998979695949392919061291c565b60405180910390a36109fe6001600160a01b038416333085611844565b505050505050505050505050565b8585604051610a1c9291906127f0565b60405180910390208b6001600160a01b03167f8c092067e86e85e8cfbaf187202ef580cdfd7ec37fbec89191607de73ca800058c8c8c8c8a8a8a348b604051610a6d999897969594939291906129a5565b60405180910390a35050505050505050505050565b604080516001600160a01b03808616825260208201859052831691810191909152849086907ff0b09bf969e7958967e0968e22596f647dd6efa09f4778e0393967b881f4b09f906060015b60405180910390a3610aea6001600160a01b038416333085611844565b5050505050565b336001600160a01b037f00000000000000000000000000000000000000000000000000000000000000001614610b3957604051623bb10360e91b815260040160405180910390fd5b610aea8585858585611895565b604080513481526001600160a01b0383166020820152839185917fb26db521e067acd5c6e345ad92fa1ed06bc7fb2aedd68f35dc7a2e10d636fc9891015b60405180910390a3505050565b33610bba7f02016836a56b71f0d02689e69e326f4f4c1b9057164ef592671cf0d37c8040c05490565b6001600160a01b031614610be1576040516330cd747160e01b815260040160405180910390fd5b6001600160a01b038116610c0857604051633649397d60e21b815260040160405180910390fd5b6040516001600160a01b038216907fd9be0e8e07417e00f2521db636cb53e316fd288f5051f16d2aa2bf0c3938a87690600090a27f9855384122b55936fbfb8ca5120e63c6537a1ac40caf6ae33502b3c5da8c87d155565b6000610c8a7f9855384122b55936fbfb8ca5120e63c6537a1ac40caf6ae33502b3c5da8c87d15490565b90506001600160a01b0381163314610cce576040517f49e27cff00000000000000000000000000000000000000000000000000000000815260040160405180910390fd5b610cd781611945565b50565b336001600160a01b037f00000000000000000000000000000000000000000000000000000000000000001614610d2257604051623bb10360e91b815260040160405180910390fd5b610d30600080858585611895565b505050565b6040805160c081018252600080825260208201819052818301819052606082018190526080820181905260a082015290517f2fa150da4c9f4c3a28593398c65313dd42f63d0530ec6db4a2b46e6d837a390290610d9590859085906127f0565b90815260408051918290036020908101832060c084018352805467ffffffffffffffff808216865268010000000000000000820416928501929092526001600160801b03600160801b92839004811693850193909352600181015480841660608601529190910482166080840152600201541660a082015290505b92915050565b307f00000000000000000000000000000000000000000000000000000000000000006001600160a01b031603610e78576040517fbf10dd3a00000000000000000000000000000000000000000000000000000000815260040160405180910390fd5b5050565b33610ea57f02016836a56b71f0d02689e69e326f4f4c1b9057164ef592671cf0d37c8040c05490565b6001600160a01b031614610ecc576040516330cd747160e01b815260040160405180910390fd5b7f360894a13ba1a3210667c828492db98dca3e2076cc3735a920a3ca505d382bbc546001600160a01b0316638291286c6040518163ffffffff1660e01b8152600401602060405180830381865afa158015610f2b573d6000803e3d6000fd5b505050506040513d601f19601f82011682018060405250810190610f4f9190612889565b846001600160a01b0316638291286c6040518163ffffffff1660e01b8152600401602060405180830381865afa158015610f8d573d6000803e3d6000fd5b505050506040513d601f19601f82011682018060405250810190610fb19190612889565b14610fe8576040517f68155f9a00000000000000000000000000000000000000000000000000000000815260040160405180910390fd5b836001600160a01b03163f831461102b576040517f8f84fb2400000000000000000000000000000000000000000000000000000000815260040160405180910390fd5b7f360894a13ba1a3210667c828492db98dca3e2076cc3735a920a3ca505d382bbc8490556040516001600160a01b038516907fbc7cd75a20ee27fd9adebab32041f755214dbc6bffa90cc0225b39da2e5c2d3b90600090a28015611196576000846001600160a01b0316639ded06df60e01b84846040516024016110b0929190612a0c565b60408051601f198184030181529181526020820180517bffffffffffffffffffffffffffffffffffffffffffffffffffffffff167fffffffff0000000000000000000000000000000000000000000000000000000090941693909317909252905161111b9190612a28565b600060405180830381855af49150503d8060008114611156576040519150601f19603f3d011682016040523d82523d6000602084013e61115b565b606091505b5050905080610aea576040517f97905dfb00000000000000000000000000000000000000000000000000000000815260040160405180910390fd5b50505050565b604080516001600160a01b03808616825260208201859052831691810191909152849086907f2275e75614080f9782f72563c2c1688c901c5339c7f9f436d323f9386fed700a90606001610acd565b84846040516111fb9291906127f0565b60405180910390208a6001600160a01b03167fd171a7eb157e548ca493dd0a16016d125963a369ac5ae3c275ec12c96d5277028b8b8b8b8989896040516112489796959493929190612a44565b60405180910390a36112656001600160a01b038416333085611844565b50505050505050505050565b85856040516112819291906127f0565b60405180910390208b6001600160a01b03167f999d431b58761213cf53af96262b67a069cbd963499fd8effd1e21556217b8418c8c8c8c8a8a8a348b604051610a6d999897969594939291906129a5565b604080513481526001600160a01b0383166020820152839185917ffeb6b00343feee0f29a1a4345f8bf93ca1c73ee922248a4237a4e50d6447604e9101610b84565b336001600160a01b037f0000000000000000000000000000000000000000000000000000000000000000161461135c57604051623bb10360e91b815260040160405180910390fd5b82818114611396576040517fa5f1efe300000000000000000000000000000000000000000000000000000000815260040160405180910390fd5b60005b818110156113fd573660008787848181106113b6576113b6612873565b90506020028101906113c89190612a98565b91509150368686858181106113df576113df612873565b905060c0020190506113f28383836119e8565b505050600101611399565b505050505050565b86866040516114159291906127f0565b60405180910390208c6001600160a01b03167f8875f9764f28fa82d3e7ff1b80bd5c8f665e1f42fcd8c2faebc7c400a4ba1bbd8d8d8d8d8b8b8b8b8b6040516109e19998979695949392919061291c565b801561149e576040517fa86b651200000000000000000000000000000000000000000000000000000000815260040160405180910390fd5b83156115035760006114b78c8c8c8c8c8c8c8a8a610846565b905034811115611501576040517f5b1fe5fc000000000000000000000000000000000000000000000000000000008152600481018290523460248201526044015b60405180910390fd5b505b86866040516115139291906127f0565b60405180910390208c6001600160a01b03167f617332c1832058df6ee45fcbdf471251474c9945a8e5d229287a21a5f67ccf0a8d8d8d8d348a60405161155e96959493929190612829565b60405180910390a3505050505050505050505050565b3361159d7f02016836a56b71f0d02689e69e326f4f4c1b9057164ef592671cf0d37c8040c05490565b6001600160a01b031614610cce576040516330cd747160e01b815260040160405180910390fd5b82826040516115d49291906127f0565b6040518091039020886001600160a01b03167f5cf48f121a0fecaa2c4a64b3eaf482c8c308d5387e161535970f3e9e4363eff689898989348860405161065596959493929190612829565b848460405161162f9291906127f0565b60405180910390208a6001600160a01b03167f99206760f0be19dd093729bd35e5924daff5e217bcedc5223ed067b60008cf8a8b8b8b8b8989896040516112489796959493929190612a44565b600080600080600085875af1905080610d30576040517ff4b3b1bc00000000000000000000000000000000000000000000000000000000815260040160405180910390fd5b6040516001600160a01b038316602482015260448101829052610d309084907fa9059cbb00000000000000000000000000000000000000000000000000000000906064015b60408051601f198184030181529190526020810180517bffffffffffffffffffffffffffffffffffffffffffffffffffffffff167fffffffff0000000000000000000000000000000000000000000000000000000090931692909217909152611a6e565b60006001866004811115611780576117806128a2565b036117985761179185858585611b45565b905061183b565b60028660048111156117ac576117ac6128a2565b036117bd5761179185858585611c08565b60038660048111156117d1576117d16128a2565b036117e25761179185858585611c7e565b60048660048111156117f6576117f66128a2565b036118075761179185858585611d1a565b856040517f10fcd31f0000000000000000000000000000000000000000000000000000000081526004016114f89190612adf565b95945050505050565b6040516001600160a01b03808516602483015283166044820152606481018290526111969085907f23b872dd0000000000000000000000000000000000000000000000000000000090608401611706565b6001600160a01b0383166118bc5760405163e6c4247b60e01b815260040160405180910390fd5b604080516001600160a01b03808616825284166020820152908101829052849086907fd5df103822011013c8c940930e5180419111c65abadd6525ca7e740d56b4703f9060600160405180910390a36001600160a01b0382166119315761192c6001600160a01b0384168261167c565b610aea565b610aea6001600160a01b03831684836116c1565b6001600160a01b03811661196c57604051633649397d60e21b815260040160405180910390fd5b6040516001600160a01b038216907f04dba622d284ed0014ee4b9a6a68386be1a4c08a4913ae272de89199cc68616390600090a27f02016836a56b71f0d02689e69e326f4f4c1b9057164ef592671cf0d37c8040c05560007f9855384122b55936fbfb8ca5120e63c6537a1ac40caf6ae33502b3c5da8c87d155565b7f11415423beab67062fb0f3f22cb2a478e3b5a02a845dd62ddb7c12d11098ff1b838383604051611a1b93929190612b32565b60405180910390a1807f2fa150da4c9f4c3a28593398c65313dd42f63d0530ec6db4a2b46e6d837a3902604051611a5590869086906127f0565b908152604051908190036020019020610aea8282612bf0565b600080836001600160a01b031683604051611a899190612a28565b6000604051808303816000865af19150503d8060008114611ac6576040519150601f19603f3d011682016040523d82523d6000602084013e611acb565b606091505b50915091506000828015611af7575081511580611af7575081806020019051810190611af79190612d33565b9050801580611b0e57506001600160a01b0385163b155b15610aea576040517f045c4b0200000000000000000000000000000000000000000000000000000000815260040160405180910390fd5b6000620f4240620dbba082611b5a8888611d45565b6001860154909150600090611b7f90600160801b90046001600160801b0316846128ce565b600187015488546001600160801b0390911690611bb39068010000000000000000900467ffffffffffffffff166010612d50565b67ffffffffffffffff16611bc79190612d74565b6001600160801b0316611bda91906128e5565b9050611be78460106128ce565b611bf183836128ce565b611bfb9190612d97565b9998505050505050505050565b600060bc620f42408282611c1c8989611d45565b611c2691906128e5565b8654600187015491925083916801000000000000000090910467ffffffffffffffff1690611c5e9084906001600160801b03166128ce565b611c6891906128ce565b611c729190612d97565b98975050505050505050565b6000612710601082611c9082806128ce565b90506064600088611ca461018460446128e5565b611cae91906128e5565b905060006002611cbe83876128ce565b611cc89190612d97565b905085611cd584826128e5565b611cdf86846128e5565b60018b0154611cf791906001600160801b03166128ce565b611d0191906128ce565b611d0b9190612d97565b9b9a5050505050505050505050565b60006109c4633b9aca008282611d308989611d45565b611d3a91906128e5565b611c269060406128e5565b6000611d53604460106128ce565b9050611d6261018460086128ce565b611d6c90826128e5565b90508160005b81811015611de357848482818110611d8c57611d8c612873565b909101357fff00000000000000000000000000000000000000000000000000000000000000166000039050611dcd57611dc66004846128e5565b9250611ddb565b611dd86010846128e5565b92505b600101611d72565b505092915050565b6001600160a01b0381168114610cd757600080fd5b8035611e0b81611deb565b919050565b60008083601f840112611e2257600080fd5b50813567ffffffffffffffff811115611e3a57600080fd5b602083019150836020828501011115611e5257600080fd5b9250929050565b60008060008060008060008060a0898b031215611e7557600080fd5b8835611e8081611deb565b9750602089013567ffffffffffffffff80821115611e9d57600080fd5b611ea98c838d01611e10565b909950975060408b0135915080821115611ec257600080fd5b611ece8c838d01611e10565b909750955060608b0135915080821115611ee757600080fd5b50611ef48b828c01611e10565b9094509250506080890135611f0881611deb565b809150509295985092959890939650565b60008083601f840112611f2b57600080fd5b50813567ffffffffffffffff811115611f4357600080fd5b6020830191508360208260051b8501011115611e5257600080fd5b600080600080600060608688031215611f7657600080fd5b8535611f8181611deb565b9450602086013567ffffffffffffffff80821115611f9e57600080fd5b611faa89838a01611f19565b90965094506040880135915080821115611fc357600080fd5b50611fd088828901611f19565b969995985093965092949392505050565b600080600080600080600080600060a08a8c031215611fff57600080fd5b893567ffffffffffffffff8082111561201757600080fd5b6120238d838e01611e10565b909b50995060208c013591508082111561203c57600080fd5b6120488d838e01611e10565b909950975060408c013591508082111561206157600080fd5b61206d8d838e01611e10565b909750955060608c0135945060808c013591508082111561208d57600080fd5b5061209a8c828d01611e10565b915080935050809150509295985092959850929598565b634e487b7160e01b600052604160045260246000fd5b600082601f8301126120d857600080fd5b813567ffffffffffffffff808211156120f3576120f36120b1565b604051601f8301601f19908116603f0116810190828211818310171561211b5761211b6120b1565b8160405283815286602085880101111561213457600080fd5b836020870160208301376000602085830101528094505050505092915050565b6000806000806000806000806000806000806101208d8f03121561217757600080fd5b6121808d611e00565b9b5067ffffffffffffffff60208e0135111561219b57600080fd5b6121ab8e60208f01358f01611e10565b909b50995067ffffffffffffffff60408e013511156121c957600080fd5b6121d98e60408f01358f01611e10565b909950975067ffffffffffffffff60608e013511156121f757600080fd5b6122078e60608f01358f01611e10565b909750955067ffffffffffffffff60808e0135111561222557600080fd5b6122358e60808f01358f016120c7565b945060a08d0135935061224a60c08e01611e00565b925060e08d013591506122606101008e01611e00565b90509295989b509295989b509295989b565b600080600080600080600080600080600060e08c8e03121561229357600080fd5b61229c8c611e00565b9a5067ffffffffffffffff8060208e013511156122b857600080fd5b6122c88e60208f01358f01611e10565b909b50995060408d01358110156122de57600080fd5b6122ee8e60408f01358f01611e10565b909950975060608d013581101561230457600080fd5b6123148e60608f01358f01611e10565b909750955060808d013581101561232a57600080fd5b5061233b8d60808e01358e01611e10565b909450925060a08c0135915061235360c08d01611e00565b90509295989b509295989b9093969950565b600080600080600060a0868803121561237d57600080fd5b8535945060208601359350604086013561239681611deb565b92506060860135915060808601356123ad81611deb565b809150509295509295909350565b600080600080600060a086880312156123d357600080fd5b853594506020860135935060408601356123ec81611deb565b925060608601356123fc81611deb565b949793965091946080013592915050565b60008060006060848603121561242257600080fd5b8335925060208401359150604084013561243b81611deb565b809150509250925092565b60006020828403121561245857600080fd5b813561246381611deb565b9392505050565b60008060006060848603121561247f57600080fd5b833561248a81611deb565b9250602084013561249a81611deb565b929592945050506040919091013590565b600080602083850312156124be57600080fd5b823567ffffffffffffffff8111156124d557600080fd5b6124e185828601611e10565b90969095509350505050565b6000806000806060858703121561250357600080fd5b843561250e81611deb565b935060208501359250604085013567ffffffffffffffff81111561253157600080fd5b61253d87828801611e10565b95989497509550505050565b60008060008060008060008060008060e08b8d03121561256857600080fd5b8a3561257381611deb565b995060208b013567ffffffffffffffff8082111561259057600080fd5b61259c8e838f01611e10565b909b50995060408d01359150808211156125b557600080fd5b6125c18e838f01611e10565b909950975060608d01359150808211156125da57600080fd5b506125e78d828e01611e10565b90965094505060808b01356125fb81611deb565b925060a08b0135915061261060c08c01611e00565b90509295989b9194979a5092959850565b6000806000806040858703121561263757600080fd5b843567ffffffffffffffff8082111561264f57600080fd5b61265b88838901611f19565b9096509450602087013591508082111561267457600080fd5b818701915087601f83011261268857600080fd5b81358181111561269757600080fd5b88602060c0830285010111156126ac57600080fd5b95989497505060200194505050565b8015158114610cd757600080fd5b8035611e0b816126bb565b6000806000806000806000806000806000806101008d8f0312156126f757600080fd5b6127008d611e00565b9b5067ffffffffffffffff60208e0135111561271b57600080fd5b61272b8e60208f01358f01611e10565b909b50995067ffffffffffffffff60408e0135111561274957600080fd5b6127598e60408f01358f01611e10565b909950975067ffffffffffffffff60608e0135111561277757600080fd5b6127878e60608f01358f01611e10565b909750955060808d0135945061279f60a08e016126c9565b93506127ad60c08e01611e00565b925067ffffffffffffffff60e08e013511156127c857600080fd5b6127d88e60e08f01358f01611e10565b81935080925050509295989b509295989b509295989b565b8183823760009101908152919050565b81835281816020850137506000828201602090810191909152601f909101601f19169091010190565b60808152600061283d60808301888a612800565b8281036020840152612850818789612800565b9150508360408301526001600160a01b0383166060830152979650505050505050565b634e487b7160e01b600052603260045260246000fd5b60006020828403121561289b57600080fd5b5051919050565b634e487b7160e01b600052602160045260246000fd5b634e487b7160e01b600052601160045260246000fd5b8082028115828204841417610e1057610e106128b8565b80820180821115610e1057610e106128b8565b60005b838110156129135781810151838201526020016128fb565b50506000910152565b60e08152600061293060e083018b8d612800565b8281036020840152612943818a8c612800565b905082810360408401528751808252612963816020840160208c016128f8565b60608401979097526001600160a01b03958616608084015260a083019490945250921660c0909201919091526020601f909201601f1916010195945050505050565b60c0815260006129b960c083018b8d612800565b82810360208401526129cc818a8c612800565b905082810360408401526129e181888a612800565b6060840196909652505060808101929092526001600160a01b031660a0909101529695505050505050565b602081526000612a20602083018486612800565b949350505050565b60008251612a3a8184602087016128f8565b9190910192915050565b60a081526000612a5860a08301898b612800565b8281036020840152612a6b81888a612800565b6001600160a01b039687166040850152606084019590955250509216608090920191909152949350505050565b6000808335601e19843603018112612aaf57600080fd5b83018035915067ffffffffffffffff821115612aca57600080fd5b602001915036819003821315611e5257600080fd5b6020810160058310612b0157634e487b7160e01b600052602160045260246000fd5b91905290565b67ffffffffffffffff81168114610cd757600080fd5b6001600160801b0381168114610cd757600080fd5b60e081526000612b4660e083018587612800565b90508235612b5381612b07565b67ffffffffffffffff808216602085015260208501359150612b7482612b07565b16604083810191909152830135612b8a81612b1d565b6001600160801b03808216606085015260608501359150612baa82612b1d565b808216608085015260808501359150612bc282612b1d565b1660a083810191909152830135612bd881612b1d565b6001600160801b03811660c084015250949350505050565b8135612bfb81612b07565b67ffffffffffffffff8116905081548167ffffffffffffffff1982161783556020840135612c2881612b07565b6fffffffffffffffff00000000000000008160401b16836fffffffffffffffffffffffffffffffff198416171784555050506040820135612c6881612b1d565b81546001600160801b0316608082901b6fffffffffffffffffffffffffffffffff191617825550600181016060830135612ca181612b1d565b81546fffffffffffffffffffffffffffffffff19166001600160801b038216178255506080830135612cd281612b1d565b81546001600160801b0316608082901b6fffffffffffffffffffffffffffffffff1916178255505060a0820135612d0881612b1d565b6002820180546fffffffffffffffffffffffffffffffff19166001600160801b038316179055505050565b600060208284031215612d4557600080fd5b8151612463816126bb565b67ffffffffffffffff818116838216028082169190828114611de357611de36128b8565b6001600160801b03818116838216028082169190828114611de357611de36128b8565b600082612db457634e487b7160e01b600052601260045260246000fd5b50049056fea2646970667358221220f861469381b22ffcb51c7e8aac64c42df609fa41fe64a670d8f91918c4789d3a64736f6c63430008170033",
  "linkReferences": {},
  "deployedLinkReferences": {}
}